{
	"Job-portal dapp/JobPortal.sol": {
		"JobPortal": {
			"abi": [
				{
					"inputs": [],
					"stateMutability": "nonpayable",
					"type": "constructor"
				},
				{
					"inputs": [
						{
							"internalType": "string",
							"name": "_name",
							"type": "string"
						},
						{
							"internalType": "uint256",
							"name": "_age",
							"type": "uint256"
						},
						{
							"internalType": "string",
							"name": "_address",
							"type": "string"
						}
					],
					"name": "addApplicant",
					"outputs": [],
					"stateMutability": "nonpayable",
					"type": "function"
				},
				{
					"inputs": [
						{
							"internalType": "string",
							"name": "_jobName",
							"type": "string"
						},
						{
							"internalType": "uint256",
							"name": "_salary",
							"type": "uint256"
						},
						{
							"internalType": "string",
							"name": "_details",
							"type": "string"
						}
					],
					"name": "addJob",
					"outputs": [],
					"stateMutability": "nonpayable",
					"type": "function"
				},
				{
					"inputs": [],
					"name": "admin",
					"outputs": [
						{
							"internalType": "address",
							"name": "",
							"type": "address"
						}
					],
					"stateMutability": "view",
					"type": "function"
				},
				{
					"inputs": [
						{
							"internalType": "uint256",
							"name": "",
							"type": "uint256"
						}
					],
					"name": "applicants",
					"outputs": [
						{
							"internalType": "string",
							"name": "name",
							"type": "string"
						},
						{
							"internalType": "uint256",
							"name": "age",
							"type": "uint256"
						},
						{
							"internalType": "string",
							"name": "Address",
							"type": "string"
						},
						{
							"internalType": "uint256",
							"name": "rating",
							"type": "uint256"
						}
					],
					"stateMutability": "view",
					"type": "function"
				},
				{
					"inputs": [
						{
							"internalType": "uint256",
							"name": "_applicantId",
							"type": "uint256"
						},
						{
							"internalType": "string",
							"name": "_jobName",
							"type": "string"
						}
					],
					"name": "applyForJob",
					"outputs": [],
					"stateMutability": "nonpayable",
					"type": "function"
				},
				{
					"inputs": [
						{
							"internalType": "uint256",
							"name": "_applicantId",
							"type": "uint256"
						}
					],
					"name": "getApplicantDetails",
					"outputs": [
						{
							"components": [
								{
									"internalType": "string",
									"name": "name",
									"type": "string"
								},
								{
									"internalType": "uint256",
									"name": "age",
									"type": "uint256"
								},
								{
									"internalType": "string",
									"name": "Address",
									"type": "string"
								},
								{
									"internalType": "uint256",
									"name": "rating",
									"type": "uint256"
								}
							],
							"internalType": "struct JobPortal.Applicant",
							"name": "",
							"type": "tuple"
						}
					],
					"stateMutability": "view",
					"type": "function"
				},
				{
					"inputs": [
						{
							"internalType": "uint256",
							"name": "_applicantId",
							"type": "uint256"
						}
					],
					"name": "getApplicantRating",
					"outputs": [
						{
							"internalType": "uint256",
							"name": "",
							"type": "uint256"
						}
					],
					"stateMutability": "view",
					"type": "function"
				},
				{
					"inputs": [
						{
							"internalType": "uint256",
							"name": "_applicantId",
							"type": "uint256"
						}
					],
					"name": "getApplicantType",
					"outputs": [
						{
							"internalType": "string",
							"name": "",
							"type": "string"
						}
					],
					"stateMutability": "pure",
					"type": "function"
				},
				{
					"inputs": [
						{
							"internalType": "string",
							"name": "_jobName",
							"type": "string"
						}
					],
					"name": "getJobDetails",
					"outputs": [
						{
							"components": [
								{
									"internalType": "string",
									"name": "jobName",
									"type": "string"
								},
								{
									"internalType": "uint256",
									"name": "salary",
									"type": "uint256"
								},
								{
									"internalType": "string",
									"name": "details",
									"type": "string"
								},
								{
									"internalType": "uint256",
									"name": "applicantsCount",
									"type": "uint256"
								}
							],
							"internalType": "struct JobPortal.Job",
							"name": "",
							"type": "tuple"
						}
					],
					"stateMutability": "view",
					"type": "function"
				},
				{
					"inputs": [
						{
							"internalType": "string",
							"name": "",
							"type": "string"
						}
					],
					"name": "jobs",
					"outputs": [
						{
							"internalType": "string",
							"name": "jobName",
							"type": "string"
						},
						{
							"internalType": "uint256",
							"name": "salary",
							"type": "uint256"
						},
						{
							"internalType": "string",
							"name": "details",
							"type": "string"
						},
						{
							"internalType": "uint256",
							"name": "applicantsCount",
							"type": "uint256"
						}
					],
					"stateMutability": "view",
					"type": "function"
				},
				{
					"inputs": [],
					"name": "lastApplicantId",
					"outputs": [
						{
							"internalType": "uint256",
							"name": "",
							"type": "uint256"
						}
					],
					"stateMutability": "view",
					"type": "function"
				},
				{
					"inputs": [
						{
							"internalType": "uint256",
							"name": "_applicantId",
							"type": "uint256"
						},
						{
							"internalType": "uint256",
							"name": "_rating",
							"type": "uint256"
						}
					],
					"name": "provideRating",
					"outputs": [],
					"stateMutability": "nonpayable",
					"type": "function"
				}
			],
			"devdoc": {
				"kind": "dev",
				"methods": {},
				"version": 1
			},
			"evm": {
				"assembly": "    /* \"Job-portal dapp/JobPortal.sol\":57:3113  contract JobPortal{... */\n  mstore(0x40, 0x80)\n    /* \"Job-portal dapp/JobPortal.sol\":108:157  constructor() {... */\n  callvalue\n  dup1\n  iszero\n  tag_1\n  jumpi\n  revert(0x00, 0x00)\ntag_1:\n  pop\n    /* \"Job-portal dapp/JobPortal.sol\":140:150  msg.sender */\n  caller\n    /* \"Job-portal dapp/JobPortal.sol\":132:137  admin */\n  0x00\n  0x00\n    /* \"Job-portal dapp/JobPortal.sol\":132:150  admin = msg.sender */\n  0x0100\n  exp\n  dup2\n  sload\n  dup2\n  0xffffffffffffffffffffffffffffffffffffffff\n  mul\n  not\n  and\n  swap1\n  dup4\n  0xffffffffffffffffffffffffffffffffffffffff\n  and\n  mul\n  or\n  swap1\n  sstore\n  pop\n    /* \"Job-portal dapp/JobPortal.sol\":57:3113  contract JobPortal{... */\n  dataSize(sub_0)\n  dup1\n  dataOffset(sub_0)\n  0x00\n  codecopy\n  0x00\n  return\nstop\n\nsub_0: assembly {\n        /* \"Job-portal dapp/JobPortal.sol\":57:3113  contract JobPortal{... */\n      mstore(0x40, 0x80)\n      callvalue\n      dup1\n      iszero\n      tag_1\n      jumpi\n      revert(0x00, 0x00)\n    tag_1:\n      pop\n      jumpi(tag_2, lt(calldatasize, 0x04))\n      shr(0xe0, calldataload(0x00))\n      dup1\n      0x89fb1352\n      gt\n      tag_15\n      jumpi\n      dup1\n      0x89fb1352\n      eq\n      tag_9\n      jumpi\n      dup1\n      0xb05e6f5a\n      eq\n      tag_10\n      jumpi\n      dup1\n      0xd280267d\n      eq\n      tag_11\n      jumpi\n      dup1\n      0xe90ca747\n      eq\n      tag_12\n      jumpi\n      dup1\n      0xf851a440\n      eq\n      tag_13\n      jumpi\n      dup1\n      0xfcb079c0\n      eq\n      tag_14\n      jumpi\n      jump(tag_2)\n    tag_15:\n      dup1\n      0x12bfabf6\n      eq\n      tag_3\n      jumpi\n      dup1\n      0x2dd5afd5\n      eq\n      tag_4\n      jumpi\n      dup1\n      0x41939210\n      eq\n      tag_5\n      jumpi\n      dup1\n      0x63de5323\n      eq\n      tag_6\n      jumpi\n      dup1\n      0x6c09a5e3\n      eq\n      tag_7\n      jumpi\n      dup1\n      0x8798a47b\n      eq\n      tag_8\n      jumpi\n    tag_2:\n      revert(0x00, 0x00)\n        /* \"Job-portal dapp/JobPortal.sol\":1605:1902  function addJob(... */\n    tag_3:\n      tag_16\n      0x04\n      dup1\n      calldatasize\n      sub\n      dup2\n      add\n      swap1\n      tag_17\n      swap2\n      swap1\n      tag_18\n      jump\t// in\n    tag_17:\n      tag_19\n      jump\t// in\n    tag_16:\n      stop\n        /* \"Job-portal dapp/JobPortal.sol\":2839:3098  function getApplicantRating(uint _applicantId) public view returns (uint) {... */\n    tag_4:\n      tag_20\n      0x04\n      dup1\n      calldatasize\n      sub\n      dup2\n      add\n      swap1\n      tag_21\n      swap2\n      swap1\n      tag_22\n      jump\t// in\n    tag_21:\n      tag_23\n      jump\t// in\n    tag_20:\n      mload(0x40)\n      tag_24\n      swap2\n      swap1\n      tag_25\n      jump\t// in\n    tag_24:\n      mload(0x40)\n      dup1\n      swap2\n      sub\n      swap1\n      return\n        /* \"Job-portal dapp/JobPortal.sol\":327:354  uint public lastApplicantId */\n    tag_5:\n      tag_26\n      tag_27\n      jump\t// in\n    tag_26:\n      mload(0x40)\n      tag_28\n      swap2\n      swap1\n      tag_25\n      jump\t// in\n    tag_28:\n      mload(0x40)\n      dup1\n      swap2\n      sub\n      swap1\n      return\n        /* \"Job-portal dapp/JobPortal.sol\":277:321  mapping (uint =>Applicant) public applicants */\n    tag_6:\n      tag_29\n      0x04\n      dup1\n      calldatasize\n      sub\n      dup2\n      add\n      swap1\n      tag_30\n      swap2\n      swap1\n      tag_22\n      jump\t// in\n    tag_30:\n      tag_31\n      jump\t// in\n    tag_29:\n      mload(0x40)\n      tag_32\n      swap5\n      swap4\n      swap3\n      swap2\n      swap1\n      tag_33\n      jump\t// in\n    tag_32:\n      mload(0x40)\n      dup1\n      swap2\n      sub\n      swap1\n      return\n        /* \"Job-portal dapp/JobPortal.sol\":2046:2433  function applyForJob(uint _applicantId, string memory _jobName) public {... */\n    tag_7:\n      tag_34\n      0x04\n      dup1\n      calldatasize\n      sub\n      dup2\n      add\n      swap1\n      tag_35\n      swap2\n      swap1\n      tag_36\n      jump\t// in\n    tag_35:\n      tag_37\n      jump\t// in\n    tag_34:\n      stop\n        /* \"Job-portal dapp/JobPortal.sol\":844:1123  function getApplicantDetails(... */\n    tag_8:\n      tag_38\n      0x04\n      dup1\n      calldatasize\n      sub\n      dup2\n      add\n      swap1\n      tag_39\n      swap2\n      swap1\n      tag_22\n      jump\t// in\n    tag_39:\n      tag_40\n      jump\t// in\n    tag_38:\n      mload(0x40)\n      tag_41\n      swap2\n      swap1\n      tag_42\n      jump\t// in\n    tag_41:\n      mload(0x40)\n      dup1\n      swap2\n      sub\n      swap1\n      return\n        /* \"Job-portal dapp/JobPortal.sol\":2439:2833  function provideRating(uint _applicantId, uint _rating) public onlyAdmin {... */\n    tag_9:\n      tag_43\n      0x04\n      dup1\n      calldatasize\n      sub\n      dup2\n      add\n      swap1\n      tag_44\n      swap2\n      swap1\n      tag_45\n      jump\t// in\n    tag_44:\n      tag_46\n      jump\t// in\n    tag_43:\n      stop\n        /* \"Job-portal dapp/JobPortal.sol\":1564:1598  mapping(string => Job) public jobs */\n    tag_10:\n      tag_47\n      0x04\n      dup1\n      calldatasize\n      sub\n      dup2\n      add\n      swap1\n      tag_48\n      swap2\n      swap1\n      tag_49\n      jump\t// in\n    tag_48:\n      tag_50\n      jump\t// in\n    tag_47:\n      mload(0x40)\n      tag_51\n      swap5\n      swap4\n      swap3\n      swap2\n      swap1\n      tag_33\n      jump\t// in\n    tag_51:\n      mload(0x40)\n      dup1\n      swap2\n      sub\n      swap1\n      return\n        /* \"Job-portal dapp/JobPortal.sol\":1129:1435  function getApplicantType(... */\n    tag_11:\n      tag_52\n      0x04\n      dup1\n      calldatasize\n      sub\n      dup2\n      add\n      swap1\n      tag_53\n      swap2\n      swap1\n      tag_22\n      jump\t// in\n    tag_53:\n      tag_54\n      jump\t// in\n    tag_52:\n      mload(0x40)\n      tag_55\n      swap2\n      swap1\n      tag_56\n      jump\t// in\n    tag_55:\n      mload(0x40)\n      dup1\n      swap2\n      sub\n      swap1\n      return\n        /* \"Job-portal dapp/JobPortal.sol\":1908:2040  function getJobDetails(... */\n    tag_12:\n      tag_57\n      0x04\n      dup1\n      calldatasize\n      sub\n      dup2\n      add\n      swap1\n      tag_58\n      swap2\n      swap1\n      tag_49\n      jump\t// in\n    tag_58:\n      tag_59\n      jump\t// in\n    tag_57:\n      mload(0x40)\n      tag_60\n      swap2\n      swap1\n      tag_61\n      jump\t// in\n    tag_60:\n      mload(0x40)\n      dup1\n      swap2\n      sub\n      swap1\n      return\n        /* \"Job-portal dapp/JobPortal.sol\":81:101  address public admin */\n    tag_13:\n      tag_62\n      tag_63\n      jump\t// in\n    tag_62:\n      mload(0x40)\n      tag_64\n      swap2\n      swap1\n      tag_65\n      jump\t// in\n    tag_64:\n      mload(0x40)\n      dup1\n      swap2\n      sub\n      swap1\n      return\n        /* \"Job-portal dapp/JobPortal.sol\":488:839  function addApplicant (... */\n    tag_14:\n      tag_66\n      0x04\n      dup1\n      calldatasize\n      sub\n      dup2\n      add\n      swap1\n      tag_67\n      swap2\n      swap1\n      tag_18\n      jump\t// in\n    tag_67:\n      tag_68\n      jump\t// in\n    tag_66:\n      stop\n        /* \"Job-portal dapp/JobPortal.sol\":1605:1902  function addJob(... */\n    tag_19:\n        /* \"Job-portal dapp/JobPortal.sol\":413:418  admin */\n      0x00\n      0x00\n      swap1\n      sload\n      swap1\n      0x0100\n      exp\n      swap1\n      div\n      0xffffffffffffffffffffffffffffffffffffffff\n      and\n        /* \"Job-portal dapp/JobPortal.sol\":399:418  msg.sender == admin */\n      0xffffffffffffffffffffffffffffffffffffffff\n      and\n        /* \"Job-portal dapp/JobPortal.sol\":399:409  msg.sender */\n      caller\n        /* \"Job-portal dapp/JobPortal.sol\":399:418  msg.sender == admin */\n      0xffffffffffffffffffffffffffffffffffffffff\n      and\n      eq\n        /* \"Job-portal dapp/JobPortal.sol\":391:460  require(msg.sender == admin, \"only admin can perform this operation\") */\n      tag_70\n      jumpi\n      mload(0x40)\n      0x08c379a000000000000000000000000000000000000000000000000000000000\n      dup2\n      mstore\n      0x04\n      add\n      tag_71\n      swap1\n      tag_72\n      jump\t// in\n    tag_71:\n      mload(0x40)\n      dup1\n      swap2\n      sub\n      swap1\n      revert\n    tag_70:\n        /* \"Job-portal dapp/JobPortal.sol\":1757:1895  Job({... */\n      mload(0x40)\n      dup1\n      0x80\n      add\n      0x40\n      mstore\n      dup1\n        /* \"Job-portal dapp/JobPortal.sol\":1784:1792  _jobName */\n      dup5\n        /* \"Job-portal dapp/JobPortal.sol\":1757:1895  Job({... */\n      dup2\n      mstore\n      0x20\n      add\n        /* \"Job-portal dapp/JobPortal.sol\":1814:1821  _salary */\n      dup4\n        /* \"Job-portal dapp/JobPortal.sol\":1757:1895  Job({... */\n      dup2\n      mstore\n      0x20\n      add\n        /* \"Job-portal dapp/JobPortal.sol\":1844:1852  _details */\n      dup3\n        /* \"Job-portal dapp/JobPortal.sol\":1757:1895  Job({... */\n      dup2\n      mstore\n      0x20\n      add\n        /* \"Job-portal dapp/JobPortal.sol\":1883:1884  0 */\n      0x00\n        /* \"Job-portal dapp/JobPortal.sol\":1757:1895  Job({... */\n      dup2\n      mstore\n      pop\n        /* \"Job-portal dapp/JobPortal.sol\":1740:1744  jobs */\n      0x03\n        /* \"Job-portal dapp/JobPortal.sol\":1745:1753  _jobName */\n      dup5\n        /* \"Job-portal dapp/JobPortal.sol\":1740:1754  jobs[_jobName] */\n      mload(0x40)\n      tag_74\n      swap2\n      swap1\n      tag_75\n      jump\t// in\n    tag_74:\n      swap1\n      dup2\n      mstore\n      0x20\n      add\n      mload(0x40)\n      dup1\n      swap2\n      sub\n      swap1\n      keccak256\n        /* \"Job-portal dapp/JobPortal.sol\":1740:1895  jobs[_jobName] = Job({... */\n      0x00\n      dup3\n      add\n      mload\n      dup2\n      0x00\n      add\n      swap1\n      dup2\n      tag_76\n      swap2\n      swap1\n      tag_77\n      jump\t// in\n    tag_76:\n      pop\n      0x20\n      dup3\n      add\n      mload\n      dup2\n      0x01\n      add\n      sstore\n      0x40\n      dup3\n      add\n      mload\n      dup2\n      0x02\n      add\n      swap1\n      dup2\n      tag_78\n      swap2\n      swap1\n      tag_77\n      jump\t// in\n    tag_78:\n      pop\n      0x60\n      dup3\n      add\n      mload\n      dup2\n      0x03\n      add\n      sstore\n      swap1\n      pop\n      pop\n        /* \"Job-portal dapp/JobPortal.sol\":1605:1902  function addJob(... */\n      pop\n      pop\n      pop\n      jump\t// out\n        /* \"Job-portal dapp/JobPortal.sol\":2839:3098  function getApplicantRating(uint _applicantId) public view returns (uint) {... */\n    tag_23:\n        /* \"Job-portal dapp/JobPortal.sol\":2907:2911  uint */\n      0x00\n        /* \"Job-portal dapp/JobPortal.sol\":2960:2975  lastApplicantId */\n      sload(0x02)\n        /* \"Job-portal dapp/JobPortal.sol\":2944:2956  _applicantId */\n      dup3\n        /* \"Job-portal dapp/JobPortal.sol\":2944:2975  _applicantId <= lastApplicantId */\n      gt\n      iszero\n        /* \"Job-portal dapp/JobPortal.sol\":2923:3043  require(... */\n      tag_80\n      jumpi\n      mload(0x40)\n      0x08c379a000000000000000000000000000000000000000000000000000000000\n      dup2\n      mstore\n      0x04\n      add\n      tag_81\n      swap1\n      tag_82\n      jump\t// in\n    tag_81:\n      mload(0x40)\n      dup1\n      swap2\n      sub\n      swap1\n      revert\n    tag_80:\n        /* \"Job-portal dapp/JobPortal.sol\":3060:3070  applicants */\n      0x01\n        /* \"Job-portal dapp/JobPortal.sol\":3060:3084  applicants[_applicantId] */\n      0x00\n        /* \"Job-portal dapp/JobPortal.sol\":3071:3083  _applicantId */\n      dup4\n        /* \"Job-portal dapp/JobPortal.sol\":3060:3084  applicants[_applicantId] */\n      dup2\n      mstore\n      0x20\n      add\n      swap1\n      dup2\n      mstore\n      0x20\n      add\n      0x00\n      keccak256\n        /* \"Job-portal dapp/JobPortal.sol\":3060:3091  applicants[_applicantId].rating */\n      0x03\n      add\n      sload\n        /* \"Job-portal dapp/JobPortal.sol\":3053:3091  return applicants[_applicantId].rating */\n      swap1\n      pop\n        /* \"Job-portal dapp/JobPortal.sol\":2839:3098  function getApplicantRating(uint _applicantId) public view returns (uint) {... */\n      swap2\n      swap1\n      pop\n      jump\t// out\n        /* \"Job-portal dapp/JobPortal.sol\":327:354  uint public lastApplicantId */\n    tag_27:\n      sload(0x02)\n      dup2\n      jump\t// out\n        /* \"Job-portal dapp/JobPortal.sol\":277:321  mapping (uint =>Applicant) public applicants */\n    tag_31:\n      mstore(0x20, 0x01)\n      dup1\n      0x00\n      mstore\n      keccak256(0x00, 0x40)\n      0x00\n      swap2\n      pop\n      swap1\n      pop\n      dup1\n      0x00\n      add\n      dup1\n      sload\n      tag_83\n      swap1\n      tag_84\n      jump\t// in\n    tag_83:\n      dup1\n      0x1f\n      add\n      0x20\n      dup1\n      swap2\n      div\n      mul\n      0x20\n      add\n      mload(0x40)\n      swap1\n      dup2\n      add\n      0x40\n      mstore\n      dup1\n      swap3\n      swap2\n      swap1\n      dup2\n      dup2\n      mstore\n      0x20\n      add\n      dup3\n      dup1\n      sload\n      tag_85\n      swap1\n      tag_84\n      jump\t// in\n    tag_85:\n      dup1\n      iszero\n      tag_86\n      jumpi\n      dup1\n      0x1f\n      lt\n      tag_87\n      jumpi\n      0x0100\n      dup1\n      dup4\n      sload\n      div\n      mul\n      dup4\n      mstore\n      swap2\n      0x20\n      add\n      swap2\n      jump(tag_86)\n    tag_87:\n      dup3\n      add\n      swap2\n      swap1\n      0x00\n      mstore\n      keccak256(0x00, 0x20)\n      swap1\n    tag_88:\n      dup2\n      sload\n      dup2\n      mstore\n      swap1\n      0x01\n      add\n      swap1\n      0x20\n      add\n      dup1\n      dup4\n      gt\n      tag_88\n      jumpi\n      dup3\n      swap1\n      sub\n      0x1f\n      and\n      dup3\n      add\n      swap2\n    tag_86:\n      pop\n      pop\n      pop\n      pop\n      pop\n      swap1\n      dup1\n      0x01\n      add\n      sload\n      swap1\n      dup1\n      0x02\n      add\n      dup1\n      sload\n      tag_89\n      swap1\n      tag_84\n      jump\t// in\n    tag_89:\n      dup1\n      0x1f\n      add\n      0x20\n      dup1\n      swap2\n      div\n      mul\n      0x20\n      add\n      mload(0x40)\n      swap1\n      dup2\n      add\n      0x40\n      mstore\n      dup1\n      swap3\n      swap2\n      swap1\n      dup2\n      dup2\n      mstore\n      0x20\n      add\n      dup3\n      dup1\n      sload\n      tag_90\n      swap1\n      tag_84\n      jump\t// in\n    tag_90:\n      dup1\n      iszero\n      tag_91\n      jumpi\n      dup1\n      0x1f\n      lt\n      tag_92\n      jumpi\n      0x0100\n      dup1\n      dup4\n      sload\n      div\n      mul\n      dup4\n      mstore\n      swap2\n      0x20\n      add\n      swap2\n      jump(tag_91)\n    tag_92:\n      dup3\n      add\n      swap2\n      swap1\n      0x00\n      mstore\n      keccak256(0x00, 0x20)\n      swap1\n    tag_93:\n      dup2\n      sload\n      dup2\n      mstore\n      swap1\n      0x01\n      add\n      swap1\n      0x20\n      add\n      dup1\n      dup4\n      gt\n      tag_93\n      jumpi\n      dup3\n      swap1\n      sub\n      0x1f\n      and\n      dup3\n      add\n      swap2\n    tag_91:\n      pop\n      pop\n      pop\n      pop\n      pop\n      swap1\n      dup1\n      0x03\n      add\n      sload\n      swap1\n      pop\n      dup5\n      jump\t// out\n        /* \"Job-portal dapp/JobPortal.sol\":2046:2433  function applyForJob(uint _applicantId, string memory _jobName) public {... */\n    tag_37:\n        /* \"Job-portal dapp/JobPortal.sol\":2164:2179  lastApplicantId */\n      sload(0x02)\n        /* \"Job-portal dapp/JobPortal.sol\":2148:2160  _applicantId */\n      dup3\n        /* \"Job-portal dapp/JobPortal.sol\":2148:2179  _applicantId <= lastApplicantId */\n      gt\n      iszero\n        /* \"Job-portal dapp/JobPortal.sol\":2127:2247  require(... */\n      tag_95\n      jumpi\n      mload(0x40)\n      0x08c379a000000000000000000000000000000000000000000000000000000000\n      dup2\n      mstore\n      0x04\n      add\n      tag_96\n      swap1\n      tag_82\n      jump\t// in\n    tag_96:\n      mload(0x40)\n      dup1\n      swap2\n      sub\n      swap1\n      revert\n    tag_95:\n        /* \"Job-portal dapp/JobPortal.sol\":2318:2319  0 */\n      0x00\n        /* \"Job-portal dapp/JobPortal.sol\":2284:2288  jobs */\n      0x03\n        /* \"Job-portal dapp/JobPortal.sol\":2289:2297  _jobName */\n      dup3\n        /* \"Job-portal dapp/JobPortal.sol\":2284:2298  jobs[_jobName] */\n      mload(0x40)\n      tag_97\n      swap2\n      swap1\n      tag_75\n      jump\t// in\n    tag_97:\n      swap1\n      dup2\n      mstore\n      0x20\n      add\n      mload(0x40)\n      dup1\n      swap2\n      sub\n      swap1\n      keccak256\n        /* \"Job-portal dapp/JobPortal.sol\":2284:2306  jobs[_jobName].jobName */\n      0x00\n      add\n        /* \"Job-portal dapp/JobPortal.sol\":2278:2314  bytes(jobs[_jobName].jobName).length */\n      dup1\n      sload\n      tag_98\n      swap1\n      tag_84\n      jump\t// in\n    tag_98:\n      swap1\n      pop\n        /* \"Job-portal dapp/JobPortal.sol\":2278:2319  bytes(jobs[_jobName].jobName).length != 0 */\n      sub\n        /* \"Job-portal dapp/JobPortal.sol\":2257:2383  require(... */\n      tag_99\n      jumpi\n      mload(0x40)\n      0x08c379a000000000000000000000000000000000000000000000000000000000\n      dup2\n      mstore\n      0x04\n      add\n      tag_100\n      swap1\n      tag_101\n      jump\t// in\n    tag_100:\n      mload(0x40)\n      dup1\n      swap2\n      sub\n      swap1\n      revert\n    tag_99:\n        /* \"Job-portal dapp/JobPortal.sol\":2394:2398  jobs */\n      0x03\n        /* \"Job-portal dapp/JobPortal.sol\":2399:2407  _jobName */\n      dup2\n        /* \"Job-portal dapp/JobPortal.sol\":2394:2408  jobs[_jobName] */\n      mload(0x40)\n      tag_102\n      swap2\n      swap1\n      tag_75\n      jump\t// in\n    tag_102:\n      swap1\n      dup2\n      mstore\n      0x20\n      add\n      mload(0x40)\n      dup1\n      swap2\n      sub\n      swap1\n      keccak256\n        /* \"Job-portal dapp/JobPortal.sol\":2394:2424  jobs[_jobName].applicantsCount */\n      0x03\n      add\n      0x00\n        /* \"Job-portal dapp/JobPortal.sol\":2394:2426  jobs[_jobName].applicantsCount++ */\n      dup2\n      sload\n      dup1\n      swap3\n      swap2\n      swap1\n      tag_103\n      swap1\n      tag_104\n      jump\t// in\n    tag_103:\n      swap2\n      swap1\n      pop\n      sstore\n      pop\n        /* \"Job-portal dapp/JobPortal.sol\":2046:2433  function applyForJob(uint _applicantId, string memory _jobName) public {... */\n      pop\n      pop\n      jump\t// out\n        /* \"Job-portal dapp/JobPortal.sol\":844:1123  function getApplicantDetails(... */\n    tag_40:\n        /* \"Job-portal dapp/JobPortal.sol\":927:943  Applicant memory */\n      tag_105\n      tag_106\n      jump\t// in\n    tag_105:\n        /* \"Job-portal dapp/JobPortal.sol\":992:1007  lastApplicantId */\n      sload(0x02)\n        /* \"Job-portal dapp/JobPortal.sol\":976:988  _applicantId */\n      dup3\n        /* \"Job-portal dapp/JobPortal.sol\":976:1007  _applicantId <= lastApplicantId */\n      gt\n      iszero\n        /* \"Job-portal dapp/JobPortal.sol\":955:1075  require(... */\n      tag_108\n      jumpi\n      mload(0x40)\n      0x08c379a000000000000000000000000000000000000000000000000000000000\n      dup2\n      mstore\n      0x04\n      add\n      tag_109\n      swap1\n      tag_82\n      jump\t// in\n    tag_109:\n      mload(0x40)\n      dup1\n      swap2\n      sub\n      swap1\n      revert\n    tag_108:\n        /* \"Job-portal dapp/JobPortal.sol\":1092:1102  applicants */\n      0x01\n        /* \"Job-portal dapp/JobPortal.sol\":1092:1116  applicants[_applicantId] */\n      0x00\n        /* \"Job-portal dapp/JobPortal.sol\":1103:1115  _applicantId */\n      dup4\n        /* \"Job-portal dapp/JobPortal.sol\":1092:1116  applicants[_applicantId] */\n      dup2\n      mstore\n      0x20\n      add\n      swap1\n      dup2\n      mstore\n      0x20\n      add\n      0x00\n      keccak256\n        /* \"Job-portal dapp/JobPortal.sol\":1085:1116  return applicants[_applicantId] */\n      mload(0x40)\n      dup1\n      0x80\n      add\n      0x40\n      mstore\n      swap1\n      dup2\n      0x00\n      dup3\n      add\n      dup1\n      sload\n      tag_110\n      swap1\n      tag_84\n      jump\t// in\n    tag_110:\n      dup1\n      0x1f\n      add\n      0x20\n      dup1\n      swap2\n      div\n      mul\n      0x20\n      add\n      mload(0x40)\n      swap1\n      dup2\n      add\n      0x40\n      mstore\n      dup1\n      swap3\n      swap2\n      swap1\n      dup2\n      dup2\n      mstore\n      0x20\n      add\n      dup3\n      dup1\n      sload\n      tag_111\n      swap1\n      tag_84\n      jump\t// in\n    tag_111:\n      dup1\n      iszero\n      tag_112\n      jumpi\n      dup1\n      0x1f\n      lt\n      tag_113\n      jumpi\n      0x0100\n      dup1\n      dup4\n      sload\n      div\n      mul\n      dup4\n      mstore\n      swap2\n      0x20\n      add\n      swap2\n      jump(tag_112)\n    tag_113:\n      dup3\n      add\n      swap2\n      swap1\n      0x00\n      mstore\n      keccak256(0x00, 0x20)\n      swap1\n    tag_114:\n      dup2\n      sload\n      dup2\n      mstore\n      swap1\n      0x01\n      add\n      swap1\n      0x20\n      add\n      dup1\n      dup4\n      gt\n      tag_114\n      jumpi\n      dup3\n      swap1\n      sub\n      0x1f\n      and\n      dup3\n      add\n      swap2\n    tag_112:\n      pop\n      pop\n      pop\n      pop\n      pop\n      dup2\n      mstore\n      0x20\n      add\n      0x01\n      dup3\n      add\n      sload\n      dup2\n      mstore\n      0x20\n      add\n      0x02\n      dup3\n      add\n      dup1\n      sload\n      tag_115\n      swap1\n      tag_84\n      jump\t// in\n    tag_115:\n      dup1\n      0x1f\n      add\n      0x20\n      dup1\n      swap2\n      div\n      mul\n      0x20\n      add\n      mload(0x40)\n      swap1\n      dup2\n      add\n      0x40\n      mstore\n      dup1\n      swap3\n      swap2\n      swap1\n      dup2\n      dup2\n      mstore\n      0x20\n      add\n      dup3\n      dup1\n      sload\n      tag_116\n      swap1\n      tag_84\n      jump\t// in\n    tag_116:\n      dup1\n      iszero\n      tag_117\n      jumpi\n      dup1\n      0x1f\n      lt\n      tag_118\n      jumpi\n      0x0100\n      dup1\n      dup4\n      sload\n      div\n      mul\n      dup4\n      mstore\n      swap2\n      0x20\n      add\n      swap2\n      jump(tag_117)\n    tag_118:\n      dup3\n      add\n      swap2\n      swap1\n      0x00\n      mstore\n      keccak256(0x00, 0x20)\n      swap1\n    tag_119:\n      dup2\n      sload\n      dup2\n      mstore\n      swap1\n      0x01\n      add\n      swap1\n      0x20\n      add\n      dup1\n      dup4\n      gt\n      tag_119\n      jumpi\n      dup3\n      swap1\n      sub\n      0x1f\n      and\n      dup3\n      add\n      swap2\n    tag_117:\n      pop\n      pop\n      pop\n      pop\n      pop\n      dup2\n      mstore\n      0x20\n      add\n      0x03\n      dup3\n      add\n      sload\n      dup2\n      mstore\n      pop\n      pop\n      swap1\n      pop\n        /* \"Job-portal dapp/JobPortal.sol\":844:1123  function getApplicantDetails(... */\n      swap2\n      swap1\n      pop\n      jump\t// out\n        /* \"Job-portal dapp/JobPortal.sol\":2439:2833  function provideRating(uint _applicantId, uint _rating) public onlyAdmin {... */\n    tag_46:\n        /* \"Job-portal dapp/JobPortal.sol\":413:418  admin */\n      0x00\n      0x00\n      swap1\n      sload\n      swap1\n      0x0100\n      exp\n      swap1\n      div\n      0xffffffffffffffffffffffffffffffffffffffff\n      and\n        /* \"Job-portal dapp/JobPortal.sol\":399:418  msg.sender == admin */\n      0xffffffffffffffffffffffffffffffffffffffff\n      and\n        /* \"Job-portal dapp/JobPortal.sol\":399:409  msg.sender */\n      caller\n        /* \"Job-portal dapp/JobPortal.sol\":399:418  msg.sender == admin */\n      0xffffffffffffffffffffffffffffffffffffffff\n      and\n      eq\n        /* \"Job-portal dapp/JobPortal.sol\":391:460  require(msg.sender == admin, \"only admin can perform this operation\") */\n      tag_121\n      jumpi\n      mload(0x40)\n      0x08c379a000000000000000000000000000000000000000000000000000000000\n      dup2\n      mstore\n      0x04\n      add\n      tag_122\n      swap1\n      tag_72\n      jump\t// in\n    tag_122:\n      mload(0x40)\n      dup1\n      swap2\n      sub\n      swap1\n      revert\n    tag_121:\n        /* \"Job-portal dapp/JobPortal.sol\":2559:2574  lastApplicantId */\n      sload(0x02)\n        /* \"Job-portal dapp/JobPortal.sol\":2543:2555  _applicantId */\n      dup3\n        /* \"Job-portal dapp/JobPortal.sol\":2543:2574  _applicantId <= lastApplicantId */\n      gt\n      iszero\n        /* \"Job-portal dapp/JobPortal.sol\":2522:2642  require(... */\n      tag_124\n      jumpi\n      mload(0x40)\n      0x08c379a000000000000000000000000000000000000000000000000000000000\n      dup2\n      mstore\n      0x04\n      add\n      tag_125\n      swap1\n      tag_82\n      jump\t// in\n    tag_125:\n      mload(0x40)\n      dup1\n      swap2\n      sub\n      swap1\n      revert\n    tag_124:\n        /* \"Job-portal dapp/JobPortal.sol\":2684:2685  1 */\n      0x01\n        /* \"Job-portal dapp/JobPortal.sol\":2673:2680  _rating */\n      dup2\n        /* \"Job-portal dapp/JobPortal.sol\":2673:2685  _rating >= 1 */\n      lt\n      iszero\n        /* \"Job-portal dapp/JobPortal.sol\":2673:2701  _rating >= 1 && _rating <= 5 */\n      dup1\n      iszero\n      tag_126\n      jumpi\n      pop\n        /* \"Job-portal dapp/JobPortal.sol\":2700:2701  5 */\n      0x05\n        /* \"Job-portal dapp/JobPortal.sol\":2689:2696  _rating */\n      dup2\n        /* \"Job-portal dapp/JobPortal.sol\":2689:2701  _rating <= 5 */\n      gt\n      iszero\n        /* \"Job-portal dapp/JobPortal.sol\":2673:2701  _rating >= 1 && _rating <= 5 */\n    tag_126:\n        /* \"Job-portal dapp/JobPortal.sol\":2652:2774  require(... */\n      tag_127\n      jumpi\n      mload(0x40)\n      0x08c379a000000000000000000000000000000000000000000000000000000000\n      dup2\n      mstore\n      0x04\n      add\n      tag_128\n      swap1\n      tag_129\n      jump\t// in\n    tag_128:\n      mload(0x40)\n      dup1\n      swap2\n      sub\n      swap1\n      revert\n    tag_127:\n        /* \"Job-portal dapp/JobPortal.sol\":2819:2826  _rating */\n      dup1\n        /* \"Job-portal dapp/JobPortal.sol\":2785:2795  applicants */\n      0x01\n        /* \"Job-portal dapp/JobPortal.sol\":2785:2809  applicants[_applicantId] */\n      0x00\n        /* \"Job-portal dapp/JobPortal.sol\":2796:2808  _applicantId */\n      dup5\n        /* \"Job-portal dapp/JobPortal.sol\":2785:2809  applicants[_applicantId] */\n      dup2\n      mstore\n      0x20\n      add\n      swap1\n      dup2\n      mstore\n      0x20\n      add\n      0x00\n      keccak256\n        /* \"Job-portal dapp/JobPortal.sol\":2785:2816  applicants[_applicantId].rating */\n      0x03\n      add\n        /* \"Job-portal dapp/JobPortal.sol\":2785:2826  applicants[_applicantId].rating = _rating */\n      dup2\n      swap1\n      sstore\n      pop\n        /* \"Job-portal dapp/JobPortal.sol\":2439:2833  function provideRating(uint _applicantId, uint _rating) public onlyAdmin {... */\n      pop\n      pop\n      jump\t// out\n        /* \"Job-portal dapp/JobPortal.sol\":1564:1598  mapping(string => Job) public jobs */\n    tag_50:\n      0x03\n      dup2\n      dup1\n      mload\n      0x20\n      dup2\n      add\n      dup3\n      add\n      dup1\n      mload\n      dup5\n      dup3\n      mstore\n      0x20\n      dup4\n      add\n      0x20\n      dup6\n      add\n      keccak256\n      dup2\n      dup4\n      mstore\n      dup1\n      swap6\n      pop\n      pop\n      pop\n      pop\n      pop\n      pop\n      0x00\n      swap2\n      pop\n      swap1\n      pop\n      dup1\n      0x00\n      add\n      dup1\n      sload\n      tag_130\n      swap1\n      tag_84\n      jump\t// in\n    tag_130:\n      dup1\n      0x1f\n      add\n      0x20\n      dup1\n      swap2\n      div\n      mul\n      0x20\n      add\n      mload(0x40)\n      swap1\n      dup2\n      add\n      0x40\n      mstore\n      dup1\n      swap3\n      swap2\n      swap1\n      dup2\n      dup2\n      mstore\n      0x20\n      add\n      dup3\n      dup1\n      sload\n      tag_131\n      swap1\n      tag_84\n      jump\t// in\n    tag_131:\n      dup1\n      iszero\n      tag_132\n      jumpi\n      dup1\n      0x1f\n      lt\n      tag_133\n      jumpi\n      0x0100\n      dup1\n      dup4\n      sload\n      div\n      mul\n      dup4\n      mstore\n      swap2\n      0x20\n      add\n      swap2\n      jump(tag_132)\n    tag_133:\n      dup3\n      add\n      swap2\n      swap1\n      0x00\n      mstore\n      keccak256(0x00, 0x20)\n      swap1\n    tag_134:\n      dup2\n      sload\n      dup2\n      mstore\n      swap1\n      0x01\n      add\n      swap1\n      0x20\n      add\n      dup1\n      dup4\n      gt\n      tag_134\n      jumpi\n      dup3\n      swap1\n      sub\n      0x1f\n      and\n      dup3\n      add\n      swap2\n    tag_132:\n      pop\n      pop\n      pop\n      pop\n      pop\n      swap1\n      dup1\n      0x01\n      add\n      sload\n      swap1\n      dup1\n      0x02\n      add\n      dup1\n      sload\n      tag_135\n      swap1\n      tag_84\n      jump\t// in\n    tag_135:\n      dup1\n      0x1f\n      add\n      0x20\n      dup1\n      swap2\n      div\n      mul\n      0x20\n      add\n      mload(0x40)\n      swap1\n      dup2\n      add\n      0x40\n      mstore\n      dup1\n      swap3\n      swap2\n      swap1\n      dup2\n      dup2\n      mstore\n      0x20\n      add\n      dup3\n      dup1\n      sload\n      tag_136\n      swap1\n      tag_84\n      jump\t// in\n    tag_136:\n      dup1\n      iszero\n      tag_137\n      jumpi\n      dup1\n      0x1f\n      lt\n      tag_138\n      jumpi\n      0x0100\n      dup1\n      dup4\n      sload\n      div\n      mul\n      dup4\n      mstore\n      swap2\n      0x20\n      add\n      swap2\n      jump(tag_137)\n    tag_138:\n      dup3\n      add\n      swap2\n      swap1\n      0x00\n      mstore\n      keccak256(0x00, 0x20)\n      swap1\n    tag_139:\n      dup2\n      sload\n      dup2\n      mstore\n      swap1\n      0x01\n      add\n      swap1\n      0x20\n      add\n      dup1\n      dup4\n      gt\n      tag_139\n      jumpi\n      dup3\n      swap1\n      sub\n      0x1f\n      and\n      dup3\n      add\n      swap2\n    tag_137:\n      pop\n      pop\n      pop\n      pop\n      pop\n      swap1\n      dup1\n      0x03\n      add\n      sload\n      swap1\n      pop\n      dup5\n      jump\t// out\n        /* \"Job-portal dapp/JobPortal.sol\":1129:1435  function getApplicantType(... */\n    tag_54:\n        /* \"Job-portal dapp/JobPortal.sol\":1209:1222  string memory */\n      0x60\n        /* \"Job-portal dapp/JobPortal.sol\":1340:1341  0 */\n      0x00\n        /* \"Job-portal dapp/JobPortal.sol\":1335:1336  2 */\n      0x02\n        /* \"Job-portal dapp/JobPortal.sol\":1320:1332  _applicantId */\n      dup4\n        /* \"Job-portal dapp/JobPortal.sol\":1320:1336  _applicantId % 2 */\n      tag_141\n      swap2\n      swap1\n      tag_142\n      jump\t// in\n    tag_141:\n        /* \"Job-portal dapp/JobPortal.sol\":1320:1341  _applicantId % 2 == 0 */\n      sub\n        /* \"Job-portal dapp/JobPortal.sol\":1316:1429  if (_applicantId % 2 == 0) {... */\n      tag_143\n      jumpi\n        /* \"Job-portal dapp/JobPortal.sol\":1357:1372  return \"Type A\" */\n      mload(0x40)\n      dup1\n      0x40\n      add\n      0x40\n      mstore\n      dup1\n      0x06\n      dup2\n      mstore\n      0x20\n      add\n      0x5479706520410000000000000000000000000000000000000000000000000000\n      dup2\n      mstore\n      pop\n      swap1\n      pop\n      jump(tag_140)\n        /* \"Job-portal dapp/JobPortal.sol\":1316:1429  if (_applicantId % 2 == 0) {... */\n    tag_143:\n        /* \"Job-portal dapp/JobPortal.sol\":1403:1418  return \"Type B\" */\n      mload(0x40)\n      dup1\n      0x40\n      add\n      0x40\n      mstore\n      dup1\n      0x06\n      dup2\n      mstore\n      0x20\n      add\n      0x5479706520420000000000000000000000000000000000000000000000000000\n      dup2\n      mstore\n      pop\n      swap1\n      pop\n        /* \"Job-portal dapp/JobPortal.sol\":1129:1435  function getApplicantType(... */\n    tag_140:\n      swap2\n      swap1\n      pop\n      jump\t// out\n        /* \"Job-portal dapp/JobPortal.sol\":1908:2040  function getJobDetails(... */\n    tag_59:\n        /* \"Job-portal dapp/JobPortal.sol\":1990:2000  Job memory */\n      tag_145\n      tag_146\n      jump\t// in\n    tag_145:\n        /* \"Job-portal dapp/JobPortal.sol\":2019:2023  jobs */\n      0x03\n        /* \"Job-portal dapp/JobPortal.sol\":2024:2032  _jobName */\n      dup3\n        /* \"Job-portal dapp/JobPortal.sol\":2019:2033  jobs[_jobName] */\n      mload(0x40)\n      tag_148\n      swap2\n      swap1\n      tag_75\n      jump\t// in\n    tag_148:\n      swap1\n      dup2\n      mstore\n      0x20\n      add\n      mload(0x40)\n      dup1\n      swap2\n      sub\n      swap1\n      keccak256\n        /* \"Job-portal dapp/JobPortal.sol\":2012:2033  return jobs[_jobName] */\n      mload(0x40)\n      dup1\n      0x80\n      add\n      0x40\n      mstore\n      swap1\n      dup2\n      0x00\n      dup3\n      add\n      dup1\n      sload\n      tag_149\n      swap1\n      tag_84\n      jump\t// in\n    tag_149:\n      dup1\n      0x1f\n      add\n      0x20\n      dup1\n      swap2\n      div\n      mul\n      0x20\n      add\n      mload(0x40)\n      swap1\n      dup2\n      add\n      0x40\n      mstore\n      dup1\n      swap3\n      swap2\n      swap1\n      dup2\n      dup2\n      mstore\n      0x20\n      add\n      dup3\n      dup1\n      sload\n      tag_150\n      swap1\n      tag_84\n      jump\t// in\n    tag_150:\n      dup1\n      iszero\n      tag_151\n      jumpi\n      dup1\n      0x1f\n      lt\n      tag_152\n      jumpi\n      0x0100\n      dup1\n      dup4\n      sload\n      div\n      mul\n      dup4\n      mstore\n      swap2\n      0x20\n      add\n      swap2\n      jump(tag_151)\n    tag_152:\n      dup3\n      add\n      swap2\n      swap1\n      0x00\n      mstore\n      keccak256(0x00, 0x20)\n      swap1\n    tag_153:\n      dup2\n      sload\n      dup2\n      mstore\n      swap1\n      0x01\n      add\n      swap1\n      0x20\n      add\n      dup1\n      dup4\n      gt\n      tag_153\n      jumpi\n      dup3\n      swap1\n      sub\n      0x1f\n      and\n      dup3\n      add\n      swap2\n    tag_151:\n      pop\n      pop\n      pop\n      pop\n      pop\n      dup2\n      mstore\n      0x20\n      add\n      0x01\n      dup3\n      add\n      sload\n      dup2\n      mstore\n      0x20\n      add\n      0x02\n      dup3\n      add\n      dup1\n      sload\n      tag_154\n      swap1\n      tag_84\n      jump\t// in\n    tag_154:\n      dup1\n      0x1f\n      add\n      0x20\n      dup1\n      swap2\n      div\n      mul\n      0x20\n      add\n      mload(0x40)\n      swap1\n      dup2\n      add\n      0x40\n      mstore\n      dup1\n      swap3\n      swap2\n      swap1\n      dup2\n      dup2\n      mstore\n      0x20\n      add\n      dup3\n      dup1\n      sload\n      tag_155\n      swap1\n      tag_84\n      jump\t// in\n    tag_155:\n      dup1\n      iszero\n      tag_156\n      jumpi\n      dup1\n      0x1f\n      lt\n      tag_157\n      jumpi\n      0x0100\n      dup1\n      dup4\n      sload\n      div\n      mul\n      dup4\n      mstore\n      swap2\n      0x20\n      add\n      swap2\n      jump(tag_156)\n    tag_157:\n      dup3\n      add\n      swap2\n      swap1\n      0x00\n      mstore\n      keccak256(0x00, 0x20)\n      swap1\n    tag_158:\n      dup2\n      sload\n      dup2\n      mstore\n      swap1\n      0x01\n      add\n      swap1\n      0x20\n      add\n      dup1\n      dup4\n      gt\n      tag_158\n      jumpi\n      dup3\n      swap1\n      sub\n      0x1f\n      and\n      dup3\n      add\n      swap2\n    tag_156:\n      pop\n      pop\n      pop\n      pop\n      pop\n      dup2\n      mstore\n      0x20\n      add\n      0x03\n      dup3\n      add\n      sload\n      dup2\n      mstore\n      pop\n      pop\n      swap1\n      pop\n        /* \"Job-portal dapp/JobPortal.sol\":1908:2040  function getJobDetails(... */\n      swap2\n      swap1\n      pop\n      jump\t// out\n        /* \"Job-portal dapp/JobPortal.sol\":81:101  address public admin */\n    tag_63:\n      0x00\n      0x00\n      swap1\n      sload\n      swap1\n      0x0100\n      exp\n      swap1\n      div\n      0xffffffffffffffffffffffffffffffffffffffff\n      and\n      dup2\n      jump\t// out\n        /* \"Job-portal dapp/JobPortal.sol\":488:839  function addApplicant (... */\n    tag_68:\n        /* \"Job-portal dapp/JobPortal.sol\":413:418  admin */\n      0x00\n      0x00\n      swap1\n      sload\n      swap1\n      0x0100\n      exp\n      swap1\n      div\n      0xffffffffffffffffffffffffffffffffffffffff\n      and\n        /* \"Job-portal dapp/JobPortal.sol\":399:418  msg.sender == admin */\n      0xffffffffffffffffffffffffffffffffffffffff\n      and\n        /* \"Job-portal dapp/JobPortal.sol\":399:409  msg.sender */\n      caller\n        /* \"Job-portal dapp/JobPortal.sol\":399:418  msg.sender == admin */\n      0xffffffffffffffffffffffffffffffffffffffff\n      and\n      eq\n        /* \"Job-portal dapp/JobPortal.sol\":391:460  require(msg.sender == admin, \"only admin can perform this operation\") */\n      tag_160\n      jumpi\n      mload(0x40)\n      0x08c379a000000000000000000000000000000000000000000000000000000000\n      dup2\n      mstore\n      0x04\n      add\n      tag_161\n      swap1\n      tag_72\n      jump\t// in\n    tag_161:\n      mload(0x40)\n      dup1\n      swap2\n      sub\n      swap1\n      revert\n    tag_160:\n        /* \"Job-portal dapp/JobPortal.sol\":652:667  lastApplicantId */\n      0x02\n      0x00\n        /* \"Job-portal dapp/JobPortal.sol\":652:669  lastApplicantId++ */\n      dup2\n      sload\n      dup1\n      swap3\n      swap2\n      swap1\n      tag_163\n      swap1\n      tag_104\n      jump\t// in\n    tag_163:\n      swap2\n      swap1\n      pop\n      sstore\n      pop\n        /* \"Job-portal dapp/JobPortal.sol\":709:832  Applicant({... */\n      mload(0x40)\n      dup1\n      0x80\n      add\n      0x40\n      mstore\n      dup1\n        /* \"Job-portal dapp/JobPortal.sol\":739:744  _name */\n      dup5\n        /* \"Job-portal dapp/JobPortal.sol\":709:832  Applicant({... */\n      dup2\n      mstore\n      0x20\n      add\n        /* \"Job-portal dapp/JobPortal.sol\":763:767  _age */\n      dup4\n        /* \"Job-portal dapp/JobPortal.sol\":709:832  Applicant({... */\n      dup2\n      mstore\n      0x20\n      add\n        /* \"Job-portal dapp/JobPortal.sol\":789:797  _address */\n      dup3\n        /* \"Job-portal dapp/JobPortal.sol\":709:832  Applicant({... */\n      dup2\n      mstore\n      0x20\n      add\n        /* \"Job-portal dapp/JobPortal.sol\":820:821  0 */\n      0x00\n        /* \"Job-portal dapp/JobPortal.sol\":709:832  Applicant({... */\n      dup2\n      mstore\n      pop\n        /* \"Job-portal dapp/JobPortal.sol\":679:689  applicants */\n      0x01\n        /* \"Job-portal dapp/JobPortal.sol\":679:706  applicants[lastApplicantId] */\n      0x00\n        /* \"Job-portal dapp/JobPortal.sol\":690:705  lastApplicantId */\n      sload(0x02)\n        /* \"Job-portal dapp/JobPortal.sol\":679:706  applicants[lastApplicantId] */\n      dup2\n      mstore\n      0x20\n      add\n      swap1\n      dup2\n      mstore\n      0x20\n      add\n      0x00\n      keccak256\n        /* \"Job-portal dapp/JobPortal.sol\":679:832  applicants[lastApplicantId] = Applicant({... */\n      0x00\n      dup3\n      add\n      mload\n      dup2\n      0x00\n      add\n      swap1\n      dup2\n      tag_164\n      swap2\n      swap1\n      tag_77\n      jump\t// in\n    tag_164:\n      pop\n      0x20\n      dup3\n      add\n      mload\n      dup2\n      0x01\n      add\n      sstore\n      0x40\n      dup3\n      add\n      mload\n      dup2\n      0x02\n      add\n      swap1\n      dup2\n      tag_165\n      swap2\n      swap1\n      tag_77\n      jump\t// in\n    tag_165:\n      pop\n      0x60\n      dup3\n      add\n      mload\n      dup2\n      0x03\n      add\n      sstore\n      swap1\n      pop\n      pop\n        /* \"Job-portal dapp/JobPortal.sol\":488:839  function addApplicant (... */\n      pop\n      pop\n      pop\n      jump\t// out\n    tag_106:\n      mload(0x40)\n      dup1\n      0x80\n      add\n      0x40\n      mstore\n      dup1\n      0x60\n      dup2\n      mstore\n      0x20\n      add\n      0x00\n      dup2\n      mstore\n      0x20\n      add\n      0x60\n      dup2\n      mstore\n      0x20\n      add\n      0x00\n      dup2\n      mstore\n      pop\n      swap1\n      jump\t// out\n    tag_146:\n      mload(0x40)\n      dup1\n      0x80\n      add\n      0x40\n      mstore\n      dup1\n      0x60\n      dup2\n      mstore\n      0x20\n      add\n      0x00\n      dup2\n      mstore\n      0x20\n      add\n      0x60\n      dup2\n      mstore\n      0x20\n      add\n      0x00\n      dup2\n      mstore\n      pop\n      swap1\n      jump\t// out\n        /* \"#utility.yul\":7:82   */\n    tag_166:\n        /* \"#utility.yul\":40:46   */\n      0x00\n        /* \"#utility.yul\":73:75   */\n      0x40\n        /* \"#utility.yul\":67:76   */\n      mload\n        /* \"#utility.yul\":57:76   */\n      swap1\n      pop\n        /* \"#utility.yul\":7:82   */\n      swap1\n      jump\t// out\n        /* \"#utility.yul\":88:205   */\n    tag_167:\n        /* \"#utility.yul\":197:198   */\n      0x00\n        /* \"#utility.yul\":194:195   */\n      0x00\n        /* \"#utility.yul\":187:199   */\n      revert\n        /* \"#utility.yul\":211:328   */\n    tag_168:\n        /* \"#utility.yul\":320:321   */\n      0x00\n        /* \"#utility.yul\":317:318   */\n      0x00\n        /* \"#utility.yul\":310:322   */\n      revert\n        /* \"#utility.yul\":334:451   */\n    tag_169:\n        /* \"#utility.yul\":443:444   */\n      0x00\n        /* \"#utility.yul\":440:441   */\n      0x00\n        /* \"#utility.yul\":433:445   */\n      revert\n        /* \"#utility.yul\":457:574   */\n    tag_170:\n        /* \"#utility.yul\":566:567   */\n      0x00\n        /* \"#utility.yul\":563:564   */\n      0x00\n        /* \"#utility.yul\":556:568   */\n      revert\n        /* \"#utility.yul\":580:682   */\n    tag_171:\n        /* \"#utility.yul\":621:627   */\n      0x00\n        /* \"#utility.yul\":672:674   */\n      0x1f\n        /* \"#utility.yul\":668:675   */\n      not\n        /* \"#utility.yul\":663:665   */\n      0x1f\n        /* \"#utility.yul\":656:661   */\n      dup4\n        /* \"#utility.yul\":652:666   */\n      add\n        /* \"#utility.yul\":648:676   */\n      and\n        /* \"#utility.yul\":638:676   */\n      swap1\n      pop\n        /* \"#utility.yul\":580:682   */\n      swap2\n      swap1\n      pop\n      jump\t// out\n        /* \"#utility.yul\":688:868   */\n    tag_172:\n        /* \"#utility.yul\":736:813   */\n      0x4e487b7100000000000000000000000000000000000000000000000000000000\n        /* \"#utility.yul\":733:734   */\n      0x00\n        /* \"#utility.yul\":726:814   */\n      mstore\n        /* \"#utility.yul\":833:837   */\n      0x41\n        /* \"#utility.yul\":830:831   */\n      0x04\n        /* \"#utility.yul\":823:838   */\n      mstore\n        /* \"#utility.yul\":857:861   */\n      0x24\n        /* \"#utility.yul\":854:855   */\n      0x00\n        /* \"#utility.yul\":847:862   */\n      revert\n        /* \"#utility.yul\":874:1155   */\n    tag_173:\n        /* \"#utility.yul\":957:984   */\n      tag_232\n        /* \"#utility.yul\":979:983   */\n      dup3\n        /* \"#utility.yul\":957:984   */\n      tag_171\n      jump\t// in\n    tag_232:\n        /* \"#utility.yul\":949:955   */\n      dup2\n        /* \"#utility.yul\":945:985   */\n      add\n        /* \"#utility.yul\":1087:1093   */\n      dup2\n        /* \"#utility.yul\":1075:1085   */\n      dup2\n        /* \"#utility.yul\":1072:1094   */\n      lt\n        /* \"#utility.yul\":1051:1069   */\n      0xffffffffffffffff\n        /* \"#utility.yul\":1039:1049   */\n      dup3\n        /* \"#utility.yul\":1036:1070   */\n      gt\n        /* \"#utility.yul\":1033:1095   */\n      or\n        /* \"#utility.yul\":1030:1118   */\n      iszero\n      tag_233\n      jumpi\n        /* \"#utility.yul\":1098:1116   */\n      tag_234\n      tag_172\n      jump\t// in\n    tag_234:\n        /* \"#utility.yul\":1030:1118   */\n    tag_233:\n        /* \"#utility.yul\":1138:1148   */\n      dup1\n        /* \"#utility.yul\":1134:1136   */\n      0x40\n        /* \"#utility.yul\":1127:1149   */\n      mstore\n        /* \"#utility.yul\":917:1155   */\n      pop\n        /* \"#utility.yul\":874:1155   */\n      pop\n      pop\n      jump\t// out\n        /* \"#utility.yul\":1161:1290   */\n    tag_174:\n        /* \"#utility.yul\":1195:1201   */\n      0x00\n        /* \"#utility.yul\":1222:1242   */\n      tag_236\n      tag_166\n      jump\t// in\n    tag_236:\n        /* \"#utility.yul\":1212:1242   */\n      swap1\n      pop\n        /* \"#utility.yul\":1251:1284   */\n      tag_237\n        /* \"#utility.yul\":1279:1283   */\n      dup3\n        /* \"#utility.yul\":1271:1277   */\n      dup3\n        /* \"#utility.yul\":1251:1284   */\n      tag_173\n      jump\t// in\n    tag_237:\n        /* \"#utility.yul\":1161:1290   */\n      swap2\n      swap1\n      pop\n      jump\t// out\n        /* \"#utility.yul\":1296:1604   */\n    tag_175:\n        /* \"#utility.yul\":1358:1362   */\n      0x00\n        /* \"#utility.yul\":1448:1466   */\n      0xffffffffffffffff\n        /* \"#utility.yul\":1440:1446   */\n      dup3\n        /* \"#utility.yul\":1437:1467   */\n      gt\n        /* \"#utility.yul\":1434:1490   */\n      iszero\n      tag_239\n      jumpi\n        /* \"#utility.yul\":1470:1488   */\n      tag_240\n      tag_172\n      jump\t// in\n    tag_240:\n        /* \"#utility.yul\":1434:1490   */\n    tag_239:\n        /* \"#utility.yul\":1508:1537   */\n      tag_241\n        /* \"#utility.yul\":1530:1536   */\n      dup3\n        /* \"#utility.yul\":1508:1537   */\n      tag_171\n      jump\t// in\n    tag_241:\n        /* \"#utility.yul\":1500:1537   */\n      swap1\n      pop\n        /* \"#utility.yul\":1592:1596   */\n      0x20\n        /* \"#utility.yul\":1586:1590   */\n      dup2\n        /* \"#utility.yul\":1582:1597   */\n      add\n        /* \"#utility.yul\":1574:1597   */\n      swap1\n      pop\n        /* \"#utility.yul\":1296:1604   */\n      swap2\n      swap1\n      pop\n      jump\t// out\n        /* \"#utility.yul\":1610:1758   */\n    tag_176:\n        /* \"#utility.yul\":1708:1714   */\n      dup3\n        /* \"#utility.yul\":1703:1706   */\n      dup2\n        /* \"#utility.yul\":1698:1701   */\n      dup4\n        /* \"#utility.yul\":1685:1715   */\n      calldatacopy\n        /* \"#utility.yul\":1749:1750   */\n      0x00\n        /* \"#utility.yul\":1740:1746   */\n      dup4\n        /* \"#utility.yul\":1735:1738   */\n      dup4\n        /* \"#utility.yul\":1731:1747   */\n      add\n        /* \"#utility.yul\":1724:1751   */\n      mstore\n        /* \"#utility.yul\":1610:1758   */\n      pop\n      pop\n      pop\n      jump\t// out\n        /* \"#utility.yul\":1764:2189   */\n    tag_177:\n        /* \"#utility.yul\":1842:1847   */\n      0x00\n        /* \"#utility.yul\":1867:1933   */\n      tag_244\n        /* \"#utility.yul\":1883:1932   */\n      tag_245\n        /* \"#utility.yul\":1925:1931   */\n      dup5\n        /* \"#utility.yul\":1883:1932   */\n      tag_175\n      jump\t// in\n    tag_245:\n        /* \"#utility.yul\":1867:1933   */\n      tag_174\n      jump\t// in\n    tag_244:\n        /* \"#utility.yul\":1858:1933   */\n      swap1\n      pop\n        /* \"#utility.yul\":1956:1962   */\n      dup3\n        /* \"#utility.yul\":1949:1954   */\n      dup2\n        /* \"#utility.yul\":1942:1963   */\n      mstore\n        /* \"#utility.yul\":1994:1998   */\n      0x20\n        /* \"#utility.yul\":1987:1992   */\n      dup2\n        /* \"#utility.yul\":1983:1999   */\n      add\n        /* \"#utility.yul\":2032:2035   */\n      dup5\n        /* \"#utility.yul\":2023:2029   */\n      dup5\n        /* \"#utility.yul\":2018:2021   */\n      dup5\n        /* \"#utility.yul\":2014:2030   */\n      add\n        /* \"#utility.yul\":2011:2036   */\n      gt\n        /* \"#utility.yul\":2008:2120   */\n      iszero\n      tag_246\n      jumpi\n        /* \"#utility.yul\":2039:2118   */\n      tag_247\n      tag_170\n      jump\t// in\n    tag_247:\n        /* \"#utility.yul\":2008:2120   */\n    tag_246:\n        /* \"#utility.yul\":2129:2183   */\n      tag_248\n        /* \"#utility.yul\":2176:2182   */\n      dup5\n        /* \"#utility.yul\":2171:2174   */\n      dup3\n        /* \"#utility.yul\":2166:2169   */\n      dup6\n        /* \"#utility.yul\":2129:2183   */\n      tag_176\n      jump\t// in\n    tag_248:\n        /* \"#utility.yul\":1848:2189   */\n      pop\n        /* \"#utility.yul\":1764:2189   */\n      swap4\n      swap3\n      pop\n      pop\n      pop\n      jump\t// out\n        /* \"#utility.yul\":2209:2549   */\n    tag_178:\n        /* \"#utility.yul\":2265:2270   */\n      0x00\n        /* \"#utility.yul\":2314:2317   */\n      dup3\n        /* \"#utility.yul\":2307:2311   */\n      0x1f\n        /* \"#utility.yul\":2299:2305   */\n      dup4\n        /* \"#utility.yul\":2295:2312   */\n      add\n        /* \"#utility.yul\":2291:2318   */\n      slt\n        /* \"#utility.yul\":2281:2403   */\n      tag_250\n      jumpi\n        /* \"#utility.yul\":2322:2401   */\n      tag_251\n      tag_169\n      jump\t// in\n    tag_251:\n        /* \"#utility.yul\":2281:2403   */\n    tag_250:\n        /* \"#utility.yul\":2439:2445   */\n      dup2\n        /* \"#utility.yul\":2426:2446   */\n      calldataload\n        /* \"#utility.yul\":2464:2543   */\n      tag_252\n        /* \"#utility.yul\":2539:2542   */\n      dup5\n        /* \"#utility.yul\":2531:2537   */\n      dup3\n        /* \"#utility.yul\":2524:2528   */\n      0x20\n        /* \"#utility.yul\":2516:2522   */\n      dup7\n        /* \"#utility.yul\":2512:2529   */\n      add\n        /* \"#utility.yul\":2464:2543   */\n      tag_177\n      jump\t// in\n    tag_252:\n        /* \"#utility.yul\":2455:2543   */\n      swap2\n      pop\n        /* \"#utility.yul\":2271:2549   */\n      pop\n        /* \"#utility.yul\":2209:2549   */\n      swap3\n      swap2\n      pop\n      pop\n      jump\t// out\n        /* \"#utility.yul\":2555:2632   */\n    tag_179:\n        /* \"#utility.yul\":2592:2599   */\n      0x00\n        /* \"#utility.yul\":2621:2626   */\n      dup2\n        /* \"#utility.yul\":2610:2626   */\n      swap1\n      pop\n        /* \"#utility.yul\":2555:2632   */\n      swap2\n      swap1\n      pop\n      jump\t// out\n        /* \"#utility.yul\":2638:2760   */\n    tag_180:\n        /* \"#utility.yul\":2711:2735   */\n      tag_255\n        /* \"#utility.yul\":2729:2734   */\n      dup2\n        /* \"#utility.yul\":2711:2735   */\n      tag_179\n      jump\t// in\n    tag_255:\n        /* \"#utility.yul\":2704:2709   */\n      dup2\n        /* \"#utility.yul\":2701:2736   */\n      eq\n        /* \"#utility.yul\":2691:2754   */\n      tag_256\n      jumpi\n        /* \"#utility.yul\":2750:2751   */\n      0x00\n        /* \"#utility.yul\":2747:2748   */\n      0x00\n        /* \"#utility.yul\":2740:2752   */\n      revert\n        /* \"#utility.yul\":2691:2754   */\n    tag_256:\n        /* \"#utility.yul\":2638:2760   */\n      pop\n      jump\t// out\n        /* \"#utility.yul\":2766:2905   */\n    tag_181:\n        /* \"#utility.yul\":2812:2817   */\n      0x00\n        /* \"#utility.yul\":2850:2856   */\n      dup2\n        /* \"#utility.yul\":2837:2857   */\n      calldataload\n        /* \"#utility.yul\":2828:2857   */\n      swap1\n      pop\n        /* \"#utility.yul\":2866:2899   */\n      tag_258\n        /* \"#utility.yul\":2893:2898   */\n      dup2\n        /* \"#utility.yul\":2866:2899   */\n      tag_180\n      jump\t// in\n    tag_258:\n        /* \"#utility.yul\":2766:2905   */\n      swap3\n      swap2\n      pop\n      pop\n      jump\t// out\n        /* \"#utility.yul\":2911:3890   */\n    tag_18:\n        /* \"#utility.yul\":3008:3014   */\n      0x00\n        /* \"#utility.yul\":3016:3022   */\n      0x00\n        /* \"#utility.yul\":3024:3030   */\n      0x00\n        /* \"#utility.yul\":3073:3075   */\n      0x60\n        /* \"#utility.yul\":3061:3070   */\n      dup5\n        /* \"#utility.yul\":3052:3059   */\n      dup7\n        /* \"#utility.yul\":3048:3071   */\n      sub\n        /* \"#utility.yul\":3044:3076   */\n      slt\n        /* \"#utility.yul\":3041:3160   */\n      iszero\n      tag_260\n      jumpi\n        /* \"#utility.yul\":3079:3158   */\n      tag_261\n      tag_167\n      jump\t// in\n    tag_261:\n        /* \"#utility.yul\":3041:3160   */\n    tag_260:\n        /* \"#utility.yul\":3227:3228   */\n      0x00\n        /* \"#utility.yul\":3216:3225   */\n      dup5\n        /* \"#utility.yul\":3212:3229   */\n      add\n        /* \"#utility.yul\":3199:3230   */\n      calldataload\n        /* \"#utility.yul\":3257:3275   */\n      0xffffffffffffffff\n        /* \"#utility.yul\":3249:3255   */\n      dup2\n        /* \"#utility.yul\":3246:3276   */\n      gt\n        /* \"#utility.yul\":3243:3360   */\n      iszero\n      tag_262\n      jumpi\n        /* \"#utility.yul\":3279:3358   */\n      tag_263\n      tag_168\n      jump\t// in\n    tag_263:\n        /* \"#utility.yul\":3243:3360   */\n    tag_262:\n        /* \"#utility.yul\":3384:3447   */\n      tag_264\n        /* \"#utility.yul\":3439:3446   */\n      dup7\n        /* \"#utility.yul\":3430:3436   */\n      dup3\n        /* \"#utility.yul\":3419:3428   */\n      dup8\n        /* \"#utility.yul\":3415:3437   */\n      add\n        /* \"#utility.yul\":3384:3447   */\n      tag_178\n      jump\t// in\n    tag_264:\n        /* \"#utility.yul\":3374:3447   */\n      swap4\n      pop\n        /* \"#utility.yul\":3170:3457   */\n      pop\n        /* \"#utility.yul\":3496:3498   */\n      0x20\n        /* \"#utility.yul\":3522:3575   */\n      tag_265\n        /* \"#utility.yul\":3567:3574   */\n      dup7\n        /* \"#utility.yul\":3558:3564   */\n      dup3\n        /* \"#utility.yul\":3547:3556   */\n      dup8\n        /* \"#utility.yul\":3543:3565   */\n      add\n        /* \"#utility.yul\":3522:3575   */\n      tag_181\n      jump\t// in\n    tag_265:\n        /* \"#utility.yul\":3512:3575   */\n      swap3\n      pop\n        /* \"#utility.yul\":3467:3585   */\n      pop\n        /* \"#utility.yul\":3652:3654   */\n      0x40\n        /* \"#utility.yul\":3641:3650   */\n      dup5\n        /* \"#utility.yul\":3637:3655   */\n      add\n        /* \"#utility.yul\":3624:3656   */\n      calldataload\n        /* \"#utility.yul\":3683:3701   */\n      0xffffffffffffffff\n        /* \"#utility.yul\":3675:3681   */\n      dup2\n        /* \"#utility.yul\":3672:3702   */\n      gt\n        /* \"#utility.yul\":3669:3786   */\n      iszero\n      tag_266\n      jumpi\n        /* \"#utility.yul\":3705:3784   */\n      tag_267\n      tag_168\n      jump\t// in\n    tag_267:\n        /* \"#utility.yul\":3669:3786   */\n    tag_266:\n        /* \"#utility.yul\":3810:3873   */\n      tag_268\n        /* \"#utility.yul\":3865:3872   */\n      dup7\n        /* \"#utility.yul\":3856:3862   */\n      dup3\n        /* \"#utility.yul\":3845:3854   */\n      dup8\n        /* \"#utility.yul\":3841:3863   */\n      add\n        /* \"#utility.yul\":3810:3873   */\n      tag_178\n      jump\t// in\n    tag_268:\n        /* \"#utility.yul\":3800:3873   */\n      swap2\n      pop\n        /* \"#utility.yul\":3595:3883   */\n      pop\n        /* \"#utility.yul\":2911:3890   */\n      swap3\n      pop\n      swap3\n      pop\n      swap3\n      jump\t// out\n        /* \"#utility.yul\":3896:4225   */\n    tag_22:\n        /* \"#utility.yul\":3955:3961   */\n      0x00\n        /* \"#utility.yul\":4004:4006   */\n      0x20\n        /* \"#utility.yul\":3992:4001   */\n      dup3\n        /* \"#utility.yul\":3983:3990   */\n      dup5\n        /* \"#utility.yul\":3979:4002   */\n      sub\n        /* \"#utility.yul\":3975:4007   */\n      slt\n        /* \"#utility.yul\":3972:4091   */\n      iszero\n      tag_270\n      jumpi\n        /* \"#utility.yul\":4010:4089   */\n      tag_271\n      tag_167\n      jump\t// in\n    tag_271:\n        /* \"#utility.yul\":3972:4091   */\n    tag_270:\n        /* \"#utility.yul\":4130:4131   */\n      0x00\n        /* \"#utility.yul\":4155:4208   */\n      tag_272\n        /* \"#utility.yul\":4200:4207   */\n      dup5\n        /* \"#utility.yul\":4191:4197   */\n      dup3\n        /* \"#utility.yul\":4180:4189   */\n      dup6\n        /* \"#utility.yul\":4176:4198   */\n      add\n        /* \"#utility.yul\":4155:4208   */\n      tag_181\n      jump\t// in\n    tag_272:\n        /* \"#utility.yul\":4145:4208   */\n      swap2\n      pop\n        /* \"#utility.yul\":4101:4218   */\n      pop\n        /* \"#utility.yul\":3896:4225   */\n      swap3\n      swap2\n      pop\n      pop\n      jump\t// out\n        /* \"#utility.yul\":4231:4349   */\n    tag_182:\n        /* \"#utility.yul\":4318:4342   */\n      tag_274\n        /* \"#utility.yul\":4336:4341   */\n      dup2\n        /* \"#utility.yul\":4318:4342   */\n      tag_179\n      jump\t// in\n    tag_274:\n        /* \"#utility.yul\":4313:4316   */\n      dup3\n        /* \"#utility.yul\":4306:4343   */\n      mstore\n        /* \"#utility.yul\":4231:4349   */\n      pop\n      pop\n      jump\t// out\n        /* \"#utility.yul\":4355:4577   */\n    tag_25:\n        /* \"#utility.yul\":4448:4452   */\n      0x00\n        /* \"#utility.yul\":4486:4488   */\n      0x20\n        /* \"#utility.yul\":4475:4484   */\n      dup3\n        /* \"#utility.yul\":4471:4489   */\n      add\n        /* \"#utility.yul\":4463:4489   */\n      swap1\n      pop\n        /* \"#utility.yul\":4499:4570   */\n      tag_276\n        /* \"#utility.yul\":4567:4568   */\n      0x00\n        /* \"#utility.yul\":4556:4565   */\n      dup4\n        /* \"#utility.yul\":4552:4569   */\n      add\n        /* \"#utility.yul\":4543:4549   */\n      dup5\n        /* \"#utility.yul\":4499:4570   */\n      tag_182\n      jump\t// in\n    tag_276:\n        /* \"#utility.yul\":4355:4577   */\n      swap3\n      swap2\n      pop\n      pop\n      jump\t// out\n        /* \"#utility.yul\":4583:4682   */\n    tag_183:\n        /* \"#utility.yul\":4635:4641   */\n      0x00\n        /* \"#utility.yul\":4669:4674   */\n      dup2\n        /* \"#utility.yul\":4663:4675   */\n      mload\n        /* \"#utility.yul\":4653:4675   */\n      swap1\n      pop\n        /* \"#utility.yul\":4583:4682   */\n      swap2\n      swap1\n      pop\n      jump\t// out\n        /* \"#utility.yul\":4688:4857   */\n    tag_184:\n        /* \"#utility.yul\":4772:4783   */\n      0x00\n        /* \"#utility.yul\":4806:4812   */\n      dup3\n        /* \"#utility.yul\":4801:4804   */\n      dup3\n        /* \"#utility.yul\":4794:4813   */\n      mstore\n        /* \"#utility.yul\":4846:4850   */\n      0x20\n        /* \"#utility.yul\":4841:4844   */\n      dup3\n        /* \"#utility.yul\":4837:4851   */\n      add\n        /* \"#utility.yul\":4822:4851   */\n      swap1\n      pop\n        /* \"#utility.yul\":4688:4857   */\n      swap3\n      swap2\n      pop\n      pop\n      jump\t// out\n        /* \"#utility.yul\":4863:5002   */\n    tag_185:\n        /* \"#utility.yul\":4952:4958   */\n      dup3\n        /* \"#utility.yul\":4947:4950   */\n      dup2\n        /* \"#utility.yul\":4942:4945   */\n      dup4\n        /* \"#utility.yul\":4936:4959   */\n      mcopy\n        /* \"#utility.yul\":4993:4994   */\n      0x00\n        /* \"#utility.yul\":4984:4990   */\n      dup4\n        /* \"#utility.yul\":4979:4982   */\n      dup4\n        /* \"#utility.yul\":4975:4991   */\n      add\n        /* \"#utility.yul\":4968:4995   */\n      mstore\n        /* \"#utility.yul\":4863:5002   */\n      pop\n      pop\n      pop\n      jump\t// out\n        /* \"#utility.yul\":5008:5385   */\n    tag_186:\n        /* \"#utility.yul\":5096:5099   */\n      0x00\n        /* \"#utility.yul\":5124:5163   */\n      tag_281\n        /* \"#utility.yul\":5157:5162   */\n      dup3\n        /* \"#utility.yul\":5124:5163   */\n      tag_183\n      jump\t// in\n    tag_281:\n        /* \"#utility.yul\":5179:5250   */\n      tag_282\n        /* \"#utility.yul\":5243:5249   */\n      dup2\n        /* \"#utility.yul\":5238:5241   */\n      dup6\n        /* \"#utility.yul\":5179:5250   */\n      tag_184\n      jump\t// in\n    tag_282:\n        /* \"#utility.yul\":5172:5250   */\n      swap4\n      pop\n        /* \"#utility.yul\":5259:5324   */\n      tag_283\n        /* \"#utility.yul\":5317:5323   */\n      dup2\n        /* \"#utility.yul\":5312:5315   */\n      dup6\n        /* \"#utility.yul\":5305:5309   */\n      0x20\n        /* \"#utility.yul\":5298:5303   */\n      dup7\n        /* \"#utility.yul\":5294:5310   */\n      add\n        /* \"#utility.yul\":5259:5324   */\n      tag_185\n      jump\t// in\n    tag_283:\n        /* \"#utility.yul\":5349:5378   */\n      tag_284\n        /* \"#utility.yul\":5371:5377   */\n      dup2\n        /* \"#utility.yul\":5349:5378   */\n      tag_171\n      jump\t// in\n    tag_284:\n        /* \"#utility.yul\":5344:5347   */\n      dup5\n        /* \"#utility.yul\":5340:5379   */\n      add\n        /* \"#utility.yul\":5333:5379   */\n      swap2\n      pop\n        /* \"#utility.yul\":5100:5385   */\n      pop\n        /* \"#utility.yul\":5008:5385   */\n      swap3\n      swap2\n      pop\n      pop\n      jump\t// out\n        /* \"#utility.yul\":5391:6126   */\n    tag_33:\n        /* \"#utility.yul\":5608:5612   */\n      0x00\n        /* \"#utility.yul\":5646:5649   */\n      0x80\n        /* \"#utility.yul\":5635:5644   */\n      dup3\n        /* \"#utility.yul\":5631:5650   */\n      add\n        /* \"#utility.yul\":5623:5650   */\n      swap1\n      pop\n        /* \"#utility.yul\":5696:5705   */\n      dup2\n        /* \"#utility.yul\":5690:5694   */\n      dup2\n        /* \"#utility.yul\":5686:5706   */\n      sub\n        /* \"#utility.yul\":5682:5683   */\n      0x00\n        /* \"#utility.yul\":5671:5680   */\n      dup4\n        /* \"#utility.yul\":5667:5684   */\n      add\n        /* \"#utility.yul\":5660:5707   */\n      mstore\n        /* \"#utility.yul\":5724:5802   */\n      tag_286\n        /* \"#utility.yul\":5797:5801   */\n      dup2\n        /* \"#utility.yul\":5788:5794   */\n      dup8\n        /* \"#utility.yul\":5724:5802   */\n      tag_186\n      jump\t// in\n    tag_286:\n        /* \"#utility.yul\":5716:5802   */\n      swap1\n      pop\n        /* \"#utility.yul\":5812:5884   */\n      tag_287\n        /* \"#utility.yul\":5880:5882   */\n      0x20\n        /* \"#utility.yul\":5869:5878   */\n      dup4\n        /* \"#utility.yul\":5865:5883   */\n      add\n        /* \"#utility.yul\":5856:5862   */\n      dup7\n        /* \"#utility.yul\":5812:5884   */\n      tag_182\n      jump\t// in\n    tag_287:\n        /* \"#utility.yul\":5931:5940   */\n      dup2\n        /* \"#utility.yul\":5925:5929   */\n      dup2\n        /* \"#utility.yul\":5921:5941   */\n      sub\n        /* \"#utility.yul\":5916:5918   */\n      0x40\n        /* \"#utility.yul\":5905:5914   */\n      dup4\n        /* \"#utility.yul\":5901:5919   */\n      add\n        /* \"#utility.yul\":5894:5942   */\n      mstore\n        /* \"#utility.yul\":5959:6037   */\n      tag_288\n        /* \"#utility.yul\":6032:6036   */\n      dup2\n        /* \"#utility.yul\":6023:6029   */\n      dup6\n        /* \"#utility.yul\":5959:6037   */\n      tag_186\n      jump\t// in\n    tag_288:\n        /* \"#utility.yul\":5951:6037   */\n      swap1\n      pop\n        /* \"#utility.yul\":6047:6119   */\n      tag_289\n        /* \"#utility.yul\":6115:6117   */\n      0x60\n        /* \"#utility.yul\":6104:6113   */\n      dup4\n        /* \"#utility.yul\":6100:6118   */\n      add\n        /* \"#utility.yul\":6091:6097   */\n      dup5\n        /* \"#utility.yul\":6047:6119   */\n      tag_182\n      jump\t// in\n    tag_289:\n        /* \"#utility.yul\":5391:6126   */\n      swap6\n      swap5\n      pop\n      pop\n      pop\n      pop\n      pop\n      jump\t// out\n        /* \"#utility.yul\":6132:6786   */\n    tag_36:\n        /* \"#utility.yul\":6210:6216   */\n      0x00\n        /* \"#utility.yul\":6218:6224   */\n      0x00\n        /* \"#utility.yul\":6267:6269   */\n      0x40\n        /* \"#utility.yul\":6255:6264   */\n      dup4\n        /* \"#utility.yul\":6246:6253   */\n      dup6\n        /* \"#utility.yul\":6242:6265   */\n      sub\n        /* \"#utility.yul\":6238:6270   */\n      slt\n        /* \"#utility.yul\":6235:6354   */\n      iszero\n      tag_291\n      jumpi\n        /* \"#utility.yul\":6273:6352   */\n      tag_292\n      tag_167\n      jump\t// in\n    tag_292:\n        /* \"#utility.yul\":6235:6354   */\n    tag_291:\n        /* \"#utility.yul\":6393:6394   */\n      0x00\n        /* \"#utility.yul\":6418:6471   */\n      tag_293\n        /* \"#utility.yul\":6463:6470   */\n      dup6\n        /* \"#utility.yul\":6454:6460   */\n      dup3\n        /* \"#utility.yul\":6443:6452   */\n      dup7\n        /* \"#utility.yul\":6439:6461   */\n      add\n        /* \"#utility.yul\":6418:6471   */\n      tag_181\n      jump\t// in\n    tag_293:\n        /* \"#utility.yul\":6408:6471   */\n      swap3\n      pop\n        /* \"#utility.yul\":6364:6481   */\n      pop\n        /* \"#utility.yul\":6548:6550   */\n      0x20\n        /* \"#utility.yul\":6537:6546   */\n      dup4\n        /* \"#utility.yul\":6533:6551   */\n      add\n        /* \"#utility.yul\":6520:6552   */\n      calldataload\n        /* \"#utility.yul\":6579:6597   */\n      0xffffffffffffffff\n        /* \"#utility.yul\":6571:6577   */\n      dup2\n        /* \"#utility.yul\":6568:6598   */\n      gt\n        /* \"#utility.yul\":6565:6682   */\n      iszero\n      tag_294\n      jumpi\n        /* \"#utility.yul\":6601:6680   */\n      tag_295\n      tag_168\n      jump\t// in\n    tag_295:\n        /* \"#utility.yul\":6565:6682   */\n    tag_294:\n        /* \"#utility.yul\":6706:6769   */\n      tag_296\n        /* \"#utility.yul\":6761:6768   */\n      dup6\n        /* \"#utility.yul\":6752:6758   */\n      dup3\n        /* \"#utility.yul\":6741:6750   */\n      dup7\n        /* \"#utility.yul\":6737:6759   */\n      add\n        /* \"#utility.yul\":6706:6769   */\n      tag_178\n      jump\t// in\n    tag_296:\n        /* \"#utility.yul\":6696:6769   */\n      swap2\n      pop\n        /* \"#utility.yul\":6491:6779   */\n      pop\n        /* \"#utility.yul\":6132:6786   */\n      swap3\n      pop\n      swap3\n      swap1\n      pop\n      jump\t// out\n        /* \"#utility.yul\":6792:6951   */\n    tag_187:\n        /* \"#utility.yul\":6866:6877   */\n      0x00\n        /* \"#utility.yul\":6900:6906   */\n      dup3\n        /* \"#utility.yul\":6895:6898   */\n      dup3\n        /* \"#utility.yul\":6888:6907   */\n      mstore\n        /* \"#utility.yul\":6940:6944   */\n      0x20\n        /* \"#utility.yul\":6935:6938   */\n      dup3\n        /* \"#utility.yul\":6931:6945   */\n      add\n        /* \"#utility.yul\":6916:6945   */\n      swap1\n      pop\n        /* \"#utility.yul\":6792:6951   */\n      swap3\n      swap2\n      pop\n      pop\n      jump\t// out\n        /* \"#utility.yul\":6957:7314   */\n    tag_188:\n        /* \"#utility.yul\":7035:7038   */\n      0x00\n        /* \"#utility.yul\":7063:7102   */\n      tag_299\n        /* \"#utility.yul\":7096:7101   */\n      dup3\n        /* \"#utility.yul\":7063:7102   */\n      tag_183\n      jump\t// in\n    tag_299:\n        /* \"#utility.yul\":7118:7179   */\n      tag_300\n        /* \"#utility.yul\":7172:7178   */\n      dup2\n        /* \"#utility.yul\":7167:7170   */\n      dup6\n        /* \"#utility.yul\":7118:7179   */\n      tag_187\n      jump\t// in\n    tag_300:\n        /* \"#utility.yul\":7111:7179   */\n      swap4\n      pop\n        /* \"#utility.yul\":7188:7253   */\n      tag_301\n        /* \"#utility.yul\":7246:7252   */\n      dup2\n        /* \"#utility.yul\":7241:7244   */\n      dup6\n        /* \"#utility.yul\":7234:7238   */\n      0x20\n        /* \"#utility.yul\":7227:7232   */\n      dup7\n        /* \"#utility.yul\":7223:7239   */\n      add\n        /* \"#utility.yul\":7188:7253   */\n      tag_185\n      jump\t// in\n    tag_301:\n        /* \"#utility.yul\":7278:7307   */\n      tag_302\n        /* \"#utility.yul\":7300:7306   */\n      dup2\n        /* \"#utility.yul\":7278:7307   */\n      tag_171\n      jump\t// in\n    tag_302:\n        /* \"#utility.yul\":7273:7276   */\n      dup5\n        /* \"#utility.yul\":7269:7308   */\n      add\n        /* \"#utility.yul\":7262:7308   */\n      swap2\n      pop\n        /* \"#utility.yul\":7039:7314   */\n      pop\n        /* \"#utility.yul\":6957:7314   */\n      swap3\n      swap2\n      pop\n      pop\n      jump\t// out\n        /* \"#utility.yul\":7320:7428   */\n    tag_189:\n        /* \"#utility.yul\":7397:7421   */\n      tag_304\n        /* \"#utility.yul\":7415:7420   */\n      dup2\n        /* \"#utility.yul\":7397:7421   */\n      tag_179\n      jump\t// in\n    tag_304:\n        /* \"#utility.yul\":7392:7395   */\n      dup3\n        /* \"#utility.yul\":7385:7422   */\n      mstore\n        /* \"#utility.yul\":7320:7428   */\n      pop\n      pop\n      jump\t// out\n        /* \"#utility.yul\":7498:8527   */\n    tag_190:\n        /* \"#utility.yul\":7617:7620   */\n      0x00\n        /* \"#utility.yul\":7653:7657   */\n      0x80\n        /* \"#utility.yul\":7648:7651   */\n      dup4\n        /* \"#utility.yul\":7644:7658   */\n      add\n        /* \"#utility.yul\":7740:7744   */\n      0x00\n        /* \"#utility.yul\":7733:7738   */\n      dup4\n        /* \"#utility.yul\":7729:7745   */\n      add\n        /* \"#utility.yul\":7723:7746   */\n      mload\n        /* \"#utility.yul\":7793:7796   */\n      dup5\n        /* \"#utility.yul\":7787:7791   */\n      dup3\n        /* \"#utility.yul\":7783:7797   */\n      sub\n        /* \"#utility.yul\":7776:7780   */\n      0x00\n        /* \"#utility.yul\":7771:7774   */\n      dup7\n        /* \"#utility.yul\":7767:7781   */\n      add\n        /* \"#utility.yul\":7760:7798   */\n      mstore\n        /* \"#utility.yul\":7819:7892   */\n      tag_306\n        /* \"#utility.yul\":7887:7891   */\n      dup3\n        /* \"#utility.yul\":7873:7885   */\n      dup3\n        /* \"#utility.yul\":7819:7892   */\n      tag_188\n      jump\t// in\n    tag_306:\n        /* \"#utility.yul\":7811:7892   */\n      swap2\n      pop\n        /* \"#utility.yul\":7668:7903   */\n      pop\n        /* \"#utility.yul\":7984:7988   */\n      0x20\n        /* \"#utility.yul\":7977:7982   */\n      dup4\n        /* \"#utility.yul\":7973:7989   */\n      add\n        /* \"#utility.yul\":7967:7990   */\n      mload\n        /* \"#utility.yul\":8003:8066   */\n      tag_307\n        /* \"#utility.yul\":8060:8064   */\n      0x20\n        /* \"#utility.yul\":8055:8058   */\n      dup7\n        /* \"#utility.yul\":8051:8065   */\n      add\n        /* \"#utility.yul\":8037:8049   */\n      dup3\n        /* \"#utility.yul\":8003:8066   */\n      tag_189\n      jump\t// in\n    tag_307:\n        /* \"#utility.yul\":7913:8076   */\n      pop\n        /* \"#utility.yul\":8161:8165   */\n      0x40\n        /* \"#utility.yul\":8154:8159   */\n      dup4\n        /* \"#utility.yul\":8150:8166   */\n      add\n        /* \"#utility.yul\":8144:8167   */\n      mload\n        /* \"#utility.yul\":8214:8217   */\n      dup5\n        /* \"#utility.yul\":8208:8212   */\n      dup3\n        /* \"#utility.yul\":8204:8218   */\n      sub\n        /* \"#utility.yul\":8197:8201   */\n      0x40\n        /* \"#utility.yul\":8192:8195   */\n      dup7\n        /* \"#utility.yul\":8188:8202   */\n      add\n        /* \"#utility.yul\":8181:8219   */\n      mstore\n        /* \"#utility.yul\":8240:8313   */\n      tag_308\n        /* \"#utility.yul\":8308:8312   */\n      dup3\n        /* \"#utility.yul\":8294:8306   */\n      dup3\n        /* \"#utility.yul\":8240:8313   */\n      tag_188\n      jump\t// in\n    tag_308:\n        /* \"#utility.yul\":8232:8313   */\n      swap2\n      pop\n        /* \"#utility.yul\":8086:8324   */\n      pop\n        /* \"#utility.yul\":8408:8412   */\n      0x60\n        /* \"#utility.yul\":8401:8406   */\n      dup4\n        /* \"#utility.yul\":8397:8413   */\n      add\n        /* \"#utility.yul\":8391:8414   */\n      mload\n        /* \"#utility.yul\":8427:8490   */\n      tag_309\n        /* \"#utility.yul\":8484:8488   */\n      0x60\n        /* \"#utility.yul\":8479:8482   */\n      dup7\n        /* \"#utility.yul\":8475:8489   */\n      add\n        /* \"#utility.yul\":8461:8473   */\n      dup3\n        /* \"#utility.yul\":8427:8490   */\n      tag_189\n      jump\t// in\n    tag_309:\n        /* \"#utility.yul\":8334:8500   */\n      pop\n        /* \"#utility.yul\":8517:8521   */\n      dup1\n        /* \"#utility.yul\":8510:8521   */\n      swap2\n      pop\n        /* \"#utility.yul\":7622:8527   */\n      pop\n        /* \"#utility.yul\":7498:8527   */\n      swap3\n      swap2\n      pop\n      pop\n      jump\t// out\n        /* \"#utility.yul\":8533:8906   */\n    tag_42:\n        /* \"#utility.yul\":8676:8680   */\n      0x00\n        /* \"#utility.yul\":8714:8716   */\n      0x20\n        /* \"#utility.yul\":8703:8712   */\n      dup3\n        /* \"#utility.yul\":8699:8717   */\n      add\n        /* \"#utility.yul\":8691:8717   */\n      swap1\n      pop\n        /* \"#utility.yul\":8763:8772   */\n      dup2\n        /* \"#utility.yul\":8757:8761   */\n      dup2\n        /* \"#utility.yul\":8753:8773   */\n      sub\n        /* \"#utility.yul\":8749:8750   */\n      0x00\n        /* \"#utility.yul\":8738:8747   */\n      dup4\n        /* \"#utility.yul\":8734:8751   */\n      add\n        /* \"#utility.yul\":8727:8774   */\n      mstore\n        /* \"#utility.yul\":8791:8899   */\n      tag_311\n        /* \"#utility.yul\":8894:8898   */\n      dup2\n        /* \"#utility.yul\":8885:8891   */\n      dup5\n        /* \"#utility.yul\":8791:8899   */\n      tag_190\n      jump\t// in\n    tag_311:\n        /* \"#utility.yul\":8783:8899   */\n      swap1\n      pop\n        /* \"#utility.yul\":8533:8906   */\n      swap3\n      swap2\n      pop\n      pop\n      jump\t// out\n        /* \"#utility.yul\":8912:9386   */\n    tag_45:\n        /* \"#utility.yul\":8980:8986   */\n      0x00\n        /* \"#utility.yul\":8988:8994   */\n      0x00\n        /* \"#utility.yul\":9037:9039   */\n      0x40\n        /* \"#utility.yul\":9025:9034   */\n      dup4\n        /* \"#utility.yul\":9016:9023   */\n      dup6\n        /* \"#utility.yul\":9012:9035   */\n      sub\n        /* \"#utility.yul\":9008:9040   */\n      slt\n        /* \"#utility.yul\":9005:9124   */\n      iszero\n      tag_313\n      jumpi\n        /* \"#utility.yul\":9043:9122   */\n      tag_314\n      tag_167\n      jump\t// in\n    tag_314:\n        /* \"#utility.yul\":9005:9124   */\n    tag_313:\n        /* \"#utility.yul\":9163:9164   */\n      0x00\n        /* \"#utility.yul\":9188:9241   */\n      tag_315\n        /* \"#utility.yul\":9233:9240   */\n      dup6\n        /* \"#utility.yul\":9224:9230   */\n      dup3\n        /* \"#utility.yul\":9213:9222   */\n      dup7\n        /* \"#utility.yul\":9209:9231   */\n      add\n        /* \"#utility.yul\":9188:9241   */\n      tag_181\n      jump\t// in\n    tag_315:\n        /* \"#utility.yul\":9178:9241   */\n      swap3\n      pop\n        /* \"#utility.yul\":9134:9251   */\n      pop\n        /* \"#utility.yul\":9290:9292   */\n      0x20\n        /* \"#utility.yul\":9316:9369   */\n      tag_316\n        /* \"#utility.yul\":9361:9368   */\n      dup6\n        /* \"#utility.yul\":9352:9358   */\n      dup3\n        /* \"#utility.yul\":9341:9350   */\n      dup7\n        /* \"#utility.yul\":9337:9359   */\n      add\n        /* \"#utility.yul\":9316:9369   */\n      tag_181\n      jump\t// in\n    tag_316:\n        /* \"#utility.yul\":9306:9369   */\n      swap2\n      pop\n        /* \"#utility.yul\":9261:9379   */\n      pop\n        /* \"#utility.yul\":8912:9386   */\n      swap3\n      pop\n      swap3\n      swap1\n      pop\n      jump\t// out\n        /* \"#utility.yul\":9392:9901   */\n    tag_49:\n        /* \"#utility.yul\":9461:9467   */\n      0x00\n        /* \"#utility.yul\":9510:9512   */\n      0x20\n        /* \"#utility.yul\":9498:9507   */\n      dup3\n        /* \"#utility.yul\":9489:9496   */\n      dup5\n        /* \"#utility.yul\":9485:9508   */\n      sub\n        /* \"#utility.yul\":9481:9513   */\n      slt\n        /* \"#utility.yul\":9478:9597   */\n      iszero\n      tag_318\n      jumpi\n        /* \"#utility.yul\":9516:9595   */\n      tag_319\n      tag_167\n      jump\t// in\n    tag_319:\n        /* \"#utility.yul\":9478:9597   */\n    tag_318:\n        /* \"#utility.yul\":9664:9665   */\n      0x00\n        /* \"#utility.yul\":9653:9662   */\n      dup3\n        /* \"#utility.yul\":9649:9666   */\n      add\n        /* \"#utility.yul\":9636:9667   */\n      calldataload\n        /* \"#utility.yul\":9694:9712   */\n      0xffffffffffffffff\n        /* \"#utility.yul\":9686:9692   */\n      dup2\n        /* \"#utility.yul\":9683:9713   */\n      gt\n        /* \"#utility.yul\":9680:9797   */\n      iszero\n      tag_320\n      jumpi\n        /* \"#utility.yul\":9716:9795   */\n      tag_321\n      tag_168\n      jump\t// in\n    tag_321:\n        /* \"#utility.yul\":9680:9797   */\n    tag_320:\n        /* \"#utility.yul\":9821:9884   */\n      tag_322\n        /* \"#utility.yul\":9876:9883   */\n      dup5\n        /* \"#utility.yul\":9867:9873   */\n      dup3\n        /* \"#utility.yul\":9856:9865   */\n      dup6\n        /* \"#utility.yul\":9852:9874   */\n      add\n        /* \"#utility.yul\":9821:9884   */\n      tag_178\n      jump\t// in\n    tag_322:\n        /* \"#utility.yul\":9811:9884   */\n      swap2\n      pop\n        /* \"#utility.yul\":9607:9894   */\n      pop\n        /* \"#utility.yul\":9392:9901   */\n      swap3\n      swap2\n      pop\n      pop\n      jump\t// out\n        /* \"#utility.yul\":9907:10220   */\n    tag_56:\n        /* \"#utility.yul\":10020:10024   */\n      0x00\n        /* \"#utility.yul\":10058:10060   */\n      0x20\n        /* \"#utility.yul\":10047:10056   */\n      dup3\n        /* \"#utility.yul\":10043:10061   */\n      add\n        /* \"#utility.yul\":10035:10061   */\n      swap1\n      pop\n        /* \"#utility.yul\":10107:10116   */\n      dup2\n        /* \"#utility.yul\":10101:10105   */\n      dup2\n        /* \"#utility.yul\":10097:10117   */\n      sub\n        /* \"#utility.yul\":10093:10094   */\n      0x00\n        /* \"#utility.yul\":10082:10091   */\n      dup4\n        /* \"#utility.yul\":10078:10095   */\n      add\n        /* \"#utility.yul\":10071:10118   */\n      mstore\n        /* \"#utility.yul\":10135:10213   */\n      tag_324\n        /* \"#utility.yul\":10208:10212   */\n      dup2\n        /* \"#utility.yul\":10199:10205   */\n      dup5\n        /* \"#utility.yul\":10135:10213   */\n      tag_186\n      jump\t// in\n    tag_324:\n        /* \"#utility.yul\":10127:10213   */\n      swap1\n      pop\n        /* \"#utility.yul\":9907:10220   */\n      swap3\n      swap2\n      pop\n      pop\n      jump\t// out\n        /* \"#utility.yul\":10278:11312   */\n    tag_191:\n        /* \"#utility.yul\":10387:10390   */\n      0x00\n        /* \"#utility.yul\":10423:10427   */\n      0x80\n        /* \"#utility.yul\":10418:10421   */\n      dup4\n        /* \"#utility.yul\":10414:10428   */\n      add\n        /* \"#utility.yul\":10513:10517   */\n      0x00\n        /* \"#utility.yul\":10506:10511   */\n      dup4\n        /* \"#utility.yul\":10502:10518   */\n      add\n        /* \"#utility.yul\":10496:10519   */\n      mload\n        /* \"#utility.yul\":10566:10569   */\n      dup5\n        /* \"#utility.yul\":10560:10564   */\n      dup3\n        /* \"#utility.yul\":10556:10570   */\n      sub\n        /* \"#utility.yul\":10549:10553   */\n      0x00\n        /* \"#utility.yul\":10544:10547   */\n      dup7\n        /* \"#utility.yul\":10540:10554   */\n      add\n        /* \"#utility.yul\":10533:10571   */\n      mstore\n        /* \"#utility.yul\":10592:10665   */\n      tag_326\n        /* \"#utility.yul\":10660:10664   */\n      dup3\n        /* \"#utility.yul\":10646:10658   */\n      dup3\n        /* \"#utility.yul\":10592:10665   */\n      tag_188\n      jump\t// in\n    tag_326:\n        /* \"#utility.yul\":10584:10665   */\n      swap2\n      pop\n        /* \"#utility.yul\":10438:10676   */\n      pop\n        /* \"#utility.yul\":10760:10764   */\n      0x20\n        /* \"#utility.yul\":10753:10758   */\n      dup4\n        /* \"#utility.yul\":10749:10765   */\n      add\n        /* \"#utility.yul\":10743:10766   */\n      mload\n        /* \"#utility.yul\":10779:10842   */\n      tag_327\n        /* \"#utility.yul\":10836:10840   */\n      0x20\n        /* \"#utility.yul\":10831:10834   */\n      dup7\n        /* \"#utility.yul\":10827:10841   */\n      add\n        /* \"#utility.yul\":10813:10825   */\n      dup3\n        /* \"#utility.yul\":10779:10842   */\n      tag_189\n      jump\t// in\n    tag_327:\n        /* \"#utility.yul\":10686:10852   */\n      pop\n        /* \"#utility.yul\":10937:10941   */\n      0x40\n        /* \"#utility.yul\":10930:10935   */\n      dup4\n        /* \"#utility.yul\":10926:10942   */\n      add\n        /* \"#utility.yul\":10920:10943   */\n      mload\n        /* \"#utility.yul\":10990:10993   */\n      dup5\n        /* \"#utility.yul\":10984:10988   */\n      dup3\n        /* \"#utility.yul\":10980:10994   */\n      sub\n        /* \"#utility.yul\":10973:10977   */\n      0x40\n        /* \"#utility.yul\":10968:10971   */\n      dup7\n        /* \"#utility.yul\":10964:10978   */\n      add\n        /* \"#utility.yul\":10957:10995   */\n      mstore\n        /* \"#utility.yul\":11016:11089   */\n      tag_328\n        /* \"#utility.yul\":11084:11088   */\n      dup3\n        /* \"#utility.yul\":11070:11082   */\n      dup3\n        /* \"#utility.yul\":11016:11089   */\n      tag_188\n      jump\t// in\n    tag_328:\n        /* \"#utility.yul\":11008:11089   */\n      swap2\n      pop\n        /* \"#utility.yul\":10862:11100   */\n      pop\n        /* \"#utility.yul\":11193:11197   */\n      0x60\n        /* \"#utility.yul\":11186:11191   */\n      dup4\n        /* \"#utility.yul\":11182:11198   */\n      add\n        /* \"#utility.yul\":11176:11199   */\n      mload\n        /* \"#utility.yul\":11212:11275   */\n      tag_329\n        /* \"#utility.yul\":11269:11273   */\n      0x60\n        /* \"#utility.yul\":11264:11267   */\n      dup7\n        /* \"#utility.yul\":11260:11274   */\n      add\n        /* \"#utility.yul\":11246:11258   */\n      dup3\n        /* \"#utility.yul\":11212:11275   */\n      tag_189\n      jump\t// in\n    tag_329:\n        /* \"#utility.yul\":11110:11285   */\n      pop\n        /* \"#utility.yul\":11302:11306   */\n      dup1\n        /* \"#utility.yul\":11295:11306   */\n      swap2\n      pop\n        /* \"#utility.yul\":10392:11312   */\n      pop\n        /* \"#utility.yul\":10278:11312   */\n      swap3\n      swap2\n      pop\n      pop\n      jump\t// out\n        /* \"#utility.yul\":11318:11671   */\n    tag_61:\n        /* \"#utility.yul\":11451:11455   */\n      0x00\n        /* \"#utility.yul\":11489:11491   */\n      0x20\n        /* \"#utility.yul\":11478:11487   */\n      dup3\n        /* \"#utility.yul\":11474:11492   */\n      add\n        /* \"#utility.yul\":11466:11492   */\n      swap1\n      pop\n        /* \"#utility.yul\":11538:11547   */\n      dup2\n        /* \"#utility.yul\":11532:11536   */\n      dup2\n        /* \"#utility.yul\":11528:11548   */\n      sub\n        /* \"#utility.yul\":11524:11525   */\n      0x00\n        /* \"#utility.yul\":11513:11522   */\n      dup4\n        /* \"#utility.yul\":11509:11526   */\n      add\n        /* \"#utility.yul\":11502:11549   */\n      mstore\n        /* \"#utility.yul\":11566:11664   */\n      tag_331\n        /* \"#utility.yul\":11659:11663   */\n      dup2\n        /* \"#utility.yul\":11650:11656   */\n      dup5\n        /* \"#utility.yul\":11566:11664   */\n      tag_191\n      jump\t// in\n    tag_331:\n        /* \"#utility.yul\":11558:11664   */\n      swap1\n      pop\n        /* \"#utility.yul\":11318:11671   */\n      swap3\n      swap2\n      pop\n      pop\n      jump\t// out\n        /* \"#utility.yul\":11677:11803   */\n    tag_192:\n        /* \"#utility.yul\":11714:11721   */\n      0x00\n        /* \"#utility.yul\":11754:11796   */\n      0xffffffffffffffffffffffffffffffffffffffff\n        /* \"#utility.yul\":11747:11752   */\n      dup3\n        /* \"#utility.yul\":11743:11797   */\n      and\n        /* \"#utility.yul\":11732:11797   */\n      swap1\n      pop\n        /* \"#utility.yul\":11677:11803   */\n      swap2\n      swap1\n      pop\n      jump\t// out\n        /* \"#utility.yul\":11809:11905   */\n    tag_193:\n        /* \"#utility.yul\":11846:11853   */\n      0x00\n        /* \"#utility.yul\":11875:11899   */\n      tag_334\n        /* \"#utility.yul\":11893:11898   */\n      dup3\n        /* \"#utility.yul\":11875:11899   */\n      tag_192\n      jump\t// in\n    tag_334:\n        /* \"#utility.yul\":11864:11899   */\n      swap1\n      pop\n        /* \"#utility.yul\":11809:11905   */\n      swap2\n      swap1\n      pop\n      jump\t// out\n        /* \"#utility.yul\":11911:12029   */\n    tag_194:\n        /* \"#utility.yul\":11998:12022   */\n      tag_336\n        /* \"#utility.yul\":12016:12021   */\n      dup2\n        /* \"#utility.yul\":11998:12022   */\n      tag_193\n      jump\t// in\n    tag_336:\n        /* \"#utility.yul\":11993:11996   */\n      dup3\n        /* \"#utility.yul\":11986:12023   */\n      mstore\n        /* \"#utility.yul\":11911:12029   */\n      pop\n      pop\n      jump\t// out\n        /* \"#utility.yul\":12035:12257   */\n    tag_65:\n        /* \"#utility.yul\":12128:12132   */\n      0x00\n        /* \"#utility.yul\":12166:12168   */\n      0x20\n        /* \"#utility.yul\":12155:12164   */\n      dup3\n        /* \"#utility.yul\":12151:12169   */\n      add\n        /* \"#utility.yul\":12143:12169   */\n      swap1\n      pop\n        /* \"#utility.yul\":12179:12250   */\n      tag_338\n        /* \"#utility.yul\":12247:12248   */\n      0x00\n        /* \"#utility.yul\":12236:12245   */\n      dup4\n        /* \"#utility.yul\":12232:12249   */\n      add\n        /* \"#utility.yul\":12223:12229   */\n      dup5\n        /* \"#utility.yul\":12179:12250   */\n      tag_194\n      jump\t// in\n    tag_338:\n        /* \"#utility.yul\":12035:12257   */\n      swap3\n      swap2\n      pop\n      pop\n      jump\t// out\n        /* \"#utility.yul\":12263:12487   */\n    tag_195:\n        /* \"#utility.yul\":12403:12437   */\n      0x6f6e6c792061646d696e2063616e20706572666f726d2074686973206f706572\n        /* \"#utility.yul\":12399:12400   */\n      0x00\n        /* \"#utility.yul\":12391:12397   */\n      dup3\n        /* \"#utility.yul\":12387:12401   */\n      add\n        /* \"#utility.yul\":12380:12438   */\n      mstore\n        /* \"#utility.yul\":12472:12479   */\n      0x6174696f6e000000000000000000000000000000000000000000000000000000\n        /* \"#utility.yul\":12467:12469   */\n      0x20\n        /* \"#utility.yul\":12459:12465   */\n      dup3\n        /* \"#utility.yul\":12455:12470   */\n      add\n        /* \"#utility.yul\":12448:12480   */\n      mstore\n        /* \"#utility.yul\":12263:12487   */\n      pop\n      jump\t// out\n        /* \"#utility.yul\":12493:12859   */\n    tag_196:\n        /* \"#utility.yul\":12635:12638   */\n      0x00\n        /* \"#utility.yul\":12656:12723   */\n      tag_341\n        /* \"#utility.yul\":12720:12722   */\n      0x25\n        /* \"#utility.yul\":12715:12718   */\n      dup4\n        /* \"#utility.yul\":12656:12723   */\n      tag_184\n      jump\t// in\n    tag_341:\n        /* \"#utility.yul\":12649:12723   */\n      swap2\n      pop\n        /* \"#utility.yul\":12732:12825   */\n      tag_342\n        /* \"#utility.yul\":12821:12824   */\n      dup3\n        /* \"#utility.yul\":12732:12825   */\n      tag_195\n      jump\t// in\n    tag_342:\n        /* \"#utility.yul\":12850:12852   */\n      0x40\n        /* \"#utility.yul\":12845:12848   */\n      dup3\n        /* \"#utility.yul\":12841:12853   */\n      add\n        /* \"#utility.yul\":12834:12853   */\n      swap1\n      pop\n        /* \"#utility.yul\":12493:12859   */\n      swap2\n      swap1\n      pop\n      jump\t// out\n        /* \"#utility.yul\":12865:13284   */\n    tag_72:\n        /* \"#utility.yul\":13031:13035   */\n      0x00\n        /* \"#utility.yul\":13069:13071   */\n      0x20\n        /* \"#utility.yul\":13058:13067   */\n      dup3\n        /* \"#utility.yul\":13054:13072   */\n      add\n        /* \"#utility.yul\":13046:13072   */\n      swap1\n      pop\n        /* \"#utility.yul\":13118:13127   */\n      dup2\n        /* \"#utility.yul\":13112:13116   */\n      dup2\n        /* \"#utility.yul\":13108:13128   */\n      sub\n        /* \"#utility.yul\":13104:13105   */\n      0x00\n        /* \"#utility.yul\":13093:13102   */\n      dup4\n        /* \"#utility.yul\":13089:13106   */\n      add\n        /* \"#utility.yul\":13082:13129   */\n      mstore\n        /* \"#utility.yul\":13146:13277   */\n      tag_344\n        /* \"#utility.yul\":13272:13276   */\n      dup2\n        /* \"#utility.yul\":13146:13277   */\n      tag_196\n      jump\t// in\n    tag_344:\n        /* \"#utility.yul\":13138:13277   */\n      swap1\n      pop\n        /* \"#utility.yul\":12865:13284   */\n      swap2\n      swap1\n      pop\n      jump\t// out\n        /* \"#utility.yul\":13290:13438   */\n    tag_197:\n        /* \"#utility.yul\":13392:13403   */\n      0x00\n        /* \"#utility.yul\":13429:13432   */\n      dup2\n        /* \"#utility.yul\":13414:13432   */\n      swap1\n      pop\n        /* \"#utility.yul\":13290:13438   */\n      swap3\n      swap2\n      pop\n      pop\n      jump\t// out\n        /* \"#utility.yul\":13444:13834   */\n    tag_198:\n        /* \"#utility.yul\":13550:13553   */\n      0x00\n        /* \"#utility.yul\":13578:13617   */\n      tag_347\n        /* \"#utility.yul\":13611:13616   */\n      dup3\n        /* \"#utility.yul\":13578:13617   */\n      tag_183\n      jump\t// in\n    tag_347:\n        /* \"#utility.yul\":13633:13722   */\n      tag_348\n        /* \"#utility.yul\":13715:13721   */\n      dup2\n        /* \"#utility.yul\":13710:13713   */\n      dup6\n        /* \"#utility.yul\":13633:13722   */\n      tag_197\n      jump\t// in\n    tag_348:\n        /* \"#utility.yul\":13626:13722   */\n      swap4\n      pop\n        /* \"#utility.yul\":13731:13796   */\n      tag_349\n        /* \"#utility.yul\":13789:13795   */\n      dup2\n        /* \"#utility.yul\":13784:13787   */\n      dup6\n        /* \"#utility.yul\":13777:13781   */\n      0x20\n        /* \"#utility.yul\":13770:13775   */\n      dup7\n        /* \"#utility.yul\":13766:13782   */\n      add\n        /* \"#utility.yul\":13731:13796   */\n      tag_185\n      jump\t// in\n    tag_349:\n        /* \"#utility.yul\":13821:13827   */\n      dup1\n        /* \"#utility.yul\":13816:13819   */\n      dup5\n        /* \"#utility.yul\":13812:13828   */\n      add\n        /* \"#utility.yul\":13805:13828   */\n      swap2\n      pop\n        /* \"#utility.yul\":13554:13834   */\n      pop\n        /* \"#utility.yul\":13444:13834   */\n      swap3\n      swap2\n      pop\n      pop\n      jump\t// out\n        /* \"#utility.yul\":13840:14115   */\n    tag_75:\n        /* \"#utility.yul\":13972:13975   */\n      0x00\n        /* \"#utility.yul\":13994:14089   */\n      tag_351\n        /* \"#utility.yul\":14085:14088   */\n      dup3\n        /* \"#utility.yul\":14076:14082   */\n      dup5\n        /* \"#utility.yul\":13994:14089   */\n      tag_198\n      jump\t// in\n    tag_351:\n        /* \"#utility.yul\":13987:14089   */\n      swap2\n      pop\n        /* \"#utility.yul\":14106:14109   */\n      dup2\n        /* \"#utility.yul\":14099:14109   */\n      swap1\n      pop\n        /* \"#utility.yul\":13840:14115   */\n      swap3\n      swap2\n      pop\n      pop\n      jump\t// out\n        /* \"#utility.yul\":14121:14301   */\n    tag_199:\n        /* \"#utility.yul\":14169:14246   */\n      0x4e487b7100000000000000000000000000000000000000000000000000000000\n        /* \"#utility.yul\":14166:14167   */\n      0x00\n        /* \"#utility.yul\":14159:14247   */\n      mstore\n        /* \"#utility.yul\":14266:14270   */\n      0x22\n        /* \"#utility.yul\":14263:14264   */\n      0x04\n        /* \"#utility.yul\":14256:14271   */\n      mstore\n        /* \"#utility.yul\":14290:14294   */\n      0x24\n        /* \"#utility.yul\":14287:14288   */\n      0x00\n        /* \"#utility.yul\":14280:14295   */\n      revert\n        /* \"#utility.yul\":14307:14627   */\n    tag_84:\n        /* \"#utility.yul\":14351:14357   */\n      0x00\n        /* \"#utility.yul\":14388:14389   */\n      0x02\n        /* \"#utility.yul\":14382:14386   */\n      dup3\n        /* \"#utility.yul\":14378:14390   */\n      div\n        /* \"#utility.yul\":14368:14390   */\n      swap1\n      pop\n        /* \"#utility.yul\":14435:14436   */\n      0x01\n        /* \"#utility.yul\":14429:14433   */\n      dup3\n        /* \"#utility.yul\":14425:14437   */\n      and\n        /* \"#utility.yul\":14456:14474   */\n      dup1\n        /* \"#utility.yul\":14446:14527   */\n      tag_354\n      jumpi\n        /* \"#utility.yul\":14512:14516   */\n      0x7f\n        /* \"#utility.yul\":14504:14510   */\n      dup3\n        /* \"#utility.yul\":14500:14517   */\n      and\n        /* \"#utility.yul\":14490:14517   */\n      swap2\n      pop\n        /* \"#utility.yul\":14446:14527   */\n    tag_354:\n        /* \"#utility.yul\":14574:14576   */\n      0x20\n        /* \"#utility.yul\":14566:14572   */\n      dup3\n        /* \"#utility.yul\":14563:14577   */\n      lt\n        /* \"#utility.yul\":14543:14561   */\n      dup2\n        /* \"#utility.yul\":14540:14578   */\n      sub\n        /* \"#utility.yul\":14537:14621   */\n      tag_355\n      jumpi\n        /* \"#utility.yul\":14593:14611   */\n      tag_356\n      tag_199\n      jump\t// in\n    tag_356:\n        /* \"#utility.yul\":14537:14621   */\n    tag_355:\n        /* \"#utility.yul\":14358:14627   */\n      pop\n        /* \"#utility.yul\":14307:14627   */\n      swap2\n      swap1\n      pop\n      jump\t// out\n        /* \"#utility.yul\":14633:14774   */\n    tag_200:\n        /* \"#utility.yul\":14682:14686   */\n      0x00\n        /* \"#utility.yul\":14705:14708   */\n      dup2\n        /* \"#utility.yul\":14697:14708   */\n      swap1\n      pop\n        /* \"#utility.yul\":14728:14731   */\n      dup2\n        /* \"#utility.yul\":14725:14726   */\n      0x00\n        /* \"#utility.yul\":14718:14732   */\n      mstore\n        /* \"#utility.yul\":14762:14766   */\n      0x20\n        /* \"#utility.yul\":14759:14760   */\n      0x00\n        /* \"#utility.yul\":14749:14767   */\n      keccak256\n        /* \"#utility.yul\":14741:14767   */\n      swap1\n      pop\n        /* \"#utility.yul\":14633:14774   */\n      swap2\n      swap1\n      pop\n      jump\t// out\n        /* \"#utility.yul\":14780:14873   */\n    tag_201:\n        /* \"#utility.yul\":14817:14823   */\n      0x00\n        /* \"#utility.yul\":14864:14866   */\n      0x20\n        /* \"#utility.yul\":14859:14861   */\n      0x1f\n        /* \"#utility.yul\":14852:14857   */\n      dup4\n        /* \"#utility.yul\":14848:14862   */\n      add\n        /* \"#utility.yul\":14844:14867   */\n      div\n        /* \"#utility.yul\":14834:14867   */\n      swap1\n      pop\n        /* \"#utility.yul\":14780:14873   */\n      swap2\n      swap1\n      pop\n      jump\t// out\n        /* \"#utility.yul\":14879:14986   */\n    tag_202:\n        /* \"#utility.yul\":14923:14931   */\n      0x00\n        /* \"#utility.yul\":14973:14978   */\n      dup3\n        /* \"#utility.yul\":14967:14971   */\n      dup3\n        /* \"#utility.yul\":14963:14979   */\n      shl\n        /* \"#utility.yul\":14942:14979   */\n      swap1\n      pop\n        /* \"#utility.yul\":14879:14986   */\n      swap3\n      swap2\n      pop\n      pop\n      jump\t// out\n        /* \"#utility.yul\":14992:15385   */\n    tag_203:\n        /* \"#utility.yul\":15061:15067   */\n      0x00\n        /* \"#utility.yul\":15111:15112   */\n      0x08\n        /* \"#utility.yul\":15099:15109   */\n      dup4\n        /* \"#utility.yul\":15095:15113   */\n      mul\n        /* \"#utility.yul\":15134:15231   */\n      tag_361\n        /* \"#utility.yul\":15164:15230   */\n      0xffffffffffffffffffffffffffffffffffffffffffffffffffffffffffffffff\n        /* \"#utility.yul\":15153:15162   */\n      dup3\n        /* \"#utility.yul\":15134:15231   */\n      tag_202\n      jump\t// in\n    tag_361:\n        /* \"#utility.yul\":15252:15291   */\n      tag_362\n        /* \"#utility.yul\":15282:15290   */\n      dup7\n        /* \"#utility.yul\":15271:15280   */\n      dup4\n        /* \"#utility.yul\":15252:15291   */\n      tag_202\n      jump\t// in\n    tag_362:\n        /* \"#utility.yul\":15240:15291   */\n      swap6\n      pop\n        /* \"#utility.yul\":15324:15328   */\n      dup1\n        /* \"#utility.yul\":15320:15329   */\n      not\n        /* \"#utility.yul\":15313:15318   */\n      dup5\n        /* \"#utility.yul\":15309:15330   */\n      and\n        /* \"#utility.yul\":15300:15330   */\n      swap4\n      pop\n        /* \"#utility.yul\":15373:15377   */\n      dup1\n        /* \"#utility.yul\":15363:15371   */\n      dup7\n        /* \"#utility.yul\":15359:15378   */\n      and\n        /* \"#utility.yul\":15352:15357   */\n      dup5\n        /* \"#utility.yul\":15349:15379   */\n      or\n        /* \"#utility.yul\":15339:15379   */\n      swap3\n      pop\n        /* \"#utility.yul\":15068:15385   */\n      pop\n      pop\n        /* \"#utility.yul\":14992:15385   */\n      swap4\n      swap3\n      pop\n      pop\n      pop\n      jump\t// out\n        /* \"#utility.yul\":15391:15451   */\n    tag_204:\n        /* \"#utility.yul\":15419:15422   */\n      0x00\n        /* \"#utility.yul\":15440:15445   */\n      dup2\n        /* \"#utility.yul\":15433:15445   */\n      swap1\n      pop\n        /* \"#utility.yul\":15391:15451   */\n      swap2\n      swap1\n      pop\n      jump\t// out\n        /* \"#utility.yul\":15457:15599   */\n    tag_205:\n        /* \"#utility.yul\":15507:15516   */\n      0x00\n        /* \"#utility.yul\":15540:15593   */\n      tag_365\n        /* \"#utility.yul\":15558:15592   */\n      tag_366\n        /* \"#utility.yul\":15567:15591   */\n      tag_367\n        /* \"#utility.yul\":15585:15590   */\n      dup5\n        /* \"#utility.yul\":15567:15591   */\n      tag_179\n      jump\t// in\n    tag_367:\n        /* \"#utility.yul\":15558:15592   */\n      tag_204\n      jump\t// in\n    tag_366:\n        /* \"#utility.yul\":15540:15593   */\n      tag_179\n      jump\t// in\n    tag_365:\n        /* \"#utility.yul\":15527:15593   */\n      swap1\n      pop\n        /* \"#utility.yul\":15457:15599   */\n      swap2\n      swap1\n      pop\n      jump\t// out\n        /* \"#utility.yul\":15605:15680   */\n    tag_206:\n        /* \"#utility.yul\":15648:15651   */\n      0x00\n        /* \"#utility.yul\":15669:15674   */\n      dup2\n        /* \"#utility.yul\":15662:15674   */\n      swap1\n      pop\n        /* \"#utility.yul\":15605:15680   */\n      swap2\n      swap1\n      pop\n      jump\t// out\n        /* \"#utility.yul\":15686:15955   */\n    tag_207:\n        /* \"#utility.yul\":15796:15835   */\n      tag_370\n        /* \"#utility.yul\":15827:15834   */\n      dup4\n        /* \"#utility.yul\":15796:15835   */\n      tag_205\n      jump\t// in\n    tag_370:\n        /* \"#utility.yul\":15857:15948   */\n      tag_371\n        /* \"#utility.yul\":15906:15947   */\n      tag_372\n        /* \"#utility.yul\":15930:15946   */\n      dup3\n        /* \"#utility.yul\":15906:15947   */\n      tag_206\n      jump\t// in\n    tag_372:\n        /* \"#utility.yul\":15898:15904   */\n      dup5\n        /* \"#utility.yul\":15891:15895   */\n      dup5\n        /* \"#utility.yul\":15885:15896   */\n      sload\n        /* \"#utility.yul\":15857:15948   */\n      tag_203\n      jump\t// in\n    tag_371:\n        /* \"#utility.yul\":15851:15855   */\n      dup3\n        /* \"#utility.yul\":15844:15949   */\n      sstore\n        /* \"#utility.yul\":15762:15955   */\n      pop\n        /* \"#utility.yul\":15686:15955   */\n      pop\n      pop\n      pop\n      jump\t// out\n        /* \"#utility.yul\":15961:16034   */\n    tag_208:\n        /* \"#utility.yul\":16006:16009   */\n      0x00\n        /* \"#utility.yul\":16027:16028   */\n      0x00\n        /* \"#utility.yul\":16020:16028   */\n      swap1\n      pop\n        /* \"#utility.yul\":15961:16034   */\n      swap1\n      jump\t// out\n        /* \"#utility.yul\":16040:16229   */\n    tag_209:\n        /* \"#utility.yul\":16117:16149   */\n      tag_375\n      tag_208\n      jump\t// in\n    tag_375:\n        /* \"#utility.yul\":16158:16223   */\n      tag_376\n        /* \"#utility.yul\":16216:16222   */\n      dup2\n        /* \"#utility.yul\":16208:16214   */\n      dup5\n        /* \"#utility.yul\":16202:16206   */\n      dup5\n        /* \"#utility.yul\":16158:16223   */\n      tag_207\n      jump\t// in\n    tag_376:\n        /* \"#utility.yul\":16093:16229   */\n      pop\n        /* \"#utility.yul\":16040:16229   */\n      pop\n      pop\n      jump\t// out\n        /* \"#utility.yul\":16235:16421   */\n    tag_210:\n        /* \"#utility.yul\":16295:16415   */\n    tag_378:\n        /* \"#utility.yul\":16312:16315   */\n      dup2\n        /* \"#utility.yul\":16305:16310   */\n      dup2\n        /* \"#utility.yul\":16302:16316   */\n      lt\n        /* \"#utility.yul\":16295:16415   */\n      iszero\n      tag_380\n      jumpi\n        /* \"#utility.yul\":16366:16405   */\n      tag_381\n        /* \"#utility.yul\":16403:16404   */\n      0x00\n        /* \"#utility.yul\":16396:16401   */\n      dup3\n        /* \"#utility.yul\":16366:16405   */\n      tag_209\n      jump\t// in\n    tag_381:\n        /* \"#utility.yul\":16339:16340   */\n      0x01\n        /* \"#utility.yul\":16332:16337   */\n      dup2\n        /* \"#utility.yul\":16328:16341   */\n      add\n        /* \"#utility.yul\":16319:16341   */\n      swap1\n      pop\n        /* \"#utility.yul\":16295:16415   */\n      jump(tag_378)\n    tag_380:\n        /* \"#utility.yul\":16235:16421   */\n      pop\n      pop\n      jump\t// out\n        /* \"#utility.yul\":16427:16970   */\n    tag_211:\n        /* \"#utility.yul\":16528:16530   */\n      0x1f\n        /* \"#utility.yul\":16523:16526   */\n      dup3\n        /* \"#utility.yul\":16520:16531   */\n      gt\n        /* \"#utility.yul\":16517:16963   */\n      iszero\n      tag_383\n      jumpi\n        /* \"#utility.yul\":16562:16600   */\n      tag_384\n        /* \"#utility.yul\":16594:16599   */\n      dup2\n        /* \"#utility.yul\":16562:16600   */\n      tag_200\n      jump\t// in\n    tag_384:\n        /* \"#utility.yul\":16646:16675   */\n      tag_385\n        /* \"#utility.yul\":16664:16674   */\n      dup5\n        /* \"#utility.yul\":16646:16675   */\n      tag_201\n      jump\t// in\n    tag_385:\n        /* \"#utility.yul\":16636:16644   */\n      dup2\n        /* \"#utility.yul\":16632:16676   */\n      add\n        /* \"#utility.yul\":16829:16831   */\n      0x20\n        /* \"#utility.yul\":16817:16827   */\n      dup6\n        /* \"#utility.yul\":16814:16832   */\n      lt\n        /* \"#utility.yul\":16811:16860   */\n      iszero\n      tag_386\n      jumpi\n        /* \"#utility.yul\":16850:16858   */\n      dup2\n        /* \"#utility.yul\":16835:16858   */\n      swap1\n      pop\n        /* \"#utility.yul\":16811:16860   */\n    tag_386:\n        /* \"#utility.yul\":16873:16953   */\n      tag_387\n        /* \"#utility.yul\":16929:16951   */\n      tag_388\n        /* \"#utility.yul\":16947:16950   */\n      dup6\n        /* \"#utility.yul\":16929:16951   */\n      tag_201\n      jump\t// in\n    tag_388:\n        /* \"#utility.yul\":16919:16927   */\n      dup4\n        /* \"#utility.yul\":16915:16952   */\n      add\n        /* \"#utility.yul\":16902:16913   */\n      dup3\n        /* \"#utility.yul\":16873:16953   */\n      tag_210\n      jump\t// in\n    tag_387:\n        /* \"#utility.yul\":16532:16963   */\n      pop\n      pop\n        /* \"#utility.yul\":16517:16963   */\n    tag_383:\n        /* \"#utility.yul\":16427:16970   */\n      pop\n      pop\n      pop\n      jump\t// out\n        /* \"#utility.yul\":16976:17093   */\n    tag_212:\n        /* \"#utility.yul\":17030:17038   */\n      0x00\n        /* \"#utility.yul\":17080:17085   */\n      dup3\n        /* \"#utility.yul\":17074:17078   */\n      dup3\n        /* \"#utility.yul\":17070:17086   */\n      shr\n        /* \"#utility.yul\":17049:17086   */\n      swap1\n      pop\n        /* \"#utility.yul\":16976:17093   */\n      swap3\n      swap2\n      pop\n      pop\n      jump\t// out\n        /* \"#utility.yul\":17099:17268   */\n    tag_213:\n        /* \"#utility.yul\":17143:17149   */\n      0x00\n        /* \"#utility.yul\":17176:17227   */\n      tag_391\n        /* \"#utility.yul\":17224:17225   */\n      0x00\n        /* \"#utility.yul\":17220:17226   */\n      not\n        /* \"#utility.yul\":17212:17217   */\n      dup5\n        /* \"#utility.yul\":17209:17210   */\n      0x08\n        /* \"#utility.yul\":17205:17218   */\n      mul\n        /* \"#utility.yul\":17176:17227   */\n      tag_212\n      jump\t// in\n    tag_391:\n        /* \"#utility.yul\":17172:17228   */\n      not\n        /* \"#utility.yul\":17257:17261   */\n      dup1\n        /* \"#utility.yul\":17251:17255   */\n      dup4\n        /* \"#utility.yul\":17247:17262   */\n      and\n        /* \"#utility.yul\":17237:17262   */\n      swap2\n      pop\n        /* \"#utility.yul\":17150:17268   */\n      pop\n        /* \"#utility.yul\":17099:17268   */\n      swap3\n      swap2\n      pop\n      pop\n      jump\t// out\n        /* \"#utility.yul\":17273:17568   */\n    tag_214:\n        /* \"#utility.yul\":17349:17353   */\n      0x00\n        /* \"#utility.yul\":17495:17524   */\n      tag_393\n        /* \"#utility.yul\":17520:17523   */\n      dup4\n        /* \"#utility.yul\":17514:17518   */\n      dup4\n        /* \"#utility.yul\":17495:17524   */\n      tag_213\n      jump\t// in\n    tag_393:\n        /* \"#utility.yul\":17487:17524   */\n      swap2\n      pop\n        /* \"#utility.yul\":17557:17560   */\n      dup3\n        /* \"#utility.yul\":17554:17555   */\n      0x02\n        /* \"#utility.yul\":17550:17561   */\n      mul\n        /* \"#utility.yul\":17544:17548   */\n      dup3\n        /* \"#utility.yul\":17541:17562   */\n      or\n        /* \"#utility.yul\":17533:17562   */\n      swap1\n      pop\n        /* \"#utility.yul\":17273:17568   */\n      swap3\n      swap2\n      pop\n      pop\n      jump\t// out\n        /* \"#utility.yul\":17573:18968   */\n    tag_77:\n        /* \"#utility.yul\":17690:17727   */\n      tag_395\n        /* \"#utility.yul\":17723:17726   */\n      dup3\n        /* \"#utility.yul\":17690:17727   */\n      tag_183\n      jump\t// in\n    tag_395:\n        /* \"#utility.yul\":17792:17810   */\n      0xffffffffffffffff\n        /* \"#utility.yul\":17784:17790   */\n      dup2\n        /* \"#utility.yul\":17781:17811   */\n      gt\n        /* \"#utility.yul\":17778:17834   */\n      iszero\n      tag_396\n      jumpi\n        /* \"#utility.yul\":17814:17832   */\n      tag_397\n      tag_172\n      jump\t// in\n    tag_397:\n        /* \"#utility.yul\":17778:17834   */\n    tag_396:\n        /* \"#utility.yul\":17858:17896   */\n      tag_398\n        /* \"#utility.yul\":17890:17894   */\n      dup3\n        /* \"#utility.yul\":17884:17895   */\n      sload\n        /* \"#utility.yul\":17858:17896   */\n      tag_84\n      jump\t// in\n    tag_398:\n        /* \"#utility.yul\":17943:18010   */\n      tag_399\n        /* \"#utility.yul\":18003:18009   */\n      dup3\n        /* \"#utility.yul\":17995:18001   */\n      dup3\n        /* \"#utility.yul\":17989:17993   */\n      dup6\n        /* \"#utility.yul\":17943:18010   */\n      tag_211\n      jump\t// in\n    tag_399:\n        /* \"#utility.yul\":18037:18038   */\n      0x00\n        /* \"#utility.yul\":18061:18065   */\n      0x20\n        /* \"#utility.yul\":18048:18065   */\n      swap1\n      pop\n        /* \"#utility.yul\":18093:18095   */\n      0x1f\n        /* \"#utility.yul\":18085:18091   */\n      dup4\n        /* \"#utility.yul\":18082:18096   */\n      gt\n        /* \"#utility.yul\":18110:18111   */\n      0x01\n        /* \"#utility.yul\":18105:18723   */\n      dup2\n      eq\n      tag_401\n      jumpi\n        /* \"#utility.yul\":18767:18768   */\n      0x00\n        /* \"#utility.yul\":18784:18790   */\n      dup5\n        /* \"#utility.yul\":18781:18858   */\n      iszero\n      tag_402\n      jumpi\n        /* \"#utility.yul\":18833:18842   */\n      dup3\n        /* \"#utility.yul\":18828:18831   */\n      dup8\n        /* \"#utility.yul\":18824:18843   */\n      add\n        /* \"#utility.yul\":18818:18844   */\n      mload\n        /* \"#utility.yul\":18809:18844   */\n      swap1\n      pop\n        /* \"#utility.yul\":18781:18858   */\n    tag_402:\n        /* \"#utility.yul\":18884:18951   */\n      tag_403\n        /* \"#utility.yul\":18944:18950   */\n      dup6\n        /* \"#utility.yul\":18937:18942   */\n      dup3\n        /* \"#utility.yul\":18884:18951   */\n      tag_214\n      jump\t// in\n    tag_403:\n        /* \"#utility.yul\":18878:18882   */\n      dup7\n        /* \"#utility.yul\":18871:18952   */\n      sstore\n        /* \"#utility.yul\":18740:18962   */\n      pop\n        /* \"#utility.yul\":18075:18962   */\n      jump(tag_400)\n        /* \"#utility.yul\":18105:18723   */\n    tag_401:\n        /* \"#utility.yul\":18157:18161   */\n      0x1f\n        /* \"#utility.yul\":18153:18162   */\n      not\n        /* \"#utility.yul\":18145:18151   */\n      dup5\n        /* \"#utility.yul\":18141:18163   */\n      and\n        /* \"#utility.yul\":18191:18228   */\n      tag_404\n        /* \"#utility.yul\":18223:18227   */\n      dup7\n        /* \"#utility.yul\":18191:18228   */\n      tag_200\n      jump\t// in\n    tag_404:\n        /* \"#utility.yul\":18250:18251   */\n      0x00\n        /* \"#utility.yul\":18264:18472   */\n    tag_405:\n        /* \"#utility.yul\":18278:18285   */\n      dup3\n        /* \"#utility.yul\":18275:18276   */\n      dup2\n        /* \"#utility.yul\":18272:18286   */\n      lt\n        /* \"#utility.yul\":18264:18472   */\n      iszero\n      tag_407\n      jumpi\n        /* \"#utility.yul\":18357:18366   */\n      dup5\n        /* \"#utility.yul\":18352:18355   */\n      dup10\n        /* \"#utility.yul\":18348:18367   */\n      add\n        /* \"#utility.yul\":18342:18368   */\n      mload\n        /* \"#utility.yul\":18334:18340   */\n      dup3\n        /* \"#utility.yul\":18327:18369   */\n      sstore\n        /* \"#utility.yul\":18408:18409   */\n      0x01\n        /* \"#utility.yul\":18400:18406   */\n      dup3\n        /* \"#utility.yul\":18396:18410   */\n      add\n        /* \"#utility.yul\":18386:18410   */\n      swap2\n      pop\n        /* \"#utility.yul\":18455:18457   */\n      0x20\n        /* \"#utility.yul\":18444:18453   */\n      dup6\n        /* \"#utility.yul\":18440:18458   */\n      add\n        /* \"#utility.yul\":18427:18458   */\n      swap5\n      pop\n        /* \"#utility.yul\":18301:18305   */\n      0x20\n        /* \"#utility.yul\":18298:18299   */\n      dup2\n        /* \"#utility.yul\":18294:18306   */\n      add\n        /* \"#utility.yul\":18289:18306   */\n      swap1\n      pop\n        /* \"#utility.yul\":18264:18472   */\n      jump(tag_405)\n    tag_407:\n        /* \"#utility.yul\":18500:18506   */\n      dup7\n        /* \"#utility.yul\":18491:18498   */\n      dup4\n        /* \"#utility.yul\":18488:18507   */\n      lt\n        /* \"#utility.yul\":18485:18664   */\n      iszero\n      tag_408\n      jumpi\n        /* \"#utility.yul\":18558:18567   */\n      dup5\n        /* \"#utility.yul\":18553:18556   */\n      dup10\n        /* \"#utility.yul\":18549:18568   */\n      add\n        /* \"#utility.yul\":18543:18569   */\n      mload\n        /* \"#utility.yul\":18601:18649   */\n      tag_409\n        /* \"#utility.yul\":18643:18647   */\n      0x1f\n        /* \"#utility.yul\":18635:18641   */\n      dup10\n        /* \"#utility.yul\":18631:18648   */\n      and\n        /* \"#utility.yul\":18620:18629   */\n      dup3\n        /* \"#utility.yul\":18601:18649   */\n      tag_213\n      jump\t// in\n    tag_409:\n        /* \"#utility.yul\":18593:18599   */\n      dup4\n        /* \"#utility.yul\":18586:18650   */\n      sstore\n        /* \"#utility.yul\":18508:18664   */\n      pop\n        /* \"#utility.yul\":18485:18664   */\n    tag_408:\n        /* \"#utility.yul\":18710:18711   */\n      0x01\n        /* \"#utility.yul\":18706:18707   */\n      0x02\n        /* \"#utility.yul\":18698:18704   */\n      dup9\n        /* \"#utility.yul\":18694:18708   */\n      mul\n        /* \"#utility.yul\":18690:18712   */\n      add\n        /* \"#utility.yul\":18684:18688   */\n      dup9\n        /* \"#utility.yul\":18677:18713   */\n      sstore\n        /* \"#utility.yul\":18112:18723   */\n      pop\n      pop\n      pop\n        /* \"#utility.yul\":18075:18962   */\n    tag_400:\n      pop\n        /* \"#utility.yul\":17665:18968   */\n      pop\n      pop\n      pop\n        /* \"#utility.yul\":17573:18968   */\n      pop\n      pop\n      jump\t// out\n        /* \"#utility.yul\":18974:19203   */\n    tag_215:\n        /* \"#utility.yul\":19114:19148   */\n      0x4170706c6963616e7420776974682074686520676976656e20494420646f6573\n        /* \"#utility.yul\":19110:19111   */\n      0x00\n        /* \"#utility.yul\":19102:19108   */\n      dup3\n        /* \"#utility.yul\":19098:19112   */\n      add\n        /* \"#utility.yul\":19091:19149   */\n      mstore\n        /* \"#utility.yul\":19183:19195   */\n      0x206e6f7420657869737400000000000000000000000000000000000000000000\n        /* \"#utility.yul\":19178:19180   */\n      0x20\n        /* \"#utility.yul\":19170:19176   */\n      dup3\n        /* \"#utility.yul\":19166:19181   */\n      add\n        /* \"#utility.yul\":19159:19196   */\n      mstore\n        /* \"#utility.yul\":18974:19203   */\n      pop\n      jump\t// out\n        /* \"#utility.yul\":19209:19575   */\n    tag_216:\n        /* \"#utility.yul\":19351:19354   */\n      0x00\n        /* \"#utility.yul\":19372:19439   */\n      tag_412\n        /* \"#utility.yul\":19436:19438   */\n      0x2a\n        /* \"#utility.yul\":19431:19434   */\n      dup4\n        /* \"#utility.yul\":19372:19439   */\n      tag_184\n      jump\t// in\n    tag_412:\n        /* \"#utility.yul\":19365:19439   */\n      swap2\n      pop\n        /* \"#utility.yul\":19448:19541   */\n      tag_413\n        /* \"#utility.yul\":19537:19540   */\n      dup3\n        /* \"#utility.yul\":19448:19541   */\n      tag_215\n      jump\t// in\n    tag_413:\n        /* \"#utility.yul\":19566:19568   */\n      0x40\n        /* \"#utility.yul\":19561:19564   */\n      dup3\n        /* \"#utility.yul\":19557:19569   */\n      add\n        /* \"#utility.yul\":19550:19569   */\n      swap1\n      pop\n        /* \"#utility.yul\":19209:19575   */\n      swap2\n      swap1\n      pop\n      jump\t// out\n        /* \"#utility.yul\":19581:20000   */\n    tag_82:\n        /* \"#utility.yul\":19747:19751   */\n      0x00\n        /* \"#utility.yul\":19785:19787   */\n      0x20\n        /* \"#utility.yul\":19774:19783   */\n      dup3\n        /* \"#utility.yul\":19770:19788   */\n      add\n        /* \"#utility.yul\":19762:19788   */\n      swap1\n      pop\n        /* \"#utility.yul\":19834:19843   */\n      dup2\n        /* \"#utility.yul\":19828:19832   */\n      dup2\n        /* \"#utility.yul\":19824:19844   */\n      sub\n        /* \"#utility.yul\":19820:19821   */\n      0x00\n        /* \"#utility.yul\":19809:19818   */\n      dup4\n        /* \"#utility.yul\":19805:19822   */\n      add\n        /* \"#utility.yul\":19798:19845   */\n      mstore\n        /* \"#utility.yul\":19862:19993   */\n      tag_415\n        /* \"#utility.yul\":19988:19992   */\n      dup2\n        /* \"#utility.yul\":19862:19993   */\n      tag_216\n      jump\t// in\n    tag_415:\n        /* \"#utility.yul\":19854:19993   */\n      swap1\n      pop\n        /* \"#utility.yul\":19581:20000   */\n      swap2\n      swap1\n      pop\n      jump\t// out\n        /* \"#utility.yul\":20006:20231   */\n    tag_217:\n        /* \"#utility.yul\":20146:20180   */\n      0x4a6f6220776974682074686520676976656e206e616d6520646f6573206e6f74\n        /* \"#utility.yul\":20142:20143   */\n      0x00\n        /* \"#utility.yul\":20134:20140   */\n      dup3\n        /* \"#utility.yul\":20130:20144   */\n      add\n        /* \"#utility.yul\":20123:20181   */\n      mstore\n        /* \"#utility.yul\":20215:20223   */\n      0x2065786973740000000000000000000000000000000000000000000000000000\n        /* \"#utility.yul\":20210:20212   */\n      0x20\n        /* \"#utility.yul\":20202:20208   */\n      dup3\n        /* \"#utility.yul\":20198:20213   */\n      add\n        /* \"#utility.yul\":20191:20224   */\n      mstore\n        /* \"#utility.yul\":20006:20231   */\n      pop\n      jump\t// out\n        /* \"#utility.yul\":20237:20603   */\n    tag_218:\n        /* \"#utility.yul\":20379:20382   */\n      0x00\n        /* \"#utility.yul\":20400:20467   */\n      tag_418\n        /* \"#utility.yul\":20464:20466   */\n      0x26\n        /* \"#utility.yul\":20459:20462   */\n      dup4\n        /* \"#utility.yul\":20400:20467   */\n      tag_184\n      jump\t// in\n    tag_418:\n        /* \"#utility.yul\":20393:20467   */\n      swap2\n      pop\n        /* \"#utility.yul\":20476:20569   */\n      tag_419\n        /* \"#utility.yul\":20565:20568   */\n      dup3\n        /* \"#utility.yul\":20476:20569   */\n      tag_217\n      jump\t// in\n    tag_419:\n        /* \"#utility.yul\":20594:20596   */\n      0x40\n        /* \"#utility.yul\":20589:20592   */\n      dup3\n        /* \"#utility.yul\":20585:20597   */\n      add\n        /* \"#utility.yul\":20578:20597   */\n      swap1\n      pop\n        /* \"#utility.yul\":20237:20603   */\n      swap2\n      swap1\n      pop\n      jump\t// out\n        /* \"#utility.yul\":20609:21028   */\n    tag_101:\n        /* \"#utility.yul\":20775:20779   */\n      0x00\n        /* \"#utility.yul\":20813:20815   */\n      0x20\n        /* \"#utility.yul\":20802:20811   */\n      dup3\n        /* \"#utility.yul\":20798:20816   */\n      add\n        /* \"#utility.yul\":20790:20816   */\n      swap1\n      pop\n        /* \"#utility.yul\":20862:20871   */\n      dup2\n        /* \"#utility.yul\":20856:20860   */\n      dup2\n        /* \"#utility.yul\":20852:20872   */\n      sub\n        /* \"#utility.yul\":20848:20849   */\n      0x00\n        /* \"#utility.yul\":20837:20846   */\n      dup4\n        /* \"#utility.yul\":20833:20850   */\n      add\n        /* \"#utility.yul\":20826:20873   */\n      mstore\n        /* \"#utility.yul\":20890:21021   */\n      tag_421\n        /* \"#utility.yul\":21016:21020   */\n      dup2\n        /* \"#utility.yul\":20890:21021   */\n      tag_218\n      jump\t// in\n    tag_421:\n        /* \"#utility.yul\":20882:21021   */\n      swap1\n      pop\n        /* \"#utility.yul\":20609:21028   */\n      swap2\n      swap1\n      pop\n      jump\t// out\n        /* \"#utility.yul\":21034:21214   */\n    tag_219:\n        /* \"#utility.yul\":21082:21159   */\n      0x4e487b7100000000000000000000000000000000000000000000000000000000\n        /* \"#utility.yul\":21079:21080   */\n      0x00\n        /* \"#utility.yul\":21072:21160   */\n      mstore\n        /* \"#utility.yul\":21179:21183   */\n      0x11\n        /* \"#utility.yul\":21176:21177   */\n      0x04\n        /* \"#utility.yul\":21169:21184   */\n      mstore\n        /* \"#utility.yul\":21203:21207   */\n      0x24\n        /* \"#utility.yul\":21200:21201   */\n      0x00\n        /* \"#utility.yul\":21193:21208   */\n      revert\n        /* \"#utility.yul\":21220:21453   */\n    tag_104:\n        /* \"#utility.yul\":21259:21262   */\n      0x00\n        /* \"#utility.yul\":21282:21306   */\n      tag_424\n        /* \"#utility.yul\":21300:21305   */\n      dup3\n        /* \"#utility.yul\":21282:21306   */\n      tag_179\n      jump\t// in\n    tag_424:\n        /* \"#utility.yul\":21273:21306   */\n      swap2\n      pop\n        /* \"#utility.yul\":21328:21394   */\n      0xffffffffffffffffffffffffffffffffffffffffffffffffffffffffffffffff\n        /* \"#utility.yul\":21321:21326   */\n      dup3\n        /* \"#utility.yul\":21318:21395   */\n      sub\n        /* \"#utility.yul\":21315:21418   */\n      tag_425\n      jumpi\n        /* \"#utility.yul\":21398:21416   */\n      tag_426\n      tag_219\n      jump\t// in\n    tag_426:\n        /* \"#utility.yul\":21315:21418   */\n    tag_425:\n        /* \"#utility.yul\":21445:21446   */\n      0x01\n        /* \"#utility.yul\":21438:21443   */\n      dup3\n        /* \"#utility.yul\":21434:21447   */\n      add\n        /* \"#utility.yul\":21427:21447   */\n      swap1\n      pop\n        /* \"#utility.yul\":21220:21453   */\n      swap2\n      swap1\n      pop\n      jump\t// out\n        /* \"#utility.yul\":21459:21693   */\n    tag_220:\n        /* \"#utility.yul\":21599:21633   */\n      0x496e76616c696420726174696e672e20526174696e6773206d75737420626520\n        /* \"#utility.yul\":21595:21596   */\n      0x00\n        /* \"#utility.yul\":21587:21593   */\n      dup3\n        /* \"#utility.yul\":21583:21597   */\n      add\n        /* \"#utility.yul\":21576:21634   */\n      mstore\n        /* \"#utility.yul\":21668:21685   */\n      0x6265747765656e203120616e6420350000000000000000000000000000000000\n        /* \"#utility.yul\":21663:21665   */\n      0x20\n        /* \"#utility.yul\":21655:21661   */\n      dup3\n        /* \"#utility.yul\":21651:21666   */\n      add\n        /* \"#utility.yul\":21644:21686   */\n      mstore\n        /* \"#utility.yul\":21459:21693   */\n      pop\n      jump\t// out\n        /* \"#utility.yul\":21699:22065   */\n    tag_221:\n        /* \"#utility.yul\":21841:21844   */\n      0x00\n        /* \"#utility.yul\":21862:21929   */\n      tag_429\n        /* \"#utility.yul\":21926:21928   */\n      0x2f\n        /* \"#utility.yul\":21921:21924   */\n      dup4\n        /* \"#utility.yul\":21862:21929   */\n      tag_184\n      jump\t// in\n    tag_429:\n        /* \"#utility.yul\":21855:21929   */\n      swap2\n      pop\n        /* \"#utility.yul\":21938:22031   */\n      tag_430\n        /* \"#utility.yul\":22027:22030   */\n      dup3\n        /* \"#utility.yul\":21938:22031   */\n      tag_220\n      jump\t// in\n    tag_430:\n        /* \"#utility.yul\":22056:22058   */\n      0x40\n        /* \"#utility.yul\":22051:22054   */\n      dup3\n        /* \"#utility.yul\":22047:22059   */\n      add\n        /* \"#utility.yul\":22040:22059   */\n      swap1\n      pop\n        /* \"#utility.yul\":21699:22065   */\n      swap2\n      swap1\n      pop\n      jump\t// out\n        /* \"#utility.yul\":22071:22490   */\n    tag_129:\n        /* \"#utility.yul\":22237:22241   */\n      0x00\n        /* \"#utility.yul\":22275:22277   */\n      0x20\n        /* \"#utility.yul\":22264:22273   */\n      dup3\n        /* \"#utility.yul\":22260:22278   */\n      add\n        /* \"#utility.yul\":22252:22278   */\n      swap1\n      pop\n        /* \"#utility.yul\":22324:22333   */\n      dup2\n        /* \"#utility.yul\":22318:22322   */\n      dup2\n        /* \"#utility.yul\":22314:22334   */\n      sub\n        /* \"#utility.yul\":22310:22311   */\n      0x00\n        /* \"#utility.yul\":22299:22308   */\n      dup4\n        /* \"#utility.yul\":22295:22312   */\n      add\n        /* \"#utility.yul\":22288:22335   */\n      mstore\n        /* \"#utility.yul\":22352:22483   */\n      tag_432\n        /* \"#utility.yul\":22478:22482   */\n      dup2\n        /* \"#utility.yul\":22352:22483   */\n      tag_221\n      jump\t// in\n    tag_432:\n        /* \"#utility.yul\":22344:22483   */\n      swap1\n      pop\n        /* \"#utility.yul\":22071:22490   */\n      swap2\n      swap1\n      pop\n      jump\t// out\n        /* \"#utility.yul\":22496:22676   */\n    tag_222:\n        /* \"#utility.yul\":22544:22621   */\n      0x4e487b7100000000000000000000000000000000000000000000000000000000\n        /* \"#utility.yul\":22541:22542   */\n      0x00\n        /* \"#utility.yul\":22534:22622   */\n      mstore\n        /* \"#utility.yul\":22641:22645   */\n      0x12\n        /* \"#utility.yul\":22638:22639   */\n      0x04\n        /* \"#utility.yul\":22631:22646   */\n      mstore\n        /* \"#utility.yul\":22665:22669   */\n      0x24\n        /* \"#utility.yul\":22662:22663   */\n      0x00\n        /* \"#utility.yul\":22655:22670   */\n      revert\n        /* \"#utility.yul\":22682:22858   */\n    tag_142:\n        /* \"#utility.yul\":22714:22715   */\n      0x00\n        /* \"#utility.yul\":22731:22751   */\n      tag_435\n        /* \"#utility.yul\":22749:22750   */\n      dup3\n        /* \"#utility.yul\":22731:22751   */\n      tag_179\n      jump\t// in\n    tag_435:\n        /* \"#utility.yul\":22726:22751   */\n      swap2\n      pop\n        /* \"#utility.yul\":22765:22785   */\n      tag_436\n        /* \"#utility.yul\":22783:22784   */\n      dup4\n        /* \"#utility.yul\":22765:22785   */\n      tag_179\n      jump\t// in\n    tag_436:\n        /* \"#utility.yul\":22760:22785   */\n      swap3\n      pop\n        /* \"#utility.yul\":22804:22805   */\n      dup3\n        /* \"#utility.yul\":22794:22829   */\n      tag_437\n      jumpi\n        /* \"#utility.yul\":22809:22827   */\n      tag_438\n      tag_222\n      jump\t// in\n    tag_438:\n        /* \"#utility.yul\":22794:22829   */\n    tag_437:\n        /* \"#utility.yul\":22850:22851   */\n      dup3\n        /* \"#utility.yul\":22847:22848   */\n      dup3\n        /* \"#utility.yul\":22843:22852   */\n      mod\n        /* \"#utility.yul\":22838:22852   */\n      swap1\n      pop\n        /* \"#utility.yul\":22682:22858   */\n      swap3\n      swap2\n      pop\n      pop\n      jump\t// out\n\n    auxdata: 0xa26469706673582212207a869dd9e1774ca7bf5c0354b63977ad15b8d337e1a2c76bf13940bc6859997164736f6c634300081e0033\n}\n",
				"bytecode": {
					"linkReferences": {},
					"object": "6080604052348015600e575f5ffd5b50335f5f6101000a81548173ffffffffffffffffffffffffffffffffffffffff021916908373ffffffffffffffffffffffffffffffffffffffff160217905550611a098061005b5f395ff3fe608060405234801561000f575f5ffd5b50600436106100b2575f3560e01c806389fb13521161006f57806389fb13521461019f578063b05e6f5a146101bb578063d280267d146101ee578063e90ca7471461021e578063f851a4401461024e578063fcb079c01461026c576100b2565b806312bfabf6146100b65780632dd5afd5146100d2578063419392101461010257806363de5323146101205780636c09a5e3146101535780638798a47b1461016f575b5f5ffd5b6100d060048036038101906100cb9190610f66565b610288565b005b6100ec60048036038101906100e79190610fee565b61039b565b6040516100f99190611028565b60405180910390f35b61010a6103fd565b6040516101179190611028565b60405180910390f35b61013a60048036038101906101359190610fee565b610403565b60405161014a94939291906110a1565b60405180910390f35b61016d600480360381019061016891906110f2565b61053b565b005b61018960048036038101906101849190610fee565b610628565b604051610196919061120a565b60405180910390f35b6101b960048036038101906101b4919061122a565b6107cb565b005b6101d560048036038101906101d09190611268565b61090c565b6040516101e594939291906110a1565b60405180910390f35b61020860048036038101906102039190610fee565b610a5c565b60405161021591906112af565b60405180910390f35b61023860048036038101906102339190611268565b610aec565b6040516102459190611336565b60405180910390f35b610256610c57565b6040516102639190611395565b60405180910390f35b61028660048036038101906102819190610f66565b610c7b565b005b5f5f9054906101000a900473ffffffffffffffffffffffffffffffffffffffff1673ffffffffffffffffffffffffffffffffffffffff163373ffffffffffffffffffffffffffffffffffffffff1614610316576040517f08c379a000000000000000000000000000000000000000000000000000000000815260040161030d9061141e565b60405180910390fd5b60405180608001604052808481526020018381526020018281526020015f8152506003846040516103479190611476565b90815260200160405180910390205f820151815f0190816103689190611689565b506020820151816001015560408201518160020190816103889190611689565b5060608201518160030155905050505050565b5f6002548211156103e1576040517f08c379a00000000000000000000000000000000000000000000000000000000081526004016103d8906117c8565b60405180910390fd5b60015f8381526020019081526020015f20600301549050919050565b60025481565b6001602052805f5260405f205f91509050805f018054610422906114b9565b80601f016020809104026020016040519081016040528092919081815260200182805461044e906114b9565b80156104995780601f1061047057610100808354040283529160200191610499565b820191905f5260205f20905b81548152906001019060200180831161047c57829003601f168201915b5050505050908060010154908060020180546104b4906114b9565b80601f01602080910402602001604051908101604052809291908181526020018280546104e0906114b9565b801561052b5780601f106105025761010080835404028352916020019161052b565b820191905f5260205f20905b81548152906001019060200180831161050e57829003601f168201915b5050505050908060030154905084565b600254821115610580576040517f08c379a0000000000000000000000000000000000000000000000000000000008152600401610577906117c8565b60405180910390fd5b5f6003826040516105919190611476565b90815260200160405180910390205f0180546105ac906114b9565b9050036105ee576040517f08c379a00000000000000000000000000000000000000000000000000000000081526004016105e590611856565b60405180910390fd5b6003816040516105fe9190611476565b90815260200160405180910390206003015f81548092919061061f906118a1565b91905055505050565b610630610d9a565b600254821115610675576040517f08c379a000000000000000000000000000000000000000000000000000000000815260040161066c906117c8565b60405180910390fd5b60015f8381526020019081526020015f206040518060800160405290815f820180546106a0906114b9565b80601f01602080910402602001604051908101604052809291908181526020018280546106cc906114b9565b80156107175780601f106106ee57610100808354040283529160200191610717565b820191905f5260205f20905b8154815290600101906020018083116106fa57829003601f168201915b505050505081526020016001820154815260200160028201805461073a906114b9565b80601f0160208091040260200160405190810160405280929190818152602001828054610766906114b9565b80156107b15780601f10610788576101008083540402835291602001916107b1565b820191905f5260205f20905b81548152906001019060200180831161079457829003601f168201915b505050505081526020016003820154815250509050919050565b5f5f9054906101000a900473ffffffffffffffffffffffffffffffffffffffff1673ffffffffffffffffffffffffffffffffffffffff163373ffffffffffffffffffffffffffffffffffffffff1614610859576040517f08c379a00000000000000000000000000000000000000000000000000000000081526004016108509061141e565b60405180910390fd5b60025482111561089e576040517f08c379a0000000000000000000000000000000000000000000000000000000008152600401610895906117c8565b60405180910390fd5b600181101580156108b0575060058111155b6108ef576040517f08c379a00000000000000000000000000000000000000000000000000000000081526004016108e690611958565b60405180910390fd5b8060015f8481526020019081526020015f20600301819055505050565b6003818051602081018201805184825260208301602085012081835280955050505050505f91509050805f018054610943906114b9565b80601f016020809104026020016040519081016040528092919081815260200182805461096f906114b9565b80156109ba5780601f10610991576101008083540402835291602001916109ba565b820191905f5260205f20905b81548152906001019060200180831161099d57829003601f168201915b5050505050908060010154908060020180546109d5906114b9565b80601f0160208091040260200160405190810160405280929190818152602001828054610a01906114b9565b8015610a4c5780601f10610a2357610100808354040283529160200191610a4c565b820191905f5260205f20905b815481529060010190602001808311610a2f57829003601f168201915b5050505050908060030154905084565b60605f600283610a6c91906119a3565b03610aae576040518060400160405280600681526020017f54797065204100000000000000000000000000000000000000000000000000008152509050610ae7565b6040518060400160405280600681526020017f547970652042000000000000000000000000000000000000000000000000000081525090505b919050565b610af4610dc0565b600382604051610b049190611476565b90815260200160405180910390206040518060800160405290815f82018054610b2c906114b9565b80601f0160208091040260200160405190810160405280929190818152602001828054610b58906114b9565b8015610ba35780601f10610b7a57610100808354040283529160200191610ba3565b820191905f5260205f20905b815481529060010190602001808311610b8657829003601f168201915b5050505050815260200160018201548152602001600282018054610bc6906114b9565b80601f0160208091040260200160405190810160405280929190818152602001828054610bf2906114b9565b8015610c3d5780601f10610c1457610100808354040283529160200191610c3d565b820191905f5260205f20905b815481529060010190602001808311610c2057829003601f168201915b505050505081526020016003820154815250509050919050565b5f5f9054906101000a900473ffffffffffffffffffffffffffffffffffffffff1681565b5f5f9054906101000a900473ffffffffffffffffffffffffffffffffffffffff1673ffffffffffffffffffffffffffffffffffffffff163373ffffffffffffffffffffffffffffffffffffffff1614610d09576040517f08c379a0000000000000000000000000000000000000000000000000000000008152600401610d009061141e565b60405180910390fd5b60025f815480929190610d1b906118a1565b919050555060405180608001604052808481526020018381526020018281526020015f81525060015f60025481526020019081526020015f205f820151815f019081610d679190611689565b50602082015181600101556040820151816002019081610d879190611689565b5060608201518160030155905050505050565b6040518060800160405280606081526020015f8152602001606081526020015f81525090565b6040518060800160405280606081526020015f8152602001606081526020015f81525090565b5f604051905090565b5f5ffd5b5f5ffd5b5f5ffd5b5f5ffd5b5f601f19601f8301169050919050565b7f4e487b71000000000000000000000000000000000000000000000000000000005f52604160045260245ffd5b610e4582610dff565b810181811067ffffffffffffffff82111715610e6457610e63610e0f565b5b80604052505050565b5f610e76610de6565b9050610e828282610e3c565b919050565b5f67ffffffffffffffff821115610ea157610ea0610e0f565b5b610eaa82610dff565b9050602081019050919050565b828183375f83830152505050565b5f610ed7610ed284610e87565b610e6d565b905082815260208101848484011115610ef357610ef2610dfb565b5b610efe848285610eb7565b509392505050565b5f82601f830112610f1a57610f19610df7565b5b8135610f2a848260208601610ec5565b91505092915050565b5f819050919050565b610f4581610f33565b8114610f4f575f5ffd5b50565b5f81359050610f6081610f3c565b92915050565b5f5f5f60608486031215610f7d57610f7c610def565b5b5f84013567ffffffffffffffff811115610f9a57610f99610df3565b5b610fa686828701610f06565b9350506020610fb786828701610f52565b925050604084013567ffffffffffffffff811115610fd857610fd7610df3565b5b610fe486828701610f06565b9150509250925092565b5f6020828403121561100357611002610def565b5b5f61101084828501610f52565b91505092915050565b61102281610f33565b82525050565b5f60208201905061103b5f830184611019565b92915050565b5f81519050919050565b5f82825260208201905092915050565b8281835e5f83830152505050565b5f61107382611041565b61107d818561104b565b935061108d81856020860161105b565b61109681610dff565b840191505092915050565b5f6080820190508181035f8301526110b98187611069565b90506110c86020830186611019565b81810360408301526110da8185611069565b90506110e96060830184611019565b95945050505050565b5f5f6040838503121561110857611107610def565b5b5f61111585828601610f52565b925050602083013567ffffffffffffffff81111561113657611135610df3565b5b61114285828601610f06565b9150509250929050565b5f82825260208201905092915050565b5f61116682611041565b611170818561114c565b935061118081856020860161105b565b61118981610dff565b840191505092915050565b61119d81610f33565b82525050565b5f608083015f8301518482035f8601526111bd828261115c565b91505060208301516111d26020860182611194565b50604083015184820360408601526111ea828261115c565b91505060608301516111ff6060860182611194565b508091505092915050565b5f6020820190508181035f83015261122281846111a3565b905092915050565b5f5f604083850312156112405761123f610def565b5b5f61124d85828601610f52565b925050602061125e85828601610f52565b9150509250929050565b5f6020828403121561127d5761127c610def565b5b5f82013567ffffffffffffffff81111561129a57611299610df3565b5b6112a684828501610f06565b91505092915050565b5f6020820190508181035f8301526112c78184611069565b905092915050565b5f608083015f8301518482035f8601526112e9828261115c565b91505060208301516112fe6020860182611194565b5060408301518482036040860152611316828261115c565b915050606083015161132b6060860182611194565b508091505092915050565b5f6020820190508181035f83015261134e81846112cf565b905092915050565b5f73ffffffffffffffffffffffffffffffffffffffff82169050919050565b5f61137f82611356565b9050919050565b61138f81611375565b82525050565b5f6020820190506113a85f830184611386565b92915050565b7f6f6e6c792061646d696e2063616e20706572666f726d2074686973206f7065725f8201527f6174696f6e000000000000000000000000000000000000000000000000000000602082015250565b5f61140860258361104b565b9150611413826113ae565b604082019050919050565b5f6020820190508181035f830152611435816113fc565b9050919050565b5f81905092915050565b5f61145082611041565b61145a818561143c565b935061146a81856020860161105b565b80840191505092915050565b5f6114818284611446565b915081905092915050565b7f4e487b71000000000000000000000000000000000000000000000000000000005f52602260045260245ffd5b5f60028204905060018216806114d057607f821691505b6020821081036114e3576114e261148c565b5b50919050565b5f819050815f5260205f209050919050565b5f6020601f8301049050919050565b5f82821b905092915050565b5f600883026115457fffffffffffffffffffffffffffffffffffffffffffffffffffffffffffffffff8261150a565b61154f868361150a565b95508019841693508086168417925050509392505050565b5f819050919050565b5f61158a61158561158084610f33565b611567565b610f33565b9050919050565b5f819050919050565b6115a383611570565b6115b76115af82611591565b848454611516565b825550505050565b5f5f905090565b6115ce6115bf565b6115d981848461159a565b505050565b5b818110156115fc576115f15f826115c6565b6001810190506115df565b5050565b601f82111561164157611612816114e9565b61161b846114fb565b8101602085101561162a578190505b61163e611636856114fb565b8301826115de565b50505b505050565b5f82821c905092915050565b5f6116615f1984600802611646565b1980831691505092915050565b5f6116798383611652565b9150826002028217905092915050565b61169282611041565b67ffffffffffffffff8111156116ab576116aa610e0f565b5b6116b582546114b9565b6116c0828285611600565b5f60209050601f8311600181146116f1575f84156116df578287015190505b6116e9858261166e565b865550611750565b601f1984166116ff866114e9565b5f5b8281101561172657848901518255600182019150602085019450602081019050611701565b86831015611743578489015161173f601f891682611652565b8355505b6001600288020188555050505b505050505050565b7f4170706c6963616e7420776974682074686520676976656e20494420646f65735f8201527f206e6f7420657869737400000000000000000000000000000000000000000000602082015250565b5f6117b2602a8361104b565b91506117bd82611758565b604082019050919050565b5f6020820190508181035f8301526117df816117a6565b9050919050565b7f4a6f6220776974682074686520676976656e206e616d6520646f6573206e6f745f8201527f2065786973740000000000000000000000000000000000000000000000000000602082015250565b5f61184060268361104b565b915061184b826117e6565b604082019050919050565b5f6020820190508181035f83015261186d81611834565b9050919050565b7f4e487b71000000000000000000000000000000000000000000000000000000005f52601160045260245ffd5b5f6118ab82610f33565b91507fffffffffffffffffffffffffffffffffffffffffffffffffffffffffffffffff82036118dd576118dc611874565b5b600182019050919050565b7f496e76616c696420726174696e672e20526174696e6773206d757374206265205f8201527f6265747765656e203120616e6420350000000000000000000000000000000000602082015250565b5f611942602f8361104b565b915061194d826118e8565b604082019050919050565b5f6020820190508181035f83015261196f81611936565b9050919050565b7f4e487b71000000000000000000000000000000000000000000000000000000005f52601260045260245ffd5b5f6119ad82610f33565b91506119b883610f33565b9250826119c8576119c7611976565b5b82820690509291505056fea26469706673582212207a869dd9e1774ca7bf5c0354b63977ad15b8d337e1a2c76bf13940bc6859997164736f6c634300081e0033",
					"opcodes": "PUSH1 0x80 PUSH1 0x40 MSTORE CALLVALUE DUP1 ISZERO PUSH1 0xE JUMPI PUSH0 PUSH0 REVERT JUMPDEST POP CALLER PUSH0 PUSH0 PUSH2 0x100 EXP DUP2 SLOAD DUP2 PUSH20 0xFFFFFFFFFFFFFFFFFFFFFFFFFFFFFFFFFFFFFFFF MUL NOT AND SWAP1 DUP4 PUSH20 0xFFFFFFFFFFFFFFFFFFFFFFFFFFFFFFFFFFFFFFFF AND MUL OR SWAP1 SSTORE POP PUSH2 0x1A09 DUP1 PUSH2 0x5B PUSH0 CODECOPY PUSH0 RETURN INVALID PUSH1 0x80 PUSH1 0x40 MSTORE CALLVALUE DUP1 ISZERO PUSH2 0xF JUMPI PUSH0 PUSH0 REVERT JUMPDEST POP PUSH1 0x4 CALLDATASIZE LT PUSH2 0xB2 JUMPI PUSH0 CALLDATALOAD PUSH1 0xE0 SHR DUP1 PUSH4 0x89FB1352 GT PUSH2 0x6F JUMPI DUP1 PUSH4 0x89FB1352 EQ PUSH2 0x19F JUMPI DUP1 PUSH4 0xB05E6F5A EQ PUSH2 0x1BB JUMPI DUP1 PUSH4 0xD280267D EQ PUSH2 0x1EE JUMPI DUP1 PUSH4 0xE90CA747 EQ PUSH2 0x21E JUMPI DUP1 PUSH4 0xF851A440 EQ PUSH2 0x24E JUMPI DUP1 PUSH4 0xFCB079C0 EQ PUSH2 0x26C JUMPI PUSH2 0xB2 JUMP JUMPDEST DUP1 PUSH4 0x12BFABF6 EQ PUSH2 0xB6 JUMPI DUP1 PUSH4 0x2DD5AFD5 EQ PUSH2 0xD2 JUMPI DUP1 PUSH4 0x41939210 EQ PUSH2 0x102 JUMPI DUP1 PUSH4 0x63DE5323 EQ PUSH2 0x120 JUMPI DUP1 PUSH4 0x6C09A5E3 EQ PUSH2 0x153 JUMPI DUP1 PUSH4 0x8798A47B EQ PUSH2 0x16F JUMPI JUMPDEST PUSH0 PUSH0 REVERT JUMPDEST PUSH2 0xD0 PUSH1 0x4 DUP1 CALLDATASIZE SUB DUP2 ADD SWAP1 PUSH2 0xCB SWAP2 SWAP1 PUSH2 0xF66 JUMP JUMPDEST PUSH2 0x288 JUMP JUMPDEST STOP JUMPDEST PUSH2 0xEC PUSH1 0x4 DUP1 CALLDATASIZE SUB DUP2 ADD SWAP1 PUSH2 0xE7 SWAP2 SWAP1 PUSH2 0xFEE JUMP JUMPDEST PUSH2 0x39B JUMP JUMPDEST PUSH1 0x40 MLOAD PUSH2 0xF9 SWAP2 SWAP1 PUSH2 0x1028 JUMP JUMPDEST PUSH1 0x40 MLOAD DUP1 SWAP2 SUB SWAP1 RETURN JUMPDEST PUSH2 0x10A PUSH2 0x3FD JUMP JUMPDEST PUSH1 0x40 MLOAD PUSH2 0x117 SWAP2 SWAP1 PUSH2 0x1028 JUMP JUMPDEST PUSH1 0x40 MLOAD DUP1 SWAP2 SUB SWAP1 RETURN JUMPDEST PUSH2 0x13A PUSH1 0x4 DUP1 CALLDATASIZE SUB DUP2 ADD SWAP1 PUSH2 0x135 SWAP2 SWAP1 PUSH2 0xFEE JUMP JUMPDEST PUSH2 0x403 JUMP JUMPDEST PUSH1 0x40 MLOAD PUSH2 0x14A SWAP5 SWAP4 SWAP3 SWAP2 SWAP1 PUSH2 0x10A1 JUMP JUMPDEST PUSH1 0x40 MLOAD DUP1 SWAP2 SUB SWAP1 RETURN JUMPDEST PUSH2 0x16D PUSH1 0x4 DUP1 CALLDATASIZE SUB DUP2 ADD SWAP1 PUSH2 0x168 SWAP2 SWAP1 PUSH2 0x10F2 JUMP JUMPDEST PUSH2 0x53B JUMP JUMPDEST STOP JUMPDEST PUSH2 0x189 PUSH1 0x4 DUP1 CALLDATASIZE SUB DUP2 ADD SWAP1 PUSH2 0x184 SWAP2 SWAP1 PUSH2 0xFEE JUMP JUMPDEST PUSH2 0x628 JUMP JUMPDEST PUSH1 0x40 MLOAD PUSH2 0x196 SWAP2 SWAP1 PUSH2 0x120A JUMP JUMPDEST PUSH1 0x40 MLOAD DUP1 SWAP2 SUB SWAP1 RETURN JUMPDEST PUSH2 0x1B9 PUSH1 0x4 DUP1 CALLDATASIZE SUB DUP2 ADD SWAP1 PUSH2 0x1B4 SWAP2 SWAP1 PUSH2 0x122A JUMP JUMPDEST PUSH2 0x7CB JUMP JUMPDEST STOP JUMPDEST PUSH2 0x1D5 PUSH1 0x4 DUP1 CALLDATASIZE SUB DUP2 ADD SWAP1 PUSH2 0x1D0 SWAP2 SWAP1 PUSH2 0x1268 JUMP JUMPDEST PUSH2 0x90C JUMP JUMPDEST PUSH1 0x40 MLOAD PUSH2 0x1E5 SWAP5 SWAP4 SWAP3 SWAP2 SWAP1 PUSH2 0x10A1 JUMP JUMPDEST PUSH1 0x40 MLOAD DUP1 SWAP2 SUB SWAP1 RETURN JUMPDEST PUSH2 0x208 PUSH1 0x4 DUP1 CALLDATASIZE SUB DUP2 ADD SWAP1 PUSH2 0x203 SWAP2 SWAP1 PUSH2 0xFEE JUMP JUMPDEST PUSH2 0xA5C JUMP JUMPDEST PUSH1 0x40 MLOAD PUSH2 0x215 SWAP2 SWAP1 PUSH2 0x12AF JUMP JUMPDEST PUSH1 0x40 MLOAD DUP1 SWAP2 SUB SWAP1 RETURN JUMPDEST PUSH2 0x238 PUSH1 0x4 DUP1 CALLDATASIZE SUB DUP2 ADD SWAP1 PUSH2 0x233 SWAP2 SWAP1 PUSH2 0x1268 JUMP JUMPDEST PUSH2 0xAEC JUMP JUMPDEST PUSH1 0x40 MLOAD PUSH2 0x245 SWAP2 SWAP1 PUSH2 0x1336 JUMP JUMPDEST PUSH1 0x40 MLOAD DUP1 SWAP2 SUB SWAP1 RETURN JUMPDEST PUSH2 0x256 PUSH2 0xC57 JUMP JUMPDEST PUSH1 0x40 MLOAD PUSH2 0x263 SWAP2 SWAP1 PUSH2 0x1395 JUMP JUMPDEST PUSH1 0x40 MLOAD DUP1 SWAP2 SUB SWAP1 RETURN JUMPDEST PUSH2 0x286 PUSH1 0x4 DUP1 CALLDATASIZE SUB DUP2 ADD SWAP1 PUSH2 0x281 SWAP2 SWAP1 PUSH2 0xF66 JUMP JUMPDEST PUSH2 0xC7B JUMP JUMPDEST STOP JUMPDEST PUSH0 PUSH0 SWAP1 SLOAD SWAP1 PUSH2 0x100 EXP SWAP1 DIV PUSH20 0xFFFFFFFFFFFFFFFFFFFFFFFFFFFFFFFFFFFFFFFF AND PUSH20 0xFFFFFFFFFFFFFFFFFFFFFFFFFFFFFFFFFFFFFFFF AND CALLER PUSH20 0xFFFFFFFFFFFFFFFFFFFFFFFFFFFFFFFFFFFFFFFF AND EQ PUSH2 0x316 JUMPI PUSH1 0x40 MLOAD PUSH32 0x8C379A000000000000000000000000000000000000000000000000000000000 DUP2 MSTORE PUSH1 0x4 ADD PUSH2 0x30D SWAP1 PUSH2 0x141E JUMP JUMPDEST PUSH1 0x40 MLOAD DUP1 SWAP2 SUB SWAP1 REVERT JUMPDEST PUSH1 0x40 MLOAD DUP1 PUSH1 0x80 ADD PUSH1 0x40 MSTORE DUP1 DUP5 DUP2 MSTORE PUSH1 0x20 ADD DUP4 DUP2 MSTORE PUSH1 0x20 ADD DUP3 DUP2 MSTORE PUSH1 0x20 ADD PUSH0 DUP2 MSTORE POP PUSH1 0x3 DUP5 PUSH1 0x40 MLOAD PUSH2 0x347 SWAP2 SWAP1 PUSH2 0x1476 JUMP JUMPDEST SWAP1 DUP2 MSTORE PUSH1 0x20 ADD PUSH1 0x40 MLOAD DUP1 SWAP2 SUB SWAP1 KECCAK256 PUSH0 DUP3 ADD MLOAD DUP2 PUSH0 ADD SWAP1 DUP2 PUSH2 0x368 SWAP2 SWAP1 PUSH2 0x1689 JUMP JUMPDEST POP PUSH1 0x20 DUP3 ADD MLOAD DUP2 PUSH1 0x1 ADD SSTORE PUSH1 0x40 DUP3 ADD MLOAD DUP2 PUSH1 0x2 ADD SWAP1 DUP2 PUSH2 0x388 SWAP2 SWAP1 PUSH2 0x1689 JUMP JUMPDEST POP PUSH1 0x60 DUP3 ADD MLOAD DUP2 PUSH1 0x3 ADD SSTORE SWAP1 POP POP POP POP POP JUMP JUMPDEST PUSH0 PUSH1 0x2 SLOAD DUP3 GT ISZERO PUSH2 0x3E1 JUMPI PUSH1 0x40 MLOAD PUSH32 0x8C379A000000000000000000000000000000000000000000000000000000000 DUP2 MSTORE PUSH1 0x4 ADD PUSH2 0x3D8 SWAP1 PUSH2 0x17C8 JUMP JUMPDEST PUSH1 0x40 MLOAD DUP1 SWAP2 SUB SWAP1 REVERT JUMPDEST PUSH1 0x1 PUSH0 DUP4 DUP2 MSTORE PUSH1 0x20 ADD SWAP1 DUP2 MSTORE PUSH1 0x20 ADD PUSH0 KECCAK256 PUSH1 0x3 ADD SLOAD SWAP1 POP SWAP2 SWAP1 POP JUMP JUMPDEST PUSH1 0x2 SLOAD DUP2 JUMP JUMPDEST PUSH1 0x1 PUSH1 0x20 MSTORE DUP1 PUSH0 MSTORE PUSH1 0x40 PUSH0 KECCAK256 PUSH0 SWAP2 POP SWAP1 POP DUP1 PUSH0 ADD DUP1 SLOAD PUSH2 0x422 SWAP1 PUSH2 0x14B9 JUMP JUMPDEST DUP1 PUSH1 0x1F ADD PUSH1 0x20 DUP1 SWAP2 DIV MUL PUSH1 0x20 ADD PUSH1 0x40 MLOAD SWAP1 DUP2 ADD PUSH1 0x40 MSTORE DUP1 SWAP3 SWAP2 SWAP1 DUP2 DUP2 MSTORE PUSH1 0x20 ADD DUP3 DUP1 SLOAD PUSH2 0x44E SWAP1 PUSH2 0x14B9 JUMP JUMPDEST DUP1 ISZERO PUSH2 0x499 JUMPI DUP1 PUSH1 0x1F LT PUSH2 0x470 JUMPI PUSH2 0x100 DUP1 DUP4 SLOAD DIV MUL DUP4 MSTORE SWAP2 PUSH1 0x20 ADD SWAP2 PUSH2 0x499 JUMP JUMPDEST DUP3 ADD SWAP2 SWAP1 PUSH0 MSTORE PUSH1 0x20 PUSH0 KECCAK256 SWAP1 JUMPDEST DUP2 SLOAD DUP2 MSTORE SWAP1 PUSH1 0x1 ADD SWAP1 PUSH1 0x20 ADD DUP1 DUP4 GT PUSH2 0x47C JUMPI DUP3 SWAP1 SUB PUSH1 0x1F AND DUP3 ADD SWAP2 JUMPDEST POP POP POP POP POP SWAP1 DUP1 PUSH1 0x1 ADD SLOAD SWAP1 DUP1 PUSH1 0x2 ADD DUP1 SLOAD PUSH2 0x4B4 SWAP1 PUSH2 0x14B9 JUMP JUMPDEST DUP1 PUSH1 0x1F ADD PUSH1 0x20 DUP1 SWAP2 DIV MUL PUSH1 0x20 ADD PUSH1 0x40 MLOAD SWAP1 DUP2 ADD PUSH1 0x40 MSTORE DUP1 SWAP3 SWAP2 SWAP1 DUP2 DUP2 MSTORE PUSH1 0x20 ADD DUP3 DUP1 SLOAD PUSH2 0x4E0 SWAP1 PUSH2 0x14B9 JUMP JUMPDEST DUP1 ISZERO PUSH2 0x52B JUMPI DUP1 PUSH1 0x1F LT PUSH2 0x502 JUMPI PUSH2 0x100 DUP1 DUP4 SLOAD DIV MUL DUP4 MSTORE SWAP2 PUSH1 0x20 ADD SWAP2 PUSH2 0x52B JUMP JUMPDEST DUP3 ADD SWAP2 SWAP1 PUSH0 MSTORE PUSH1 0x20 PUSH0 KECCAK256 SWAP1 JUMPDEST DUP2 SLOAD DUP2 MSTORE SWAP1 PUSH1 0x1 ADD SWAP1 PUSH1 0x20 ADD DUP1 DUP4 GT PUSH2 0x50E JUMPI DUP3 SWAP1 SUB PUSH1 0x1F AND DUP3 ADD SWAP2 JUMPDEST POP POP POP POP POP SWAP1 DUP1 PUSH1 0x3 ADD SLOAD SWAP1 POP DUP5 JUMP JUMPDEST PUSH1 0x2 SLOAD DUP3 GT ISZERO PUSH2 0x580 JUMPI PUSH1 0x40 MLOAD PUSH32 0x8C379A000000000000000000000000000000000000000000000000000000000 DUP2 MSTORE PUSH1 0x4 ADD PUSH2 0x577 SWAP1 PUSH2 0x17C8 JUMP JUMPDEST PUSH1 0x40 MLOAD DUP1 SWAP2 SUB SWAP1 REVERT JUMPDEST PUSH0 PUSH1 0x3 DUP3 PUSH1 0x40 MLOAD PUSH2 0x591 SWAP2 SWAP1 PUSH2 0x1476 JUMP JUMPDEST SWAP1 DUP2 MSTORE PUSH1 0x20 ADD PUSH1 0x40 MLOAD DUP1 SWAP2 SUB SWAP1 KECCAK256 PUSH0 ADD DUP1 SLOAD PUSH2 0x5AC SWAP1 PUSH2 0x14B9 JUMP JUMPDEST SWAP1 POP SUB PUSH2 0x5EE JUMPI PUSH1 0x40 MLOAD PUSH32 0x8C379A000000000000000000000000000000000000000000000000000000000 DUP2 MSTORE PUSH1 0x4 ADD PUSH2 0x5E5 SWAP1 PUSH2 0x1856 JUMP JUMPDEST PUSH1 0x40 MLOAD DUP1 SWAP2 SUB SWAP1 REVERT JUMPDEST PUSH1 0x3 DUP2 PUSH1 0x40 MLOAD PUSH2 0x5FE SWAP2 SWAP1 PUSH2 0x1476 JUMP JUMPDEST SWAP1 DUP2 MSTORE PUSH1 0x20 ADD PUSH1 0x40 MLOAD DUP1 SWAP2 SUB SWAP1 KECCAK256 PUSH1 0x3 ADD PUSH0 DUP2 SLOAD DUP1 SWAP3 SWAP2 SWAP1 PUSH2 0x61F SWAP1 PUSH2 0x18A1 JUMP JUMPDEST SWAP2 SWAP1 POP SSTORE POP POP POP JUMP JUMPDEST PUSH2 0x630 PUSH2 0xD9A JUMP JUMPDEST PUSH1 0x2 SLOAD DUP3 GT ISZERO PUSH2 0x675 JUMPI PUSH1 0x40 MLOAD PUSH32 0x8C379A000000000000000000000000000000000000000000000000000000000 DUP2 MSTORE PUSH1 0x4 ADD PUSH2 0x66C SWAP1 PUSH2 0x17C8 JUMP JUMPDEST PUSH1 0x40 MLOAD DUP1 SWAP2 SUB SWAP1 REVERT JUMPDEST PUSH1 0x1 PUSH0 DUP4 DUP2 MSTORE PUSH1 0x20 ADD SWAP1 DUP2 MSTORE PUSH1 0x20 ADD PUSH0 KECCAK256 PUSH1 0x40 MLOAD DUP1 PUSH1 0x80 ADD PUSH1 0x40 MSTORE SWAP1 DUP2 PUSH0 DUP3 ADD DUP1 SLOAD PUSH2 0x6A0 SWAP1 PUSH2 0x14B9 JUMP JUMPDEST DUP1 PUSH1 0x1F ADD PUSH1 0x20 DUP1 SWAP2 DIV MUL PUSH1 0x20 ADD PUSH1 0x40 MLOAD SWAP1 DUP2 ADD PUSH1 0x40 MSTORE DUP1 SWAP3 SWAP2 SWAP1 DUP2 DUP2 MSTORE PUSH1 0x20 ADD DUP3 DUP1 SLOAD PUSH2 0x6CC SWAP1 PUSH2 0x14B9 JUMP JUMPDEST DUP1 ISZERO PUSH2 0x717 JUMPI DUP1 PUSH1 0x1F LT PUSH2 0x6EE JUMPI PUSH2 0x100 DUP1 DUP4 SLOAD DIV MUL DUP4 MSTORE SWAP2 PUSH1 0x20 ADD SWAP2 PUSH2 0x717 JUMP JUMPDEST DUP3 ADD SWAP2 SWAP1 PUSH0 MSTORE PUSH1 0x20 PUSH0 KECCAK256 SWAP1 JUMPDEST DUP2 SLOAD DUP2 MSTORE SWAP1 PUSH1 0x1 ADD SWAP1 PUSH1 0x20 ADD DUP1 DUP4 GT PUSH2 0x6FA JUMPI DUP3 SWAP1 SUB PUSH1 0x1F AND DUP3 ADD SWAP2 JUMPDEST POP POP POP POP POP DUP2 MSTORE PUSH1 0x20 ADD PUSH1 0x1 DUP3 ADD SLOAD DUP2 MSTORE PUSH1 0x20 ADD PUSH1 0x2 DUP3 ADD DUP1 SLOAD PUSH2 0x73A SWAP1 PUSH2 0x14B9 JUMP JUMPDEST DUP1 PUSH1 0x1F ADD PUSH1 0x20 DUP1 SWAP2 DIV MUL PUSH1 0x20 ADD PUSH1 0x40 MLOAD SWAP1 DUP2 ADD PUSH1 0x40 MSTORE DUP1 SWAP3 SWAP2 SWAP1 DUP2 DUP2 MSTORE PUSH1 0x20 ADD DUP3 DUP1 SLOAD PUSH2 0x766 SWAP1 PUSH2 0x14B9 JUMP JUMPDEST DUP1 ISZERO PUSH2 0x7B1 JUMPI DUP1 PUSH1 0x1F LT PUSH2 0x788 JUMPI PUSH2 0x100 DUP1 DUP4 SLOAD DIV MUL DUP4 MSTORE SWAP2 PUSH1 0x20 ADD SWAP2 PUSH2 0x7B1 JUMP JUMPDEST DUP3 ADD SWAP2 SWAP1 PUSH0 MSTORE PUSH1 0x20 PUSH0 KECCAK256 SWAP1 JUMPDEST DUP2 SLOAD DUP2 MSTORE SWAP1 PUSH1 0x1 ADD SWAP1 PUSH1 0x20 ADD DUP1 DUP4 GT PUSH2 0x794 JUMPI DUP3 SWAP1 SUB PUSH1 0x1F AND DUP3 ADD SWAP2 JUMPDEST POP POP POP POP POP DUP2 MSTORE PUSH1 0x20 ADD PUSH1 0x3 DUP3 ADD SLOAD DUP2 MSTORE POP POP SWAP1 POP SWAP2 SWAP1 POP JUMP JUMPDEST PUSH0 PUSH0 SWAP1 SLOAD SWAP1 PUSH2 0x100 EXP SWAP1 DIV PUSH20 0xFFFFFFFFFFFFFFFFFFFFFFFFFFFFFFFFFFFFFFFF AND PUSH20 0xFFFFFFFFFFFFFFFFFFFFFFFFFFFFFFFFFFFFFFFF AND CALLER PUSH20 0xFFFFFFFFFFFFFFFFFFFFFFFFFFFFFFFFFFFFFFFF AND EQ PUSH2 0x859 JUMPI PUSH1 0x40 MLOAD PUSH32 0x8C379A000000000000000000000000000000000000000000000000000000000 DUP2 MSTORE PUSH1 0x4 ADD PUSH2 0x850 SWAP1 PUSH2 0x141E JUMP JUMPDEST PUSH1 0x40 MLOAD DUP1 SWAP2 SUB SWAP1 REVERT JUMPDEST PUSH1 0x2 SLOAD DUP3 GT ISZERO PUSH2 0x89E JUMPI PUSH1 0x40 MLOAD PUSH32 0x8C379A000000000000000000000000000000000000000000000000000000000 DUP2 MSTORE PUSH1 0x4 ADD PUSH2 0x895 SWAP1 PUSH2 0x17C8 JUMP JUMPDEST PUSH1 0x40 MLOAD DUP1 SWAP2 SUB SWAP1 REVERT JUMPDEST PUSH1 0x1 DUP2 LT ISZERO DUP1 ISZERO PUSH2 0x8B0 JUMPI POP PUSH1 0x5 DUP2 GT ISZERO JUMPDEST PUSH2 0x8EF JUMPI PUSH1 0x40 MLOAD PUSH32 0x8C379A000000000000000000000000000000000000000000000000000000000 DUP2 MSTORE PUSH1 0x4 ADD PUSH2 0x8E6 SWAP1 PUSH2 0x1958 JUMP JUMPDEST PUSH1 0x40 MLOAD DUP1 SWAP2 SUB SWAP1 REVERT JUMPDEST DUP1 PUSH1 0x1 PUSH0 DUP5 DUP2 MSTORE PUSH1 0x20 ADD SWAP1 DUP2 MSTORE PUSH1 0x20 ADD PUSH0 KECCAK256 PUSH1 0x3 ADD DUP2 SWAP1 SSTORE POP POP POP JUMP JUMPDEST PUSH1 0x3 DUP2 DUP1 MLOAD PUSH1 0x20 DUP2 ADD DUP3 ADD DUP1 MLOAD DUP5 DUP3 MSTORE PUSH1 0x20 DUP4 ADD PUSH1 0x20 DUP6 ADD KECCAK256 DUP2 DUP4 MSTORE DUP1 SWAP6 POP POP POP POP POP POP PUSH0 SWAP2 POP SWAP1 POP DUP1 PUSH0 ADD DUP1 SLOAD PUSH2 0x943 SWAP1 PUSH2 0x14B9 JUMP JUMPDEST DUP1 PUSH1 0x1F ADD PUSH1 0x20 DUP1 SWAP2 DIV MUL PUSH1 0x20 ADD PUSH1 0x40 MLOAD SWAP1 DUP2 ADD PUSH1 0x40 MSTORE DUP1 SWAP3 SWAP2 SWAP1 DUP2 DUP2 MSTORE PUSH1 0x20 ADD DUP3 DUP1 SLOAD PUSH2 0x96F SWAP1 PUSH2 0x14B9 JUMP JUMPDEST DUP1 ISZERO PUSH2 0x9BA JUMPI DUP1 PUSH1 0x1F LT PUSH2 0x991 JUMPI PUSH2 0x100 DUP1 DUP4 SLOAD DIV MUL DUP4 MSTORE SWAP2 PUSH1 0x20 ADD SWAP2 PUSH2 0x9BA JUMP JUMPDEST DUP3 ADD SWAP2 SWAP1 PUSH0 MSTORE PUSH1 0x20 PUSH0 KECCAK256 SWAP1 JUMPDEST DUP2 SLOAD DUP2 MSTORE SWAP1 PUSH1 0x1 ADD SWAP1 PUSH1 0x20 ADD DUP1 DUP4 GT PUSH2 0x99D JUMPI DUP3 SWAP1 SUB PUSH1 0x1F AND DUP3 ADD SWAP2 JUMPDEST POP POP POP POP POP SWAP1 DUP1 PUSH1 0x1 ADD SLOAD SWAP1 DUP1 PUSH1 0x2 ADD DUP1 SLOAD PUSH2 0x9D5 SWAP1 PUSH2 0x14B9 JUMP JUMPDEST DUP1 PUSH1 0x1F ADD PUSH1 0x20 DUP1 SWAP2 DIV MUL PUSH1 0x20 ADD PUSH1 0x40 MLOAD SWAP1 DUP2 ADD PUSH1 0x40 MSTORE DUP1 SWAP3 SWAP2 SWAP1 DUP2 DUP2 MSTORE PUSH1 0x20 ADD DUP3 DUP1 SLOAD PUSH2 0xA01 SWAP1 PUSH2 0x14B9 JUMP JUMPDEST DUP1 ISZERO PUSH2 0xA4C JUMPI DUP1 PUSH1 0x1F LT PUSH2 0xA23 JUMPI PUSH2 0x100 DUP1 DUP4 SLOAD DIV MUL DUP4 MSTORE SWAP2 PUSH1 0x20 ADD SWAP2 PUSH2 0xA4C JUMP JUMPDEST DUP3 ADD SWAP2 SWAP1 PUSH0 MSTORE PUSH1 0x20 PUSH0 KECCAK256 SWAP1 JUMPDEST DUP2 SLOAD DUP2 MSTORE SWAP1 PUSH1 0x1 ADD SWAP1 PUSH1 0x20 ADD DUP1 DUP4 GT PUSH2 0xA2F JUMPI DUP3 SWAP1 SUB PUSH1 0x1F AND DUP3 ADD SWAP2 JUMPDEST POP POP POP POP POP SWAP1 DUP1 PUSH1 0x3 ADD SLOAD SWAP1 POP DUP5 JUMP JUMPDEST PUSH1 0x60 PUSH0 PUSH1 0x2 DUP4 PUSH2 0xA6C SWAP2 SWAP1 PUSH2 0x19A3 JUMP JUMPDEST SUB PUSH2 0xAAE JUMPI PUSH1 0x40 MLOAD DUP1 PUSH1 0x40 ADD PUSH1 0x40 MSTORE DUP1 PUSH1 0x6 DUP2 MSTORE PUSH1 0x20 ADD PUSH32 0x5479706520410000000000000000000000000000000000000000000000000000 DUP2 MSTORE POP SWAP1 POP PUSH2 0xAE7 JUMP JUMPDEST PUSH1 0x40 MLOAD DUP1 PUSH1 0x40 ADD PUSH1 0x40 MSTORE DUP1 PUSH1 0x6 DUP2 MSTORE PUSH1 0x20 ADD PUSH32 0x5479706520420000000000000000000000000000000000000000000000000000 DUP2 MSTORE POP SWAP1 POP JUMPDEST SWAP2 SWAP1 POP JUMP JUMPDEST PUSH2 0xAF4 PUSH2 0xDC0 JUMP JUMPDEST PUSH1 0x3 DUP3 PUSH1 0x40 MLOAD PUSH2 0xB04 SWAP2 SWAP1 PUSH2 0x1476 JUMP JUMPDEST SWAP1 DUP2 MSTORE PUSH1 0x20 ADD PUSH1 0x40 MLOAD DUP1 SWAP2 SUB SWAP1 KECCAK256 PUSH1 0x40 MLOAD DUP1 PUSH1 0x80 ADD PUSH1 0x40 MSTORE SWAP1 DUP2 PUSH0 DUP3 ADD DUP1 SLOAD PUSH2 0xB2C SWAP1 PUSH2 0x14B9 JUMP JUMPDEST DUP1 PUSH1 0x1F ADD PUSH1 0x20 DUP1 SWAP2 DIV MUL PUSH1 0x20 ADD PUSH1 0x40 MLOAD SWAP1 DUP2 ADD PUSH1 0x40 MSTORE DUP1 SWAP3 SWAP2 SWAP1 DUP2 DUP2 MSTORE PUSH1 0x20 ADD DUP3 DUP1 SLOAD PUSH2 0xB58 SWAP1 PUSH2 0x14B9 JUMP JUMPDEST DUP1 ISZERO PUSH2 0xBA3 JUMPI DUP1 PUSH1 0x1F LT PUSH2 0xB7A JUMPI PUSH2 0x100 DUP1 DUP4 SLOAD DIV MUL DUP4 MSTORE SWAP2 PUSH1 0x20 ADD SWAP2 PUSH2 0xBA3 JUMP JUMPDEST DUP3 ADD SWAP2 SWAP1 PUSH0 MSTORE PUSH1 0x20 PUSH0 KECCAK256 SWAP1 JUMPDEST DUP2 SLOAD DUP2 MSTORE SWAP1 PUSH1 0x1 ADD SWAP1 PUSH1 0x20 ADD DUP1 DUP4 GT PUSH2 0xB86 JUMPI DUP3 SWAP1 SUB PUSH1 0x1F AND DUP3 ADD SWAP2 JUMPDEST POP POP POP POP POP DUP2 MSTORE PUSH1 0x20 ADD PUSH1 0x1 DUP3 ADD SLOAD DUP2 MSTORE PUSH1 0x20 ADD PUSH1 0x2 DUP3 ADD DUP1 SLOAD PUSH2 0xBC6 SWAP1 PUSH2 0x14B9 JUMP JUMPDEST DUP1 PUSH1 0x1F ADD PUSH1 0x20 DUP1 SWAP2 DIV MUL PUSH1 0x20 ADD PUSH1 0x40 MLOAD SWAP1 DUP2 ADD PUSH1 0x40 MSTORE DUP1 SWAP3 SWAP2 SWAP1 DUP2 DUP2 MSTORE PUSH1 0x20 ADD DUP3 DUP1 SLOAD PUSH2 0xBF2 SWAP1 PUSH2 0x14B9 JUMP JUMPDEST DUP1 ISZERO PUSH2 0xC3D JUMPI DUP1 PUSH1 0x1F LT PUSH2 0xC14 JUMPI PUSH2 0x100 DUP1 DUP4 SLOAD DIV MUL DUP4 MSTORE SWAP2 PUSH1 0x20 ADD SWAP2 PUSH2 0xC3D JUMP JUMPDEST DUP3 ADD SWAP2 SWAP1 PUSH0 MSTORE PUSH1 0x20 PUSH0 KECCAK256 SWAP1 JUMPDEST DUP2 SLOAD DUP2 MSTORE SWAP1 PUSH1 0x1 ADD SWAP1 PUSH1 0x20 ADD DUP1 DUP4 GT PUSH2 0xC20 JUMPI DUP3 SWAP1 SUB PUSH1 0x1F AND DUP3 ADD SWAP2 JUMPDEST POP POP POP POP POP DUP2 MSTORE PUSH1 0x20 ADD PUSH1 0x3 DUP3 ADD SLOAD DUP2 MSTORE POP POP SWAP1 POP SWAP2 SWAP1 POP JUMP JUMPDEST PUSH0 PUSH0 SWAP1 SLOAD SWAP1 PUSH2 0x100 EXP SWAP1 DIV PUSH20 0xFFFFFFFFFFFFFFFFFFFFFFFFFFFFFFFFFFFFFFFF AND DUP2 JUMP JUMPDEST PUSH0 PUSH0 SWAP1 SLOAD SWAP1 PUSH2 0x100 EXP SWAP1 DIV PUSH20 0xFFFFFFFFFFFFFFFFFFFFFFFFFFFFFFFFFFFFFFFF AND PUSH20 0xFFFFFFFFFFFFFFFFFFFFFFFFFFFFFFFFFFFFFFFF AND CALLER PUSH20 0xFFFFFFFFFFFFFFFFFFFFFFFFFFFFFFFFFFFFFFFF AND EQ PUSH2 0xD09 JUMPI PUSH1 0x40 MLOAD PUSH32 0x8C379A000000000000000000000000000000000000000000000000000000000 DUP2 MSTORE PUSH1 0x4 ADD PUSH2 0xD00 SWAP1 PUSH2 0x141E JUMP JUMPDEST PUSH1 0x40 MLOAD DUP1 SWAP2 SUB SWAP1 REVERT JUMPDEST PUSH1 0x2 PUSH0 DUP2 SLOAD DUP1 SWAP3 SWAP2 SWAP1 PUSH2 0xD1B SWAP1 PUSH2 0x18A1 JUMP JUMPDEST SWAP2 SWAP1 POP SSTORE POP PUSH1 0x40 MLOAD DUP1 PUSH1 0x80 ADD PUSH1 0x40 MSTORE DUP1 DUP5 DUP2 MSTORE PUSH1 0x20 ADD DUP4 DUP2 MSTORE PUSH1 0x20 ADD DUP3 DUP2 MSTORE PUSH1 0x20 ADD PUSH0 DUP2 MSTORE POP PUSH1 0x1 PUSH0 PUSH1 0x2 SLOAD DUP2 MSTORE PUSH1 0x20 ADD SWAP1 DUP2 MSTORE PUSH1 0x20 ADD PUSH0 KECCAK256 PUSH0 DUP3 ADD MLOAD DUP2 PUSH0 ADD SWAP1 DUP2 PUSH2 0xD67 SWAP2 SWAP1 PUSH2 0x1689 JUMP JUMPDEST POP PUSH1 0x20 DUP3 ADD MLOAD DUP2 PUSH1 0x1 ADD SSTORE PUSH1 0x40 DUP3 ADD MLOAD DUP2 PUSH1 0x2 ADD SWAP1 DUP2 PUSH2 0xD87 SWAP2 SWAP1 PUSH2 0x1689 JUMP JUMPDEST POP PUSH1 0x60 DUP3 ADD MLOAD DUP2 PUSH1 0x3 ADD SSTORE SWAP1 POP POP POP POP POP JUMP JUMPDEST PUSH1 0x40 MLOAD DUP1 PUSH1 0x80 ADD PUSH1 0x40 MSTORE DUP1 PUSH1 0x60 DUP2 MSTORE PUSH1 0x20 ADD PUSH0 DUP2 MSTORE PUSH1 0x20 ADD PUSH1 0x60 DUP2 MSTORE PUSH1 0x20 ADD PUSH0 DUP2 MSTORE POP SWAP1 JUMP JUMPDEST PUSH1 0x40 MLOAD DUP1 PUSH1 0x80 ADD PUSH1 0x40 MSTORE DUP1 PUSH1 0x60 DUP2 MSTORE PUSH1 0x20 ADD PUSH0 DUP2 MSTORE PUSH1 0x20 ADD PUSH1 0x60 DUP2 MSTORE PUSH1 0x20 ADD PUSH0 DUP2 MSTORE POP SWAP1 JUMP JUMPDEST PUSH0 PUSH1 0x40 MLOAD SWAP1 POP SWAP1 JUMP JUMPDEST PUSH0 PUSH0 REVERT JUMPDEST PUSH0 PUSH0 REVERT JUMPDEST PUSH0 PUSH0 REVERT JUMPDEST PUSH0 PUSH0 REVERT JUMPDEST PUSH0 PUSH1 0x1F NOT PUSH1 0x1F DUP4 ADD AND SWAP1 POP SWAP2 SWAP1 POP JUMP JUMPDEST PUSH32 0x4E487B7100000000000000000000000000000000000000000000000000000000 PUSH0 MSTORE PUSH1 0x41 PUSH1 0x4 MSTORE PUSH1 0x24 PUSH0 REVERT JUMPDEST PUSH2 0xE45 DUP3 PUSH2 0xDFF JUMP JUMPDEST DUP2 ADD DUP2 DUP2 LT PUSH8 0xFFFFFFFFFFFFFFFF DUP3 GT OR ISZERO PUSH2 0xE64 JUMPI PUSH2 0xE63 PUSH2 0xE0F JUMP JUMPDEST JUMPDEST DUP1 PUSH1 0x40 MSTORE POP POP POP JUMP JUMPDEST PUSH0 PUSH2 0xE76 PUSH2 0xDE6 JUMP JUMPDEST SWAP1 POP PUSH2 0xE82 DUP3 DUP3 PUSH2 0xE3C JUMP JUMPDEST SWAP2 SWAP1 POP JUMP JUMPDEST PUSH0 PUSH8 0xFFFFFFFFFFFFFFFF DUP3 GT ISZERO PUSH2 0xEA1 JUMPI PUSH2 0xEA0 PUSH2 0xE0F JUMP JUMPDEST JUMPDEST PUSH2 0xEAA DUP3 PUSH2 0xDFF JUMP JUMPDEST SWAP1 POP PUSH1 0x20 DUP2 ADD SWAP1 POP SWAP2 SWAP1 POP JUMP JUMPDEST DUP3 DUP2 DUP4 CALLDATACOPY PUSH0 DUP4 DUP4 ADD MSTORE POP POP POP JUMP JUMPDEST PUSH0 PUSH2 0xED7 PUSH2 0xED2 DUP5 PUSH2 0xE87 JUMP JUMPDEST PUSH2 0xE6D JUMP JUMPDEST SWAP1 POP DUP3 DUP2 MSTORE PUSH1 0x20 DUP2 ADD DUP5 DUP5 DUP5 ADD GT ISZERO PUSH2 0xEF3 JUMPI PUSH2 0xEF2 PUSH2 0xDFB JUMP JUMPDEST JUMPDEST PUSH2 0xEFE DUP5 DUP3 DUP6 PUSH2 0xEB7 JUMP JUMPDEST POP SWAP4 SWAP3 POP POP POP JUMP JUMPDEST PUSH0 DUP3 PUSH1 0x1F DUP4 ADD SLT PUSH2 0xF1A JUMPI PUSH2 0xF19 PUSH2 0xDF7 JUMP JUMPDEST JUMPDEST DUP2 CALLDATALOAD PUSH2 0xF2A DUP5 DUP3 PUSH1 0x20 DUP7 ADD PUSH2 0xEC5 JUMP JUMPDEST SWAP2 POP POP SWAP3 SWAP2 POP POP JUMP JUMPDEST PUSH0 DUP2 SWAP1 POP SWAP2 SWAP1 POP JUMP JUMPDEST PUSH2 0xF45 DUP2 PUSH2 0xF33 JUMP JUMPDEST DUP2 EQ PUSH2 0xF4F JUMPI PUSH0 PUSH0 REVERT JUMPDEST POP JUMP JUMPDEST PUSH0 DUP2 CALLDATALOAD SWAP1 POP PUSH2 0xF60 DUP2 PUSH2 0xF3C JUMP JUMPDEST SWAP3 SWAP2 POP POP JUMP JUMPDEST PUSH0 PUSH0 PUSH0 PUSH1 0x60 DUP5 DUP7 SUB SLT ISZERO PUSH2 0xF7D JUMPI PUSH2 0xF7C PUSH2 0xDEF JUMP JUMPDEST JUMPDEST PUSH0 DUP5 ADD CALLDATALOAD PUSH8 0xFFFFFFFFFFFFFFFF DUP2 GT ISZERO PUSH2 0xF9A JUMPI PUSH2 0xF99 PUSH2 0xDF3 JUMP JUMPDEST JUMPDEST PUSH2 0xFA6 DUP7 DUP3 DUP8 ADD PUSH2 0xF06 JUMP JUMPDEST SWAP4 POP POP PUSH1 0x20 PUSH2 0xFB7 DUP7 DUP3 DUP8 ADD PUSH2 0xF52 JUMP JUMPDEST SWAP3 POP POP PUSH1 0x40 DUP5 ADD CALLDATALOAD PUSH8 0xFFFFFFFFFFFFFFFF DUP2 GT ISZERO PUSH2 0xFD8 JUMPI PUSH2 0xFD7 PUSH2 0xDF3 JUMP JUMPDEST JUMPDEST PUSH2 0xFE4 DUP7 DUP3 DUP8 ADD PUSH2 0xF06 JUMP JUMPDEST SWAP2 POP POP SWAP3 POP SWAP3 POP SWAP3 JUMP JUMPDEST PUSH0 PUSH1 0x20 DUP3 DUP5 SUB SLT ISZERO PUSH2 0x1003 JUMPI PUSH2 0x1002 PUSH2 0xDEF JUMP JUMPDEST JUMPDEST PUSH0 PUSH2 0x1010 DUP5 DUP3 DUP6 ADD PUSH2 0xF52 JUMP JUMPDEST SWAP2 POP POP SWAP3 SWAP2 POP POP JUMP JUMPDEST PUSH2 0x1022 DUP2 PUSH2 0xF33 JUMP JUMPDEST DUP3 MSTORE POP POP JUMP JUMPDEST PUSH0 PUSH1 0x20 DUP3 ADD SWAP1 POP PUSH2 0x103B PUSH0 DUP4 ADD DUP5 PUSH2 0x1019 JUMP JUMPDEST SWAP3 SWAP2 POP POP JUMP JUMPDEST PUSH0 DUP2 MLOAD SWAP1 POP SWAP2 SWAP1 POP JUMP JUMPDEST PUSH0 DUP3 DUP3 MSTORE PUSH1 0x20 DUP3 ADD SWAP1 POP SWAP3 SWAP2 POP POP JUMP JUMPDEST DUP3 DUP2 DUP4 MCOPY PUSH0 DUP4 DUP4 ADD MSTORE POP POP POP JUMP JUMPDEST PUSH0 PUSH2 0x1073 DUP3 PUSH2 0x1041 JUMP JUMPDEST PUSH2 0x107D DUP2 DUP6 PUSH2 0x104B JUMP JUMPDEST SWAP4 POP PUSH2 0x108D DUP2 DUP6 PUSH1 0x20 DUP7 ADD PUSH2 0x105B JUMP JUMPDEST PUSH2 0x1096 DUP2 PUSH2 0xDFF JUMP JUMPDEST DUP5 ADD SWAP2 POP POP SWAP3 SWAP2 POP POP JUMP JUMPDEST PUSH0 PUSH1 0x80 DUP3 ADD SWAP1 POP DUP2 DUP2 SUB PUSH0 DUP4 ADD MSTORE PUSH2 0x10B9 DUP2 DUP8 PUSH2 0x1069 JUMP JUMPDEST SWAP1 POP PUSH2 0x10C8 PUSH1 0x20 DUP4 ADD DUP7 PUSH2 0x1019 JUMP JUMPDEST DUP2 DUP2 SUB PUSH1 0x40 DUP4 ADD MSTORE PUSH2 0x10DA DUP2 DUP6 PUSH2 0x1069 JUMP JUMPDEST SWAP1 POP PUSH2 0x10E9 PUSH1 0x60 DUP4 ADD DUP5 PUSH2 0x1019 JUMP JUMPDEST SWAP6 SWAP5 POP POP POP POP POP JUMP JUMPDEST PUSH0 PUSH0 PUSH1 0x40 DUP4 DUP6 SUB SLT ISZERO PUSH2 0x1108 JUMPI PUSH2 0x1107 PUSH2 0xDEF JUMP JUMPDEST JUMPDEST PUSH0 PUSH2 0x1115 DUP6 DUP3 DUP7 ADD PUSH2 0xF52 JUMP JUMPDEST SWAP3 POP POP PUSH1 0x20 DUP4 ADD CALLDATALOAD PUSH8 0xFFFFFFFFFFFFFFFF DUP2 GT ISZERO PUSH2 0x1136 JUMPI PUSH2 0x1135 PUSH2 0xDF3 JUMP JUMPDEST JUMPDEST PUSH2 0x1142 DUP6 DUP3 DUP7 ADD PUSH2 0xF06 JUMP JUMPDEST SWAP2 POP POP SWAP3 POP SWAP3 SWAP1 POP JUMP JUMPDEST PUSH0 DUP3 DUP3 MSTORE PUSH1 0x20 DUP3 ADD SWAP1 POP SWAP3 SWAP2 POP POP JUMP JUMPDEST PUSH0 PUSH2 0x1166 DUP3 PUSH2 0x1041 JUMP JUMPDEST PUSH2 0x1170 DUP2 DUP6 PUSH2 0x114C JUMP JUMPDEST SWAP4 POP PUSH2 0x1180 DUP2 DUP6 PUSH1 0x20 DUP7 ADD PUSH2 0x105B JUMP JUMPDEST PUSH2 0x1189 DUP2 PUSH2 0xDFF JUMP JUMPDEST DUP5 ADD SWAP2 POP POP SWAP3 SWAP2 POP POP JUMP JUMPDEST PUSH2 0x119D DUP2 PUSH2 0xF33 JUMP JUMPDEST DUP3 MSTORE POP POP JUMP JUMPDEST PUSH0 PUSH1 0x80 DUP4 ADD PUSH0 DUP4 ADD MLOAD DUP5 DUP3 SUB PUSH0 DUP7 ADD MSTORE PUSH2 0x11BD DUP3 DUP3 PUSH2 0x115C JUMP JUMPDEST SWAP2 POP POP PUSH1 0x20 DUP4 ADD MLOAD PUSH2 0x11D2 PUSH1 0x20 DUP7 ADD DUP3 PUSH2 0x1194 JUMP JUMPDEST POP PUSH1 0x40 DUP4 ADD MLOAD DUP5 DUP3 SUB PUSH1 0x40 DUP7 ADD MSTORE PUSH2 0x11EA DUP3 DUP3 PUSH2 0x115C JUMP JUMPDEST SWAP2 POP POP PUSH1 0x60 DUP4 ADD MLOAD PUSH2 0x11FF PUSH1 0x60 DUP7 ADD DUP3 PUSH2 0x1194 JUMP JUMPDEST POP DUP1 SWAP2 POP POP SWAP3 SWAP2 POP POP JUMP JUMPDEST PUSH0 PUSH1 0x20 DUP3 ADD SWAP1 POP DUP2 DUP2 SUB PUSH0 DUP4 ADD MSTORE PUSH2 0x1222 DUP2 DUP5 PUSH2 0x11A3 JUMP JUMPDEST SWAP1 POP SWAP3 SWAP2 POP POP JUMP JUMPDEST PUSH0 PUSH0 PUSH1 0x40 DUP4 DUP6 SUB SLT ISZERO PUSH2 0x1240 JUMPI PUSH2 0x123F PUSH2 0xDEF JUMP JUMPDEST JUMPDEST PUSH0 PUSH2 0x124D DUP6 DUP3 DUP7 ADD PUSH2 0xF52 JUMP JUMPDEST SWAP3 POP POP PUSH1 0x20 PUSH2 0x125E DUP6 DUP3 DUP7 ADD PUSH2 0xF52 JUMP JUMPDEST SWAP2 POP POP SWAP3 POP SWAP3 SWAP1 POP JUMP JUMPDEST PUSH0 PUSH1 0x20 DUP3 DUP5 SUB SLT ISZERO PUSH2 0x127D JUMPI PUSH2 0x127C PUSH2 0xDEF JUMP JUMPDEST JUMPDEST PUSH0 DUP3 ADD CALLDATALOAD PUSH8 0xFFFFFFFFFFFFFFFF DUP2 GT ISZERO PUSH2 0x129A JUMPI PUSH2 0x1299 PUSH2 0xDF3 JUMP JUMPDEST JUMPDEST PUSH2 0x12A6 DUP5 DUP3 DUP6 ADD PUSH2 0xF06 JUMP JUMPDEST SWAP2 POP POP SWAP3 SWAP2 POP POP JUMP JUMPDEST PUSH0 PUSH1 0x20 DUP3 ADD SWAP1 POP DUP2 DUP2 SUB PUSH0 DUP4 ADD MSTORE PUSH2 0x12C7 DUP2 DUP5 PUSH2 0x1069 JUMP JUMPDEST SWAP1 POP SWAP3 SWAP2 POP POP JUMP JUMPDEST PUSH0 PUSH1 0x80 DUP4 ADD PUSH0 DUP4 ADD MLOAD DUP5 DUP3 SUB PUSH0 DUP7 ADD MSTORE PUSH2 0x12E9 DUP3 DUP3 PUSH2 0x115C JUMP JUMPDEST SWAP2 POP POP PUSH1 0x20 DUP4 ADD MLOAD PUSH2 0x12FE PUSH1 0x20 DUP7 ADD DUP3 PUSH2 0x1194 JUMP JUMPDEST POP PUSH1 0x40 DUP4 ADD MLOAD DUP5 DUP3 SUB PUSH1 0x40 DUP7 ADD MSTORE PUSH2 0x1316 DUP3 DUP3 PUSH2 0x115C JUMP JUMPDEST SWAP2 POP POP PUSH1 0x60 DUP4 ADD MLOAD PUSH2 0x132B PUSH1 0x60 DUP7 ADD DUP3 PUSH2 0x1194 JUMP JUMPDEST POP DUP1 SWAP2 POP POP SWAP3 SWAP2 POP POP JUMP JUMPDEST PUSH0 PUSH1 0x20 DUP3 ADD SWAP1 POP DUP2 DUP2 SUB PUSH0 DUP4 ADD MSTORE PUSH2 0x134E DUP2 DUP5 PUSH2 0x12CF JUMP JUMPDEST SWAP1 POP SWAP3 SWAP2 POP POP JUMP JUMPDEST PUSH0 PUSH20 0xFFFFFFFFFFFFFFFFFFFFFFFFFFFFFFFFFFFFFFFF DUP3 AND SWAP1 POP SWAP2 SWAP1 POP JUMP JUMPDEST PUSH0 PUSH2 0x137F DUP3 PUSH2 0x1356 JUMP JUMPDEST SWAP1 POP SWAP2 SWAP1 POP JUMP JUMPDEST PUSH2 0x138F DUP2 PUSH2 0x1375 JUMP JUMPDEST DUP3 MSTORE POP POP JUMP JUMPDEST PUSH0 PUSH1 0x20 DUP3 ADD SWAP1 POP PUSH2 0x13A8 PUSH0 DUP4 ADD DUP5 PUSH2 0x1386 JUMP JUMPDEST SWAP3 SWAP2 POP POP JUMP JUMPDEST PUSH32 0x6F6E6C792061646D696E2063616E20706572666F726D2074686973206F706572 PUSH0 DUP3 ADD MSTORE PUSH32 0x6174696F6E000000000000000000000000000000000000000000000000000000 PUSH1 0x20 DUP3 ADD MSTORE POP JUMP JUMPDEST PUSH0 PUSH2 0x1408 PUSH1 0x25 DUP4 PUSH2 0x104B JUMP JUMPDEST SWAP2 POP PUSH2 0x1413 DUP3 PUSH2 0x13AE JUMP JUMPDEST PUSH1 0x40 DUP3 ADD SWAP1 POP SWAP2 SWAP1 POP JUMP JUMPDEST PUSH0 PUSH1 0x20 DUP3 ADD SWAP1 POP DUP2 DUP2 SUB PUSH0 DUP4 ADD MSTORE PUSH2 0x1435 DUP2 PUSH2 0x13FC JUMP JUMPDEST SWAP1 POP SWAP2 SWAP1 POP JUMP JUMPDEST PUSH0 DUP2 SWAP1 POP SWAP3 SWAP2 POP POP JUMP JUMPDEST PUSH0 PUSH2 0x1450 DUP3 PUSH2 0x1041 JUMP JUMPDEST PUSH2 0x145A DUP2 DUP6 PUSH2 0x143C JUMP JUMPDEST SWAP4 POP PUSH2 0x146A DUP2 DUP6 PUSH1 0x20 DUP7 ADD PUSH2 0x105B JUMP JUMPDEST DUP1 DUP5 ADD SWAP2 POP POP SWAP3 SWAP2 POP POP JUMP JUMPDEST PUSH0 PUSH2 0x1481 DUP3 DUP5 PUSH2 0x1446 JUMP JUMPDEST SWAP2 POP DUP2 SWAP1 POP SWAP3 SWAP2 POP POP JUMP JUMPDEST PUSH32 0x4E487B7100000000000000000000000000000000000000000000000000000000 PUSH0 MSTORE PUSH1 0x22 PUSH1 0x4 MSTORE PUSH1 0x24 PUSH0 REVERT JUMPDEST PUSH0 PUSH1 0x2 DUP3 DIV SWAP1 POP PUSH1 0x1 DUP3 AND DUP1 PUSH2 0x14D0 JUMPI PUSH1 0x7F DUP3 AND SWAP2 POP JUMPDEST PUSH1 0x20 DUP3 LT DUP2 SUB PUSH2 0x14E3 JUMPI PUSH2 0x14E2 PUSH2 0x148C JUMP JUMPDEST JUMPDEST POP SWAP2 SWAP1 POP JUMP JUMPDEST PUSH0 DUP2 SWAP1 POP DUP2 PUSH0 MSTORE PUSH1 0x20 PUSH0 KECCAK256 SWAP1 POP SWAP2 SWAP1 POP JUMP JUMPDEST PUSH0 PUSH1 0x20 PUSH1 0x1F DUP4 ADD DIV SWAP1 POP SWAP2 SWAP1 POP JUMP JUMPDEST PUSH0 DUP3 DUP3 SHL SWAP1 POP SWAP3 SWAP2 POP POP JUMP JUMPDEST PUSH0 PUSH1 0x8 DUP4 MUL PUSH2 0x1545 PUSH32 0xFFFFFFFFFFFFFFFFFFFFFFFFFFFFFFFFFFFFFFFFFFFFFFFFFFFFFFFFFFFFFFFF DUP3 PUSH2 0x150A JUMP JUMPDEST PUSH2 0x154F DUP7 DUP4 PUSH2 0x150A JUMP JUMPDEST SWAP6 POP DUP1 NOT DUP5 AND SWAP4 POP DUP1 DUP7 AND DUP5 OR SWAP3 POP POP POP SWAP4 SWAP3 POP POP POP JUMP JUMPDEST PUSH0 DUP2 SWAP1 POP SWAP2 SWAP1 POP JUMP JUMPDEST PUSH0 PUSH2 0x158A PUSH2 0x1585 PUSH2 0x1580 DUP5 PUSH2 0xF33 JUMP JUMPDEST PUSH2 0x1567 JUMP JUMPDEST PUSH2 0xF33 JUMP JUMPDEST SWAP1 POP SWAP2 SWAP1 POP JUMP JUMPDEST PUSH0 DUP2 SWAP1 POP SWAP2 SWAP1 POP JUMP JUMPDEST PUSH2 0x15A3 DUP4 PUSH2 0x1570 JUMP JUMPDEST PUSH2 0x15B7 PUSH2 0x15AF DUP3 PUSH2 0x1591 JUMP JUMPDEST DUP5 DUP5 SLOAD PUSH2 0x1516 JUMP JUMPDEST DUP3 SSTORE POP POP POP POP JUMP JUMPDEST PUSH0 PUSH0 SWAP1 POP SWAP1 JUMP JUMPDEST PUSH2 0x15CE PUSH2 0x15BF JUMP JUMPDEST PUSH2 0x15D9 DUP2 DUP5 DUP5 PUSH2 0x159A JUMP JUMPDEST POP POP POP JUMP JUMPDEST JUMPDEST DUP2 DUP2 LT ISZERO PUSH2 0x15FC JUMPI PUSH2 0x15F1 PUSH0 DUP3 PUSH2 0x15C6 JUMP JUMPDEST PUSH1 0x1 DUP2 ADD SWAP1 POP PUSH2 0x15DF JUMP JUMPDEST POP POP JUMP JUMPDEST PUSH1 0x1F DUP3 GT ISZERO PUSH2 0x1641 JUMPI PUSH2 0x1612 DUP2 PUSH2 0x14E9 JUMP JUMPDEST PUSH2 0x161B DUP5 PUSH2 0x14FB JUMP JUMPDEST DUP2 ADD PUSH1 0x20 DUP6 LT ISZERO PUSH2 0x162A JUMPI DUP2 SWAP1 POP JUMPDEST PUSH2 0x163E PUSH2 0x1636 DUP6 PUSH2 0x14FB JUMP JUMPDEST DUP4 ADD DUP3 PUSH2 0x15DE JUMP JUMPDEST POP POP JUMPDEST POP POP POP JUMP JUMPDEST PUSH0 DUP3 DUP3 SHR SWAP1 POP SWAP3 SWAP2 POP POP JUMP JUMPDEST PUSH0 PUSH2 0x1661 PUSH0 NOT DUP5 PUSH1 0x8 MUL PUSH2 0x1646 JUMP JUMPDEST NOT DUP1 DUP4 AND SWAP2 POP POP SWAP3 SWAP2 POP POP JUMP JUMPDEST PUSH0 PUSH2 0x1679 DUP4 DUP4 PUSH2 0x1652 JUMP JUMPDEST SWAP2 POP DUP3 PUSH1 0x2 MUL DUP3 OR SWAP1 POP SWAP3 SWAP2 POP POP JUMP JUMPDEST PUSH2 0x1692 DUP3 PUSH2 0x1041 JUMP JUMPDEST PUSH8 0xFFFFFFFFFFFFFFFF DUP2 GT ISZERO PUSH2 0x16AB JUMPI PUSH2 0x16AA PUSH2 0xE0F JUMP JUMPDEST JUMPDEST PUSH2 0x16B5 DUP3 SLOAD PUSH2 0x14B9 JUMP JUMPDEST PUSH2 0x16C0 DUP3 DUP3 DUP6 PUSH2 0x1600 JUMP JUMPDEST PUSH0 PUSH1 0x20 SWAP1 POP PUSH1 0x1F DUP4 GT PUSH1 0x1 DUP2 EQ PUSH2 0x16F1 JUMPI PUSH0 DUP5 ISZERO PUSH2 0x16DF JUMPI DUP3 DUP8 ADD MLOAD SWAP1 POP JUMPDEST PUSH2 0x16E9 DUP6 DUP3 PUSH2 0x166E JUMP JUMPDEST DUP7 SSTORE POP PUSH2 0x1750 JUMP JUMPDEST PUSH1 0x1F NOT DUP5 AND PUSH2 0x16FF DUP7 PUSH2 0x14E9 JUMP JUMPDEST PUSH0 JUMPDEST DUP3 DUP2 LT ISZERO PUSH2 0x1726 JUMPI DUP5 DUP10 ADD MLOAD DUP3 SSTORE PUSH1 0x1 DUP3 ADD SWAP2 POP PUSH1 0x20 DUP6 ADD SWAP5 POP PUSH1 0x20 DUP2 ADD SWAP1 POP PUSH2 0x1701 JUMP JUMPDEST DUP7 DUP4 LT ISZERO PUSH2 0x1743 JUMPI DUP5 DUP10 ADD MLOAD PUSH2 0x173F PUSH1 0x1F DUP10 AND DUP3 PUSH2 0x1652 JUMP JUMPDEST DUP4 SSTORE POP JUMPDEST PUSH1 0x1 PUSH1 0x2 DUP9 MUL ADD DUP9 SSTORE POP POP POP JUMPDEST POP POP POP POP POP POP JUMP JUMPDEST PUSH32 0x4170706C6963616E7420776974682074686520676976656E20494420646F6573 PUSH0 DUP3 ADD MSTORE PUSH32 0x206E6F7420657869737400000000000000000000000000000000000000000000 PUSH1 0x20 DUP3 ADD MSTORE POP JUMP JUMPDEST PUSH0 PUSH2 0x17B2 PUSH1 0x2A DUP4 PUSH2 0x104B JUMP JUMPDEST SWAP2 POP PUSH2 0x17BD DUP3 PUSH2 0x1758 JUMP JUMPDEST PUSH1 0x40 DUP3 ADD SWAP1 POP SWAP2 SWAP1 POP JUMP JUMPDEST PUSH0 PUSH1 0x20 DUP3 ADD SWAP1 POP DUP2 DUP2 SUB PUSH0 DUP4 ADD MSTORE PUSH2 0x17DF DUP2 PUSH2 0x17A6 JUMP JUMPDEST SWAP1 POP SWAP2 SWAP1 POP JUMP JUMPDEST PUSH32 0x4A6F6220776974682074686520676976656E206E616D6520646F6573206E6F74 PUSH0 DUP3 ADD MSTORE PUSH32 0x2065786973740000000000000000000000000000000000000000000000000000 PUSH1 0x20 DUP3 ADD MSTORE POP JUMP JUMPDEST PUSH0 PUSH2 0x1840 PUSH1 0x26 DUP4 PUSH2 0x104B JUMP JUMPDEST SWAP2 POP PUSH2 0x184B DUP3 PUSH2 0x17E6 JUMP JUMPDEST PUSH1 0x40 DUP3 ADD SWAP1 POP SWAP2 SWAP1 POP JUMP JUMPDEST PUSH0 PUSH1 0x20 DUP3 ADD SWAP1 POP DUP2 DUP2 SUB PUSH0 DUP4 ADD MSTORE PUSH2 0x186D DUP2 PUSH2 0x1834 JUMP JUMPDEST SWAP1 POP SWAP2 SWAP1 POP JUMP JUMPDEST PUSH32 0x4E487B7100000000000000000000000000000000000000000000000000000000 PUSH0 MSTORE PUSH1 0x11 PUSH1 0x4 MSTORE PUSH1 0x24 PUSH0 REVERT JUMPDEST PUSH0 PUSH2 0x18AB DUP3 PUSH2 0xF33 JUMP JUMPDEST SWAP2 POP PUSH32 0xFFFFFFFFFFFFFFFFFFFFFFFFFFFFFFFFFFFFFFFFFFFFFFFFFFFFFFFFFFFFFFFF DUP3 SUB PUSH2 0x18DD JUMPI PUSH2 0x18DC PUSH2 0x1874 JUMP JUMPDEST JUMPDEST PUSH1 0x1 DUP3 ADD SWAP1 POP SWAP2 SWAP1 POP JUMP JUMPDEST PUSH32 0x496E76616C696420726174696E672E20526174696E6773206D75737420626520 PUSH0 DUP3 ADD MSTORE PUSH32 0x6265747765656E203120616E6420350000000000000000000000000000000000 PUSH1 0x20 DUP3 ADD MSTORE POP JUMP JUMPDEST PUSH0 PUSH2 0x1942 PUSH1 0x2F DUP4 PUSH2 0x104B JUMP JUMPDEST SWAP2 POP PUSH2 0x194D DUP3 PUSH2 0x18E8 JUMP JUMPDEST PUSH1 0x40 DUP3 ADD SWAP1 POP SWAP2 SWAP1 POP JUMP JUMPDEST PUSH0 PUSH1 0x20 DUP3 ADD SWAP1 POP DUP2 DUP2 SUB PUSH0 DUP4 ADD MSTORE PUSH2 0x196F DUP2 PUSH2 0x1936 JUMP JUMPDEST SWAP1 POP SWAP2 SWAP1 POP JUMP JUMPDEST PUSH32 0x4E487B7100000000000000000000000000000000000000000000000000000000 PUSH0 MSTORE PUSH1 0x12 PUSH1 0x4 MSTORE PUSH1 0x24 PUSH0 REVERT JUMPDEST PUSH0 PUSH2 0x19AD DUP3 PUSH2 0xF33 JUMP JUMPDEST SWAP2 POP PUSH2 0x19B8 DUP4 PUSH2 0xF33 JUMP JUMPDEST SWAP3 POP DUP3 PUSH2 0x19C8 JUMPI PUSH2 0x19C7 PUSH2 0x1976 JUMP JUMPDEST JUMPDEST DUP3 DUP3 MOD SWAP1 POP SWAP3 SWAP2 POP POP JUMP INVALID LOG2 PUSH5 0x6970667358 0x22 SLT KECCAK256 PUSH27 0x869DD9E1774CA7BF5C0354B63977AD15B8D337E1A2C76BF13940BC PUSH9 0x59997164736F6C6343 STOP ADDMOD 0x1E STOP CALLER "
				},
				"gasEstimates": {
					"creation": {
						"codeDepositCost": "1333000",
						"executionCost": "25652",
						"totalCost": "1358652"
					},
					"external": {
						"addApplicant(string,uint256,string)": "infinite",
						"addJob(string,uint256,string)": "infinite",
						"admin()": "2595",
						"applicants(uint256)": "infinite",
						"applyForJob(uint256,string)": "infinite",
						"getApplicantDetails(uint256)": "infinite",
						"getApplicantRating(uint256)": "infinite",
						"getApplicantType(uint256)": "infinite",
						"getJobDetails(string)": "infinite",
						"jobs(string)": "infinite",
						"lastApplicantId()": "2470",
						"provideRating(uint256,uint256)": "infinite"
					}
				},
				"methodIdentifiers": {
					"addApplicant(string,uint256,string)": "fcb079c0",
					"addJob(string,uint256,string)": "12bfabf6",
					"admin()": "f851a440",
					"applicants(uint256)": "63de5323",
					"applyForJob(uint256,string)": "6c09a5e3",
					"getApplicantDetails(uint256)": "8798a47b",
					"getApplicantRating(uint256)": "2dd5afd5",
					"getApplicantType(uint256)": "d280267d",
					"getJobDetails(string)": "e90ca747",
					"jobs(string)": "b05e6f5a",
					"lastApplicantId()": "41939210",
					"provideRating(uint256,uint256)": "89fb1352"
				}
			},
			"storageLayout": {
				"storage": [
					{
						"astId": 3,
						"contract": "Job-portal dapp/JobPortal.sol:JobPortal",
						"label": "admin",
						"offset": 0,
						"slot": "0",
						"type": "t_address"
					},
					{
						"astId": 26,
						"contract": "Job-portal dapp/JobPortal.sol:JobPortal",
						"label": "applicants",
						"offset": 0,
						"slot": "1",
						"type": "t_mapping(t_uint256,t_struct(Applicant)21_storage)"
					},
					{
						"astId": 28,
						"contract": "Job-portal dapp/JobPortal.sol:JobPortal",
						"label": "lastApplicantId",
						"offset": 0,
						"slot": "2",
						"type": "t_uint256"
					},
					{
						"astId": 120,
						"contract": "Job-portal dapp/JobPortal.sol:JobPortal",
						"label": "jobs",
						"offset": 0,
						"slot": "3",
						"type": "t_mapping(t_string_memory_ptr,t_struct(Job)115_storage)"
					}
				],
				"types": {
					"t_address": {
						"encoding": "inplace",
						"label": "address",
						"numberOfBytes": "20"
					},
					"t_mapping(t_string_memory_ptr,t_struct(Job)115_storage)": {
						"encoding": "mapping",
						"key": "t_string_memory_ptr",
						"label": "mapping(string => struct JobPortal.Job)",
						"numberOfBytes": "32",
						"value": "t_struct(Job)115_storage"
					},
					"t_mapping(t_uint256,t_struct(Applicant)21_storage)": {
						"encoding": "mapping",
						"key": "t_uint256",
						"label": "mapping(uint256 => struct JobPortal.Applicant)",
						"numberOfBytes": "32",
						"value": "t_struct(Applicant)21_storage"
					},
					"t_string_memory_ptr": {
						"encoding": "bytes",
						"label": "string",
						"numberOfBytes": "32"
					},
					"t_string_storage": {
						"encoding": "bytes",
						"label": "string",
						"numberOfBytes": "32"
					},
					"t_struct(Applicant)21_storage": {
						"encoding": "inplace",
						"label": "struct JobPortal.Applicant",
						"members": [
							{
								"astId": 14,
								"contract": "Job-portal dapp/JobPortal.sol:JobPortal",
								"label": "name",
								"offset": 0,
								"slot": "0",
								"type": "t_string_storage"
							},
							{
								"astId": 16,
								"contract": "Job-portal dapp/JobPortal.sol:JobPortal",
								"label": "age",
								"offset": 0,
								"slot": "1",
								"type": "t_uint256"
							},
							{
								"astId": 18,
								"contract": "Job-portal dapp/JobPortal.sol:JobPortal",
								"label": "Address",
								"offset": 0,
								"slot": "2",
								"type": "t_string_storage"
							},
							{
								"astId": 20,
								"contract": "Job-portal dapp/JobPortal.sol:JobPortal",
								"label": "rating",
								"offset": 0,
								"slot": "3",
								"type": "t_uint256"
							}
						],
						"numberOfBytes": "128"
					},
					"t_struct(Job)115_storage": {
						"encoding": "inplace",
						"label": "struct JobPortal.Job",
						"members": [
							{
								"astId": 108,
								"contract": "Job-portal dapp/JobPortal.sol:JobPortal",
								"label": "jobName",
								"offset": 0,
								"slot": "0",
								"type": "t_string_storage"
							},
							{
								"astId": 110,
								"contract": "Job-portal dapp/JobPortal.sol:JobPortal",
								"label": "salary",
								"offset": 0,
								"slot": "1",
								"type": "t_uint256"
							},
							{
								"astId": 112,
								"contract": "Job-portal dapp/JobPortal.sol:JobPortal",
								"label": "details",
								"offset": 0,
								"slot": "2",
								"type": "t_string_storage"
							},
							{
								"astId": 114,
								"contract": "Job-portal dapp/JobPortal.sol:JobPortal",
								"label": "applicantsCount",
								"offset": 0,
								"slot": "3",
								"type": "t_uint256"
							}
						],
						"numberOfBytes": "128"
					},
					"t_uint256": {
						"encoding": "inplace",
						"label": "uint256",
						"numberOfBytes": "32"
					}
				}
			},
			"userdoc": {
				"kind": "user",
				"methods": {},
				"version": 1
			}
		}
	}
}